:020000040801F1
:10000000A0410020111001086504010867040108DF
:100010006B0401086F04010873040108000000006C
:10002000000000000000000000000000770401084C
:1000300079040108000000007B040108D5240108B0
:100040002B1001082B1001082B1001082B100108A0
:100050002B1001082B1001082B1001082B10010890
:100060002B1001082B1001082B1001082B10010880
:100070002B1001082B1001082B1001082B10010870
:100080002B1001082B1001082B1001082B10010860
:100090002B1001082B1001082B1001082B10010850
:1000A0002B1001082B1001082B1001082B10010840
:1000B0002B1001082B1001082B1001082B10010830
:1000C0002B1001082B1001082B1001082B10010820
:1000D0002B1001082B1001082B1001082B10010810
:1000E0002B1001082B1001082B1001082B10010800
:1000F0002B1001082B1001082B1001082B100108F0
:100100002B1001082B1001082B1001082B100108DF
:100110002B1001082B1001082B1001082B100108CF
:100120002B1001082B1001082B1001082B100108BF
:100130002B1001082B1001082B1001082B100108AF
:100140002B1001082B1001082B100108D15E0108AB
:100150002B1001082B1001082B1001082B1001088F
:100160002B1001082B1001082B1001082B1001087F
:100170002B1001082B1001082B1001082B1001086F
:100180002B1001082B100108DFF80CD00BF036F90A
:100190000048004735030108A04100207FB5002535
:1001A0000E21722000F05AFC9748006897490860B9
:1001B0009548001D006848609348083000688860D2
:1001C000A5208DF80000084600788DF8010008464B
:1001D0000088000A8DF8020008460068000C8DF8BF
:1001E000030008460068000E8DF8040008460079F8
:1001F0008DF8050008468088000A8DF8060008463C
:100200004068000C8DF8070008464068000E8DF825
:1002100008000846007A8DF8090008460089000A9F
:100220008DF80A0008468068000C8DF80B0008461F
:100230008068000E8DF80C005A208DF80D00002407
:1002400009E01DF804007249095D884201D00125CA
:1002500003E0601CC4B20E2CF3DB00BF284604B0E0
:1002600070BD1FB50F21712000F0F8FB6848407881
:10027000A52803D16648407B5A2858D062480068B8
:10028000624908606048001D006848605E480830A8
:1002900000688860A5208DF80000084600788DF879
:1002A000010008460088000A8DF802000846006830
:1002B000000C8DF8030008460068000E8DF804005D
:1002C000084600798DF8050008468088000A8DF8F8
:1002D000060008464068000C8DF807000846406894
:1002E000000E8DF808000846007A8DF809000846CF
:1002F0000089000A8DF80A0008468068000C8DF815
:100300000B0008468068000E8DF80C005A208DF80E
:100310000D00002405E01DF804003E490855601C4E
:10032000C4B20E2CF7DB0E21722000F0BDFB1FBD06
:100330000020704708B500BF4FF48031C80200F0BC
:10034000B3FE4FF4A06000F075FE02F07FF8A82025
:1003500000F0DCFD00F0D9F92F480078012801D128
:10036000FFF77FFFFFF71AFF2C4908704FF4007169
:100370002B480AF0EAFE2B482B4B2C4A0121009017
:100380002B4803F065FF05F03FFE4FF6FF704FF47A
:10039000F0734FF4487200210090084605F045FEC6
:1003A00024A04FF6FF7300224FF4DC7100904FF44D
:1003B000C87006F020FA00F08AFD0A20254908805E
:1003C0000B2048800C2088800D20C88016E000207B
:1003D000214908700EE021481F49097830F81120A2
:1003E00000211D4800780AF0F9FA1B480078401CEB
:1003F00019490870184800780128ECDBE7E701206C
:100400001749087070470000107AFF1F3C21002038
:10041000A82E0020E02D00204000002041000020F8
:10042000E02B0020C0000020A80000204821002070
:10043000DC210020C4CFBEA9CBF7B3CFD7D4B6AF51
:10044000BBAFBFD8D6C6BCBCCAF5D3D0CFDEB9AB24
:10045000CBBE000040300020420000200000002001
:1004600034000020704700BFFEE700BFFEE700BF7A
:10047000FEE700BFFEE77047704770470CB50020ED
:10048000019000907648006840F48030744908601C
:1004900000BF7348006800F4003000900198401CD1
:1004A0000190009818B90198B0F5A04FF1D16C48AF
:1004B000006800F4003010B10120009001E000203D
:1004C00000900098012846D165484030006840F00F
:1004D00080506349403108606248006840F4404001
:1004E000604908605E48083000685D49083108606E
:1004F0000846006840F4004008600846006840F480
:10050000A05008605848091F0860081F006840F0A4
:100510008070091F086000BF5148006800F000703B
:100520000028F9D040F20570504908604C48083066
:10053000006820F003004A49083108600846006856
:1005400040F00200086000BF45480830006800F035
:100550000C000828F8D10CBD10B54548006840F4DF
:100560007000434908603E48006840F001003C4983
:10057000086000203A4908310860394800683D4960
:100580000840374908603C48091D0860081F00689A
:1005900020F48020091F0860002031490C310860D8
:1005A000FFF76CFF4FF0006031498039086010BDE3
:1005B00070B500200022022300240221284D0835B6
:1005C0002D6805F00C0020B1042806D0082834D18D
:1005D00007E02A4D2A4E356033E02A4D284E35601B
:1005E0002FE01F4D2D1D2D68C5F380541C4D2D1D72
:1005F0002D6805F03F0154B1224DB5FBF1F5184EC1
:10060000361D3668C6F3881605FB06F209E01B4D59
:10061000B5FBF1F5124E361D3668C6F3881605FB9C
:1006200006F20F4D2D1D2D68C5F301456D1C6B00A5
:10063000B2FBF3F5124E356003E0104D104E3560FD
:1006400000BF00BF064D08352D68C5F303150E4EDB
:10065000705D0B4D2D68C540094E356070BD0000C2
:10066000003802400070004008544007003C02403F
:1006700088ED00E0FFFFF6FE103000240024F400B7
:100680004400002000127A004800002010B5044603
:10069000204601F046FF10BD0246002105E0481C3F
:1006A000C1B2C82901DD00207047F748008800F07A
:1006B00002000028F3D0F448001D0280002105E06C
:1006C000481CC1B2C82901DD0020EDE7EE480088D2
:1006D00000F001000028F3D0EB48001D0088C0B2F4
:1006E000E2E710B5C820FFF7D1FF4FF48051E7488B
:1006F00000F012FE10BD10B54FF48051E34800F039
:100700000DFEC820FFF7C2FF10BD00B587B0012164
:10071000880301F06CF80121022001F01FF800218C
:10072000D948083801F098FD05220E21D74800F07D
:1007300002FE05220F21D54800F0FDFD05220D2106
:10074000D24800F0F8FD4FF46040059002208DF88B
:10075000180003208DF8190000208DF81A008DF87C
:100760001B0005A9C94800F05BFD4FF480500590BF
:1007700002208DF8190001208DF8180003208DF853
:10078000190000208DF81A008DF81B0005A9BF483C
:1007900000F046FD0020ADF800004FF48270ADF887
:1007A00002000020ADF804000220ADF80600012090
:1007B000ADF808004002ADF80A001020ADF80C00BA
:1007C0000020ADF80E000720ADF810000121AE4862
:1007D000083801F07FFD6946AB48083801F042FC5B
:1007E0000121A948083801F037FD4FF48051A7488E
:1007F00000F092FD07B000BD0246002105E0481C54
:1008000081B2C82901DD002070479F48008800F0B0
:1008100002000028F3D09C48001D0280002105E062
:10082000481C81B2C82901DD0020EDE79648008808
:1008300000F001000028F3D09348001D0088C0B2EA
:10084000E2E710B5FFF757FF0620FFF7D5FFFFF7E8
:1008500048FF10BD10B5FFF74EFF0420FFF7CCFF97
:10086000FFF73FFF10BD10B5FFF7EBFFFFF743FFAA
:100870000120FFF7C1FF8220FFF7BEFFFFF731FF26
:1008800010BD10B5FFF7DDFFFFF735FF0520FFF7BF
:10089000B3FF0020FFF7B0FF0446FFF722FF20461A
:1008A00010BD70B504460E46FFF7CBFFFFF723FFE0
:1008B0000220FFF7A1FFC4F30720FFF79DFFE0B27E
:1008C000FFF79AFF3046FFF797FFFFF70AFF00BFD9
:1008D000FFF7D7FF054605F001000028F8D170BDED
:1008E0002DE9F04104460D461646FFF7AAFFFFF733
:1008F00002FF0220FFF780FFC4F30720FFF77CFF11
:10090000E0B2FFF779FF002705E02878FFF774FFD2
:100910006D1C781CC7B2B742F7DBFFF7E2FEBDE8FB
:10092000F08170B50446FFF7E6FE0320FFF764FF91
:10093000C4F30720FFF760FFE0B2FFF75DFF002080
:10094000FFF75AFF0546FFF7CCFE284670BD10B5ED
:100950000024FFF7D0FE0520FFF79EFEFF20FFF7E3
:100960009BFE0446FFF7BDFE204610BD10B50446B1
:10097000FFF7C1FE0120FFF78FFE2046FFF78CFE38
:10098000FFF7AFFE10BD10B5FFF7B5FE0620FFF76D
:1009900083FEFFF7A6FE10BD10B5FFF7ACFE0420E6
:1009A000FFF77AFEFFF79DFE10BD10B500BFFFF701
:1009B000CEFF00F001000028F9D110BD70B504464B
:1009C000FFF799FE002501E0681CC5B2082DFBDB8E
:1009D0000320FFF761FEC4F30720FFF75DFEE0B2DE
:1009E000FFF75AFEFF20FFF757FE0646FFF7DDFF31
:1009F000FFF777FE304670BD70B504460D46FFF731
:100A0000C2FF6420FFF742FEFFF7A1FF6420FFF75B
:100A10003DFEFFF770FE6420FFF738FE0220FFF76F
:100A20003BFE6420FFF732FEC4F30720FFF734FEDD
:100A30006420FFF72BFEE0B2FFF72EFE6420FFF7E5
:100A400025FE2846FFF728FE4FF4FA60FFF71EFE4A
:100A5000FFF747FE6420FFF719FE70BD70B505462D
:100A60000E46002406E02819FFF75BFF08490855E9
:100A7000601C84B2B442F6DB70BD2DE9F04105463E
:100A80000E46174600240BE00838004000040240E0
:100A9000A82E00203019FFF791FF2855601C84B262
:100AA000BC42F7DBBDE8F08170B505460E46002478
:100AB00006E00D4A115D2819FFF7F3FE601C84B2B1
:100AC000B442F6DB70BD2DE9F04105460E461746EF
:100AD000002405E0295D3019FFF78EFF601C84B209
:100AE000BC42F7DBBDE8F081E02D002000210AE0E8
:100AF000E348405C012804D00120E14A50540846F4
:100B00007047481CC1B21429F2DB0020F8E700212D
:100B1000DB4A115470470146D948405C08B90120AE
:100B200070470020FCE710B50346002003E00C5C92
:100B30001C54441CE0B29042F9DB10BD10B50346D2
:100B4000002005E031F8104023F81040441CA0B20A
:100B50009042F7DB10BD2DE9F043B3B00546002409
:100B6000A14607242E5D0EB9012000E00020032ECF
:100B700001D1012100E000210843062E01D101210D
:100B800000E00021084300285CD016B1062E30D1C9
:100B900000E033E0E978A87801EB0028B8F1000F15
:100BA00001D3012000E0002067281FDC2046611CE3
:100BB000CCB201A90E54AA782046611CCCB201A97E
:100BC0000A54EA782046611CCCB201A90A542A7959
:100BD0002046611CCCB201A90A546A792046611CE6
:100BE000CCB201A90A544FF0000901E04FF01009FE
:100BF00004E04FF0FF3033B0BDE8F08300BFFFF7F3
:100C000075FF0746380A8DF804008DF8057000203E
:100C10008DF806008DF80700A01F000A8DF8080067
:100C2000A01FC0B28DF8090028788DF80A00C821ED
:100C300094480AF08AFA224601A99248FFF773FF06
:100C4000914804700020D6E770472DE9F04FFFB0BF
:100C500005460024A346002001900624281990F898
:100C60000190B9F1000F01D1012000E00020B9F19D
:100C7000030F01D1012100E000210843B9F1060F63
:100C800001D1012100E000210843B9F1100F01D189
:100C9000012100E000210843B9F1170F01D1012122
:100CA00000E000210843002875D0285D02A90855FE
:100CB00002A8005D012806D14FF4CE727349744832
:100CC0000AF02AFA00E000BF00BFB9F1000F06D019
:100CD000B9F1030F60D0B9F1100F7CD100E0A9E0A9
:100CE000E01C295CA01C285C01EB0027601D295C2E
:100CF000201D285C01EB0028002F30D307EB0800F3
:100D000067282CD80197019F48EA074001900126E7
:100D100022E0B819A0F1010A2919C91D701E11F8A5
:100D200010005B4921F81A00084630F81A004FF607
:100D3000FF7101EA0020564921F81A0029190831EB
:100D4000701E11F81000524931F81A10084350492A
:100D500021F81A00701CC6B24645DAD901E04FF0FE
:100D6000100B601CC4B2285D40EA0B0002A90855B4
:100D7000601CC4B2285D0855601CC4B2285D0855CB
:100D8000601CC4B2285D0855601CC4B2285D0855BB
:100D9000601CC4B24EE06FE0E01C295CA01C285C23
:100DA00001EB0027601D295C201D285C01EB002859
:100DB000002F2DD307EB0800672829D8601CC4B288
:100DC000285D02A90855601CC4B24FEA4860000EB5
:100DD0000855012617E02CE0781E30442C4931F8E4
:100DE0001000010A601CC0B2044602AA1154781E09
:100DF0003044274931F81000C1B2601CC0B204462B
:100E00001154701CC6B24645E6D9601CC4B20FE04E
:100E10000624285D02A90855641C4FF0100B285DBC
:100E200040EA0B0008550121601C044602AA115437
:100E300000E000BF00BF134800788DF8080011489B
:100E400040788DF8090000208DF80A008DF80B001D
:100E5000A01F000A8DF80C00A01FC0B28DF80D0075
:100E60004FF4806107480AF070F9224602A905484C
:100E7000FFF759FE0448047001987FB0BDE8F08F79
:100E8000B0320020A0390020352100204030002061
:100E9000702F002070B50A46002314E000210CE0FA
:100EA000058830F81160B54205DD048830F811502E
:100EB000058020F811404D1CA9B2D51A6D1E8D4237
:100EC000EEDC591C8BB2511E9942E7DC70BD10B5A7
:100ED00009F0F2FF0021084609F026FC0021042059
:100EE00009F022FC0649042009F03BFD05490020D9
:100EF00009F037FD0449012009F016FC10BD00007F
:100F000030000020180000200800002010B5044622
:100F10006FF0040000F0E0F8E11704EB5171C1F349
:100F2000C701394A11701046007800EB4001C1EB4F
:100F3000C0104FF6FF7101EAC0003449088010BDAF
:100F40000146314A12784A434FF0E0235A610022A9
:100F50009A611A46126942F001021A6100BF4FF00D
:100F6000E022106900F001021AB100F48032002A78
:100F7000F5D04FF0E022126922F001024FF0E02399
:100F80001A6100229A6170470146204A12884A433A
:100F90004FF0E0235A6100229A611A46126942F02A
:100FA00001021A6100BF4FF0E022106900F0010257
:100FB0001AB100F48032002AF5D04FF0E022126915
:100FC00022F001024FF0E0231A6100229A6170477B
:100FD00070B504464FF4077094FBF0F0C6B24FF4BE
:100FE000077094FBF0F100FB114085B205E04FF46F
:100FF0000770FFF7C9FF701EC6B2002EF7D115B1FA
:101000002846FFF7C1FF70BD580000205A0000209D
:101010000648804706480047FEE7FEE7FEE7FEE792
:10102000FEE7FEE7FEE7FEE7FEE7FEE759050108FB
:101030008901010832490143324A1160704770B595
:10104000002100230F22C4781CB32E4C246804F422
:10105000E064C4F5E064C4F30721C1F10404E3B221
:101060000A4144789C40E1B28478144021430C0743
:10107000210E254C05786155047804F01F050124E4
:10108000AC4005786D11AD0005F1E025C5F80041D3
:1010900009E0047804F01F050124AC401B4D0678DC
:1010A000761145F8264070BD194A0A400243154B97
:1010B0001B1F1A60704739B1124A121D1268024391
:1010C000104B1B1D1A6006E00E4A121D1268824367
:1010D0000C4B1B1D1A607047042808D14FF0E0210B
:1010E000096941F004014FF0E022116107E04FF07F
:1010F000E021096921F004014FF0E02211617047FD
:101100000000FA050CED00E000E400E080E100E002
:1011100080FFFF1F10B504469848844208D1012182
:10112000084600F086FB0021012000F082FB76E0FB
:101130009348844208D10121022000F07AFB00216B
:10114000022000F076FB6AE08E48844208D101213B
:10115000042000F06EFB0021042000F06AFB5EE03A
:101160008948844208D10121082000F062FB002157
:10117000082000F05EFB52E08448844208D101213F
:10118000102000F056FB0021102000F052FB46E03A
:101190007F48844208D10121202000F04AFB002131
:1011A000202000F046FB3AE07A48844208D1012131
:1011B000402000F03EFB0021402000F03AFB2EE0F2
:1011C0007548844208D10121802000F032FB0021C3
:1011D000802000F02EFB22E07048844208D10121DB
:1011E000801500F026FB0021A01500F022FB16E080
:1011F0006B48844208D10121401500F01AFB002100
:10120000601500F016FB0AE06648844207D1012110
:10121000001500F00EFB0021201500F00AFB10BDA8
:10122000F0B50A4600210023002400BF3DE001255F
:1012300005FA01F3156805EA03049C4234D10568F8
:101240004F000326BE40B543056015794E00B540FA
:101250000668354305601579012D02D01579022DF8
:1012600016D185684F000326BE40B5438560557989
:101270004E00B540866835438560456801268E403E
:10128000B5434560456896798E40B6B235434560B2
:10129000C5684F000326BE40B543C560D5794E00F2
:1012A000B540C6683543C560491C1029BFD3F0BDA1
:1012B0004FF6FF7101600021017141718171C171AF
:1012C000704708B54FF480320092009A0A430092AA
:1012D000009AC261C161009AC261C2690092C2698A
:1012E000009208BD0246002013690B400BB101209B
:1012F00000E0002070470146086980B2704702464E
:10130000002053690B400BB1012000E00020704722
:101310000146486980B27047018370474183704736
:101320000AB1018300E0418370474161704742691F
:101330004A4042617047F0B5002300244D07ED0E8E
:1013400002FA05F3CE1000F1200555F826504E079D
:10135000F70E0F26BE40B543CF1000F1200646F829
:101360002750CE1000F1200555F8265045EA030419
:10137000CE1000F1200545F82640F0BD00000240E7
:101380000004024000080240000C0240001002402D
:101390000014024000180240001C024000200240DD
:1013A0000024024000280240F948006840F0010093
:1013B000F74908600020F64908310860F4480068E1
:1013C000F4490840F2490860F348091D0860F348F1
:1013D000EF4984310860F0481038091D0860EC4876
:1013E000006820F48020EA4908600020E8490C31B8
:1013F0000860E7498C31086070470021E44A921C7C
:10140000117011460870704710B501460022002384
:1014100000204A11012A02D1DD4C236808E0022A8B
:1014200003D1DB4C7034236802E0D94C7434236858
:1014300001F01F02012494401C400CB1012000E087
:10144000002010BD38B5002000900024002500BF0A
:101450003120FFF7D9FF05460098401C0090009806
:10146000B0F5A04F01D0002DF2D03120FFF7CCFF16
:1014700008B1012400E00024204638BD01460020C8
:10148000C34A106820F0F80040EAC10010607047BD
:10149000C349086070470021BD4A70321170117055
:1014A000012802D004280AD104E00121B84A703290
:1014B000117005E00521B64A7032117000E000BFDE
:1014C00000BF7047B7490860704770B5049C41EA97
:1014D00082150126C6EB530645EA0645054345EA53
:1014E0000465AB4E361D356070BDAD49086670476A
:1014F000820142EA0172A64B84331A607047A84900
:101500008866704710B5830143EA016343EA0273BA
:101510009F4C8834236010BDA14908677047A049DB
:10152000C864704702460020994B0833186820F0C1
:10153000EC6042EA01031843954B0833186070478A
:1015400002460020924B0833186820F0784042EAA7
:10155000010318438E4B0833186070470146002082
:101560008B4A0832106820F003000843106070476F
:1015700087480830006800F00C00704701460020E2
:10158000834A0832106820F0F0000843106070476A
:10159000014600207E4A0832106820F4E0500843DB
:1015A0001060704701460020794A0832106820F424
:1015B000604040EAC10010607047F0B50021002291
:1015C0000024022500260223714F08373F6807F0E8
:1015D0000C0121B1042905D0082937D105E0724F4B
:1015E000076036E0714F076033E0694F3F1D3F6889
:1015F000C7F38056664F3F1D3F6807F03F036EB14B
:101600006A4FB7FBF3F7DFF888C10CF1040CDCF884
:1016100000C0CCF3881C07FB0CF40CE0624FB7FB56
:10162000F3F7DFF86CC10CF1040CDCF800C0CCF36C
:10163000881C07FB0CF4564F3F1D3F68C7F301475A
:101640007F1C7D00B4FBF5F7076002E0564F076092
:1016500000BF00BF4E4F08373F6807F0F00109098F
:10166000534F7A5C0768D7404760494F08373F6857
:1016700007F4E051890A4E4F7A5C4768D74087608B
:10168000434F08373F6807F46041490B484F7A5C85
:101690004768D740C760F0BD002100F44072B2F542
:1016A000407F0AD13A4A0832116821F4F811414AC0
:1016B00002401143364A08321160354A70321268CE
:1016C000C0F30B031A43324B70331A60704735492D
:1016D00044390860704733494039086070473649DB
:1016E0000860704701460020294A8C32106820F0BB
:1016F0001F004A1E1043264A8C3210607047014674
:101700000020234A8C32106820F4F8504A1E40EA28
:1017100002201F4A8C3210607047014600201C4A8C
:101720008C32106820F44010084310607047014666
:101730000020174A8C32106820F4400008431060E3
:10174000704701460020124A8C32106820F4403065
:1017500008431060704719490860704739B10C4A56
:101760003032126802430A4B30331A6006E0084AEE
:10177000303212688243064B30331A607047F9B139
:10178000034A343212680243014B34331A601CE0BE
:1017900000380240FFFFF6EA10300024003000203D
:1017A00000004742800E47420024F40000127A00F5
:1017B0005C000020FFFCFF0F5C014742E011474244
:1017C0008F4A126882438E4B1A60704739B18C4A37
:1017D000121D126802438A4B1B1D1A6006E0884ADC
:1017E000121D12688243864B1B1D1A60704739B167
:1017F000834A0C3212680243814B0C331A6006E0B4
:101800007F4A0C32126882437D4B0C331A6070475A
:1018100039B17B4A103212680243794B10331A6097
:1018200006E0774A103212688243754B10331A6013
:10183000704739B1724A243A12680243704B243B14
:101840001A6006E06E4A243A126882436C4B243BCD
:101850001A60704739B16A4A203A12680243684BED
:10186000203B1A6006E0664A203A12688243644BC5
:10187000203B1A60704739B1614A1C3A1268024332
:101880005F4B1C3B1A6006E05D4A1C3A12688243BB
:101890005B4B1C3B1A60704739B1594A143A1268C5
:1018A0000243574B143B1A6006E0554A143A12683B
:1018B0008243534B143B1A60704739B1504A103A77
:1018C000126802434E4B103B1A6006E04C4A103A35
:1018D000126882434A4B103B1A60704739B1484A3C
:1018E0001C3212680243464B1C331A6006E0444A1D
:1018F0001C3212688243424B1C331A60704739B164
:101900003F4A2032126802433D4B20331A6006E002
:101910003B4A203212688243394B20331A607047A9
:1019200039B1374A243212680243354B24331A60E6
:1019300006E0334A243212688243314B24331A6062
:10194000704739B12E4A2C32126802432C4B2C338B
:101950001A6006E02A4A2C3212688243284B2C3344
:101960001A60704739B1264A303212680243244B5C
:1019700030331A6006E0224A303212688243204B2C
:1019800030331A607047012808D11D493C3109687D
:1019900041F008011A4A3C32116007E018493C3115
:1019A000096821F00801164A3C321160704739B1CC
:1019B000134A273A12780243114B273B1A7006E06C
:1019C0000F4A273A127882430D4B273B1A70704713
:1019D0000B484030006840F0807009494031086091
:1019E000704701460020064A283A12680A400AB1A8
:1019F000012000E000207047014926390870704737
:101A00003438024030B943F2DB028100A1F1C04119
:101A10000A6005E043F2D2028100A1F1C0410A60F0
:101A20006FF07042411C8900A1F1C0410A60810041
:101A3000A1F1C041C1F804217047D0E9011211435E
:101A4000C26811430269114342691143826911431B
:101A5000C2691143026A1143426A1143826A114307
:101A6000C26A1143026B114302689200A2F1C042A4
:101A70001160816808290BD101688900A1F1C0417A
:101A8000096841F0400201688900A1F1C0410A6083
:101A9000416B0968426B526841EA0211426B9268DD
:101AA00041EA0221426B928941EA0241426B128A69
:101AB00041EA0251426B127D41EA0261426B926936
:101AC00011430268521C9200A2F1C0421160C16A27
:101AD000B1F5804F1BD1816B0968826B526841EA76
:101AE0000211826B926841EA0221826B128A41EAFA
:101AF0000251826B127D41EA0261826B926911434D
:101B000002689200A2F1C042C2F8041107E06FF02F
:101B1000704201688900A1F1C041C1F804217047F9
:101B2000002101600221416000218160C1600161EA
:101B300041618161C16101624FF48051416249009C
:101B400081620021C1620163F8494163816370478A
:101B500051B18200A2F1C042126842F0010382003A
:101B6000A2F1C042136009E08200A2F1C0421268F3
:101B7000EF4B1A408300A3F1C0431A60704710284E
:101B80000AD118214FF020421166402151664FF0D2
:101B9000FC319166D16610E01821E64A11604021BF
:101BA0004FF02042C2F884104FF0FC31E14A083275
:101BB00011604FF02042C2F88C10704730B5002100
:101BC00000220023446844F0080485682C43C5685B
:101BD0002C4305692C43456944EA4524856944EA58
:101BE0004531C4692468C5696D6844EA0524C5693E
:101BF0002D8944EA0544C5692D7B44EA0562046ADF
:101C00002468056A6D6844EA0524056A2D8944EA5A
:101C10000544056A2D7B44EA05630468102C05D150
:101C20004FF020442166A266E36608E0C14C2160C3
:101C30004FF02044C4F88820BE4C0C34236030BDE3
:101C400010210160002141608160C160016141613A
:101C50008161FC21C2691160C2695160C2699160F1
:101C6000C269D160026A1160026A5160026A9160C1
:101C7000026AD160704799B1102808D14FF0204214
:101C8000126E42F004024FF020431A661DE0A94A8A
:101C9000126842F004024FF02043C3F8802014E0A1
:101CA000102809D14FF02042126EA14BDB1E1A40C2
:101CB0004FF020431A6608E09E4A12689C4BDB1ED8
:101CC0001A404FF02043C3F88020704799B1102884
:101CD00008D14FF02042126E42F040024FF02043F4
:101CE0001A661DE0934A126842F040024FF020430A
:101CF000C3F8802014E0102809D14FF02042126E62
:101D00008B4B3F3B1A404FF020431A6608E0894A4C
:101D10001268874B3F3B1A404FF02043C3F88020A6
:101D2000704701460020102903D14FF02042506F28
:101D300002E0804A14321068704718207D49203133
:101D4000086000200906C1F8A4004FF0FC30794972
:101D500028310860091D0860091D08607047016886
:101D600041F01001426841EA4221826841EA423171
:101D7000704A20321160C1680968C268526841EA3D
:101D80000221C268128941EA0241C268127B41EA1B
:101D90000261684A28321160016909680269526863
:101DA00041EA02210269128941EA02410269127B79
:101DB00041EA02615F4A2C32116041690968426957
:101DC000526841EA02214269128941EA02414269AC
:101DD000127B41EA02614FF02042C2F8B010704716
:101DE0000021016041608160FC21C2681160C2680D
:101DF0005160C2689160C268D16002691160026975
:101E00005160026991600269D16042691160426962
:101E10005160426991604269D160704748B145495B
:101E20002031096841F004014FF02042C2F8A010AF
:101E300009E04049203109683D4AD21E11404FF067
:101E40002042C2F8A010704710B5F2B1102807D197
:101E50004FF020435B6E0B434FF02044636632E04B
:101E6000B0F5807F08D1334B1B1D1B680B434FF02F
:101E70002044C4F8843026E02E4B24331B680B43E7
:101E80004FF02044C4F8A4301DE0102807D14FF0D3
:101E900020435B6E8B434FF02044636613E0B0F544
:101EA000807F08D1234B1B1D1B688B434FF02044C0
:101EB000C4F8843007E01F4B24331B688B434FF07A
:101EC0002044C4F8A43010BD10B502460020002301
:101ED000102A03D14FF02044636E09E0B2F5807FF1
:101EE00003D1144C241D236802E0124C24342368CF
:101EF00003EA01040CB1012000E0002010BD10280D
:101F000007D14FF02042526E8A434FF020435A6669
:101F100019E0B0F5807F0FD1064A121D12688A437E
:101F20004FF02043C3F884200DE00000E8B401081E
:101F3000FEFF0F00800000A0234A12688A434FF082
:101F40002043C3F8A420704770B502460020002348
:101F500000240025102A03D14FF02046736E08E0BC
:101F6000B2F5807F03D1184E203E336801E0164E53
:101F7000336803EA010403EAD10514B10DB101206D
:101F800000E0002070BD102808D14FF02042526EB2
:101F900022EAD1024FF020435A6614E0B0F5807F68
:101FA00009D1094A203A126822EAD1024FF02043AF
:101FB000C3F8842007E0044A126822EAD1024FF0F5
:101FC0002043C3F8A4207047A40000A010B5044625
:101FD000FB48844208D101218014FFF76EFC0021E8
:101FE000A014FFF76AFC3CE0F648844208D10121C6
:101FF0000014FFF751FC00212014FFF74DFC30E0E6
:10200000F148844208D10121C013FFF745FC0021AB
:10201000E013FFF741FC24E0EC48844208D10121A1
:102020004014FFF74AFC00216014FFF746FC18E05B
:10203000E748844209D101210805FFF73EFC002151
:102040004FF48010FFF739FC0BE0E248844208D1DE
:1020500001214805FFF731FC00214FF40010FFF784
:102060002CFC10BD10B50022028802F441520B88EE
:102070004C8823438C882343CC8823430C892343F7
:102080004C8923438C892343CC8923431A43028000
:10209000838B4FF2FF74234083830B8A038210BD2E
:1020A0002DE9F04F0025022300244FF00109002202
:1020B0000026002794469046B0F81CA04FF2400B33
:1020C0000AEA0B0AA0F81CA04FF0020AA0F820A010
:1020D000858BD1F808A0BAF1020F01D100BF82E0D0
:1020E000B1F804A0BAF1000F02D14FF0010901E0EC
:1020F0004FF00209DFF8E0A2DAF800A00AF4000AC3
:10210000BAF1000F09D0DFF8D0A2DAF800A02AF463
:10211000000ADFF8C4B2CBF800A0DFF8BCA20AF1D5
:102120007C0ADAF800A0CAF3881CDFF8ACA20AF136
:102130007C0ADAF800A0CAF30278DFF89CA2AAF1C0
:10214000040ADAF800A00AF03F07DFF88CA2AAF12F
:10215000040ADAF800A00AF4800ABAF5800F08D160
:10216000DFF878A2BAFBF7FA0AFB0CFABAFBF8F62A
:1021700007E0DFF86CA2BAFBF7FA0AFB0CFABAFB2D
:10218000F8F6B1F806A0BAF5007F0ED14FEA162A8C
:102190000AEB8A0A4FEA4A0AD1F808B0BAFBFBFAFE
:1021A0000AF1050A1FFA8AF20FE04FEA491AB6FB54
:1021B000FAFA0AEB8A0A4FEA4A0AD1F808B0BAFBDF
:1021C000FBFA0AF1050A1FFA8AF24FF00A0AB2FB7B
:1021D000FAF202F00104A2EB040ACAF34F034FF62D
:1021E000FF7A0AEA0424022B01DBFF2B01DD022324
:1021F0000024B1F806A04AEA040A4AEA030AA0F851
:1022000020A0B1F804A0B1F80CB04AEA0B0AB1F86A
:1022100002B04AEA0B0AB1F800B04AEA0B0A4AF4E3
:10222000006A4AEA05058583BDE8F08F0021018038
:1022300041808180C180018141818181C1810721EB
:10224000018270470021018041808180C18002218C
:10225000816000218181704721B1028842F04002F3
:10226000028004E002884FF6BF731A400280704774
:1022700021B1828B42F48062828304E0828B4FF62C
:10228000FF331A408283704702884FF2FF731A406F
:10229000028002880A4302807047B1F5804F04D162
:1022A000028842F48042028004E002884BF6FF7309
:1022B0001A40028070474FF6FF62914204D00288B4
:1022C00042F48072028004E002884FF6FF631A40F5
:1022D0000280704721B1828842F00402828004E0CB
:1022E00082884FF6FB731A408280704721B1828842
:1022F00042F01002828004E082884FF6EF731A40A9
:102300008280704730B500220023848B4FF2400555
:102310002C40848302240484828B0C88B4F5007FD3
:1023200001D00C8814B94FF4807308E00C88B4F520
:10233000407F03D00C88B4F5807F00D100238C88C7
:102340008D892C434D882C431C4344F40064224364
:10235000828330BD0146888970478181704721B1F1
:10236000028842F40052028004E002884DF6FF73B6
:102370001A4002807047018841F480510180704703
:1023800002460020012901D0108B00E0908A70479E
:102390000146088A70471AB183880B43838002E0A4
:1023A00083888B438380704730B5002400230C1151
:1023B0000125A540ABB2AAB185881D43858014E0F4
:1023C0000030014000380040003C00400034014033
:1023D00000500140005401400838024000127A00C9
:1023E0000024F40085889D43858030BD024600208E
:1023F00013890B400BB1012000E000207047CA4355
:1024000002817047F0B50246002000240023002519
:1024100001F00F070126BE40B4B20B1101269E4009
:10242000B3B2968806EA03051689264016B10DB1A7
:10243000012000E00020F0BD10B5002201F00F04E3
:102440000123A3409AB2D343038110BD70B500208D
:1024500016E0002100EB4002814B03EB8202516049
:1024600000EB400203EB8202916000EB400203EBC1
:102470008202517000EB400203F82210411CC8B2E6
:102480000428E6DB774909684FF47A73B1FBF3F26D
:10249000511EB1F1807F00D31BE0511E4FF0E023AD
:1024A000596159170F23002907DA1C07260E6E4CB5
:1024B00001F00F052D1F665503E01C07250E6B4C20
:1024C000655400BF00214FF0E02399610721196195
:1024D00000BF70BD0020014615E001EB4102604BDA
:1024E00003EB8200426852B14268521E426032B928
:1024F000012242700278012A01D18268426000BF45
:10250000481CC0B201460429E7DB59480068401C5A
:10251000574A106010460068401C08B9002010603F
:10252000704770B5034600BF4FF0E0267569A826D6
:1025300003FB06F400224FF0E026B16910E04FF0F3
:10254000E026B06988420BD0884202D20E1A32448B
:1025500002E02E1A0E4432440146A24200D300E0AB
:10256000EDE700BF70BD30B50446002504E04FF430
:102570007A70FFF7D6FF6D1CA542F8D330BD70B559
:1025800004460D461646042C00DB70BD012000F009
:1025900063F804EB4400324901EB8000456004EB32
:1025A000440001EB80008560002004EB44012C4ACC
:1025B00002EB810148702EB1012004EB440102F8C6
:1025C000210005E0002004EB4401254A02F8210027
:1025D000002000F041F800BFD7E710B50446042CF6
:1025E00000DB10BD012000F037F8002004EB4401AF
:1025F0001B4A02EB8101486004EB440102EB8101BC
:10260000487004EB440102F8210000F025F800BFF7
:10261000E7E70146042901DB0020704701EB410098
:102620000F4A02EB80004078012808D1002001EB1E
:1026300041020B4B03EB820250700120EDE70020BA
:10264000EBE710B5012000F007F809480468002006
:1026500000F002F8204610BD80F31088704700009B
:10266000C43200204400002018ED00E000E400E047
:102670006C00002008B500210091491EC26851601D
:102680006FF08041C2685161009921F0004101F171
:1026900000410091009921F4006101F50061009171
:1026A0000099C268916108BDF8B50446002600256E
:1026B0000020009000BF032003F0FAFBE0680069EF
:1026C0000090681C0546F749884201D90020F8BDF2
:1026D0000098C00F0028EED00025009820F00100DF
:1026E000401C00900098E168086100BFE068006944
:1026F0000090681C0546EB49884200D904E0009828
:1027000000F001000028F1D100BF032003F0D0FB4E
:102710003046DCE72DE9F04104460026E078B0B908
:1027200000270020DD1C4FEAE57805EB98784FEA9A
:10273000A80704F1D00555F822C000BF04E00D68D9
:10274000CCF80050401C091DB842F8D300BF3046F9
:10275000BDE8F081F0B503460024D01CC71700EB9C
:102760009777BD10D3F8D06000BF03E030680860F1
:10277000641C091DAC42F9D30846F0BD70B5024691
:102780000C46002300200025D570012595704025BA
:102790009580012C0CD14FF0A0430125D57208255E
:1027A0001570042555709D15D580022515720AE017
:1027B0004CB9BD4B0025D5720C25157006255570FA
:1027C0004FF4A065D580D36003F500651561002145
:1027D00010E003F5106505EB411602F1180545F808
:1027E000216003F5306505EB411602F1540545F80B
:1027F0002160491C55788D42EBD803F58065556101
:102800004035C2F8CC50002108E003F5A06505EB87
:10281000411602F1900545F82160491C15788D425A
:10282000F3D8002108E003F5805505EB013602F1ED
:10283000D00545F82160491C15788D42F3D803F581
:102840006065C2F80C5170BD3EB5044600250020FD
:10285000029001900090207A01283DD1E068806BC1
:102860000190019820F480300190607A28B101989D
:1028700020F4801000F5801001900198E1688863D1
:1028800000200290E068C0680290029820F04000AA
:102890000290029820F480000290029820F4003008
:1028A0000290029820F4002002900298E168C8602B
:1028B0002046FFF7F9FEE078012843D1009820F088
:1028C0001E000A300090009820F020002030009078
:1028D0000098E168886035E0E068C068029002987E
:1028E00020F04000403002900298E168C860204625
:1028F000FFF7DAFE00200190019820F4803000F507
:1029000080300190019820F4802000F58020019013
:10291000019820F4002000F500200190019820F497
:10292000001000F500100190607A28B1019820F4A1
:10293000801000F5801001900198E16888631420F0
:1029400003F0BCFAE07801280FD1E06880680090BD
:10295000009820F01E000A300090009820F020001F
:10296000203000900098E168886028463EBD08B598
:102970000146002000220092009A22F00102521C1F
:102980000092CA689268009B1A43CB689A6008BD9F
:1029900008B50146002000220092009A22F00102B0
:1029A000521C0092CA689268009B9A43CB689A6056
:1029B00008BDF8B504460D4600260027002000900B
:1029C000009820F0200020300090009865F38A10D5
:1029D00000900098E168086100BFE068006900901D
:1029E000781C07462F49884200D904E00098C0F3BC
:1029F00040100028F1D100BF032003F059FA3046FF
:102A0000F8BDF8B504460025002600200090009887
:102A100020F01000103000900098E168086100BFBD
:102A2000E06800690090701C06461E49884200D983
:102A300004E00098C0F300100028F1D100BF03208B
:102A400003F036FA2846F8BDF8B504460D460026D0
:102A5000E068C0680090009820F000500090009856
:102A600020F080400090012D06D1009820F0005009
:102A700000F10050009006E02DB9009820F0804051
:102A800000F1804000900098E168C860322003F0B7
:102A900015FA3046F8BD0146C868406900F00100EB
:102AA00070470000400D03000000044000B50246DE
:102AB0001046FFF7F0FF012801D0012000BD0020E3
:102AC000FCE700B502461046FFF7E5FF012800D1FC
:102AD00000BD0020FCE701460020CA685069CA68B2
:102AE0009269104070470146C8684068704738B521
:102AF0000446002500200090E1688861401EE168DE
:102B000048612046FFF7B6FDE07820B9009820F034
:102B1000100010300090009820F0807000F180705C
:102B20000090009820F0007000F100700090009874
:102B300020F0005000F100500090009820F00800B4
:102B400008300090009820F4001000F5001000906C
:102B5000E0688069009988430843E16888612846F5
:102B600038BD08B50146D1F8CC0000680090009847
:102B700020F004000090009820F0020000900098DF
:102B800020F008000090009820F0200000900098AD
:102B900008BD38B505460C46002000902146284661
:102BA00003F084F92846FFF7DCFF00900098C0F39B
:102BB000003058B9012C09D1009820F4805000F55C
:102BC000805000900099D5F8CC0001600098C0F3C7
:102BD000003040B13CB9009820F48050009000993A
:102BE000D5F8CC000160C82003F068F938BD38B5CD
:102BF00004462046FFF7B5FF0090009820F480704F
:102C000000F5807000900099D4F8CC0001600A2093
:102C100003F054F9009820F4807000900099D4F8E3
:102C2000CC000160142003F049F9012038BD08B53B
:102C3000426912680092009A61F301020092009BBF
:102C40004269136008BDFEB5044600260025002039
:102C5000029001900090204603F029F90021D4F859
:102C60000C010160207A012803D12046FFF7DFFF25
:102C700003E001212046FFF7DAFF2046FFF7B7FF08
:102C8000606900680090009820F0040000900099AE
:102C900060690160E07A01281DD18020E168486206
:102CA00002986FF30F0080300290029880B200F516
:102CB000C00002900298E168886201986FF30F00EB
:102CC000E0300190019880B200F5C00001900198B9
:102CD000E168C1F8000110212046FFF76AFE204696
:102CE000FFF78FFE00250DE04FF0FF3104F190005B
:102CF00050F825008160002104F1900050F8250073
:102D0000C1606D1C2078A842EED801212046FFF753
:102D100040FF2046FFF7EBFE3046FEBD0146486906
:102D2000806800F0010080F00100704701464869AA
:102D3000406970473FB502460020002300240294FA
:102D400003940194441E009402F1900454F821402D
:102D5000009DA56000240394D478012C04D1039C29
:102D600024F00404241D039402F56B7404EB411455
:102D7000647934B1012C6AD0022C03D0032C38D1F1
:102D800038E000BF039C24F00104641C0394039CFE
:102D900024F0080408340394039C24F08004803455
:102DA0000394039C24F4806404F580640394039CDE
:102DB00024F010041034039402F56B7404EB4114F6
:102DC000A47834B1039C24F4807404F580740394D3
:102DD0000FE0039C24F040044034039402F56B742C
:102DE00004EB4114247924B1039C24F02004203402
:102DF00003944EE0039C24F00104641C0394039CA0
:102E000024F0100410340394039C24F008040834C4
:102E10000394039C24F0800480340394039C24F4E2
:102E2000806404F580640394039C24F4007404F526
:102E30000074039402F56B7404EB4114A4782CB174
:102E4000039C24F4807404F58074039421E0039CB3
:102E500024F00104641C0394039C24F4007404F51E
:102E600000740394039C24F020042034039402F59E
:102E70006B7404EB4114A47854B1039C24F08004D7
:102E800080340394039C24F4807404F580740394C8
:102E900000BF00BF02F1900454F82140039DE5609B
:102EA000012404FA01F35469A4691C435569AC6117
:102EB000029C24F0007404F100740294D468A469A4
:102EC000029D2C43D568AC610024019402F56B741B
:102ED00004EB41142578019C65F39C54019402F5A0
:102EE0006B7404EB41146578019C65F3CE24019466
:102EF00002F56B7404EB4114A578019C65F3CF34A3
:102F0000019402F56B7404EB4114E478022C01D1B6
:102F1000012500E00025019C65F35144019402F570
:102F20006B7404EB41146579019C65F3934401943F
:102F300002F56B7404EB4114E588019C65F30A0407
:102F4000019402F56B7404EB41146479032C05D1F0
:102F5000019C24F0005404F10054019402F1900407
:102F600054F82140019D256004B030BD2DE9F043A7
:102F700088B004460D464FF00009C8464FF48077EC
:102F8000002006900790009004F56B7000EB451050
:102F9000006910B304F56B7000EB4510016904F58E
:102FA0006B7000EB4510C0880144491E04F56B703E
:102FB00000EB4510C088B1FBF0F086B2BE420DDDDB
:102FC0003E4604F56B7000EB4510C188714304F573
:102FD0006B7000EB4510016100E0012604F56B7099
:102FE00000EB4510807850B104F56B7000EB451094
:102FF000C188714304F56B7000EB4510016104F565
:103000006B7000EB45100169069861F312000690A1
:10301000069866F3DC40069004F56B7000EB4510F3
:10302000017A069861F35E70069004F1900050F802
:10303000250006990161E078012809D104F56B703B
:1030400000EB4510C16804F1900050F82500416183
:1030500004F1900050F82500006807902046FFF723
:103060005DFE079960F35D710791079820F00040BD
:1030700000F100400790079820F08040079004F18D
:10308000900050F8250007990160E078002864D18D
:1030900004F56B7000EB4510807800285DD104F5D5
:1030A0006B7000EB45100069002856D004F56B707A
:1030B00000EB4510407930B1012821D0022803D01F
:1030C000032839D11BE000BFE068C06A039004F513
:1030D0006B7000EB45100069C01CC0F38F080398AB
:1030E00080B240450ADA009820F02000203000909D
:1030F000E068806900990843E16888611DE000BFCD
:1031000060690069019004F56B7000EB451000697F
:10311000C01CC0F38F08019880B240450BDA0098BC
:1031200020F0806000F180600090E0688069009984
:103130000843E168886100E000BF00BF04F56B70E0
:1031400000EB4510008A83B204F56B7000EB45106C
:103150002A46C1682046FFF7DDFA484608B0BDE8B8
:10316000F08310B586B0024600200023039301933C
:1031700002F1900353F821301B680093009B23F069
:10318000004303F100430093009B23F0804303F1CD
:1031900080430093009BC3F3814323B1009BC3F39F
:1031A0008143022B0BD1D368DB6A0393039BC3F3E8
:1031B00007437BB9009B23F0004300930AE0536967
:1031C0001B690193019BC3F307431BB9009B23F0C9
:1031D0000043009302F1900353F82130009C1C60DF
:1031E00006B010BD1CB50246002000230093009BD2
:1031F00023F0004303F1004300930124009B64F398
:10320000DC43009302F1900353F82130009C1C61D1
:1032100002F1900353F821301B680193019B23F0C6
:10322000004303F100430193019B23F0804301938A
:1032300002F1900353F82130019C1C601CBD38B58D
:103240000446002160698161491E60694161002571
:103250001AE004F1900050F82500006800900098F2
:1032600020F000400090009820F0804000F1804065
:103270000090009820F40040009004F1900050F875
:103280002500009901606D1C2078A842E1D82046F5
:10329000FFF7B7FB10212046FFF78BFB38BD70B559
:1032A00004460E4600250021C4F8101300BF0BE0B1
:1032B000002104F5457040F825103C3040F82510F9
:1032C0003C304155681CC5B20F2DF1DB0821A4F834
:1032D000B21331462046FFF751FA2046FFF758FB5C
:1032E0002046FFF7B1FA01212046FFF7ADFB20464B
:1032F000FFF7A9FC2046FFF73AFB002070BD08B598
:103300000146D1F8CC00006800900098C0F341401D
:1033100008BD10B504462046FFF769FC002010BD2B
:103320000146D1F81003704701464869806880B2B1
:103330007047024602F29B30405C7047024602F53D
:10334000547050F821007047024602F56370405CEB
:10335000704770B504460D4629462046FFF7EAFC43
:1033600070BD70B504460D46002104F29B304155F6
:10337000113000EB4510416129462046FFF7F6FD6C
:1033800070BD00000CB50146D1F8900000680090B7
:10339000009820F0004000F100400090009820F0DC
:1033A000804000F180400090009AD1F890000260C7
:1033B00000200190019820F4001000F50010019009
:1033C0000198CA68506101200CBD38B50446002040
:1033D0000090FE480068816820468847009820F0E9
:1033E000005000F1005000900098E1684861012011
:1033F00038BDFEB50446002600250020009002904E
:103400000190D4F8CC0000680290D4F8CC00006899
:103410000190019820F004000190019820F0020032
:103420000190019820F008000190019820F0200000
:1034300001900298C0F3400058B1019820F00200BA
:10344000801C0190E148006841682046884745F0AB
:1034500001050298C0F3C000002842D0019820F076
:103460000800083001900298C0F38000002838D08E
:10347000D64800684168204688470298C0F341401A
:10348000022804D00298C0F34140012828D1606985
:10349000006800900298C0F34140022811D141F227
:1034A000707160694160009800F00300022818D034
:1034B000207A022803D102212046FFF7B8FB01261B
:1034C0000FE04BF6803160694160009800F0030026
:1034D000012806D001212046FFF7A9FB012600E0C4
:1034E00001260298C0F3401030B1019820F020006E
:1034F0002030019045F0010516B12046FFF777FB1B
:103500000199D4F8CC0001602846FEBD7FB5054680
:103510000C4605F1900050F82460B0680390F06804
:103520000290DDE902100840039005F1900050F888
:103530002400006801900398C0F38000D0B10020FF
:103540000090009820F00400001D00900098B060EA
:1035500005F1900050F82400C0680090009820F019
:103560000200801C009005F1900050F824000099A2
:10357000C160B4E10398C0F3401048B1002000904E
:10358000009820F02000203000900098B060A6E164
:103590000398C0F34020F8B105F1900050F82400E2
:1035A000C0680090009820F00200801C009005F197
:1035B000900050F824000099C160E1B22846FFF75E
:1035C000D0FD00200090009820F4007000F50070FD
:1035D00000900098B06082E1039800F0010038B3D9
:1035E000002105F5457040F8241005F1900050F8D1
:1035F0002400C0680090009820F00200801C009019
:1036000005F1900050F824000099C160E1B228460D
:10361000FFF7A7FD00200090009820F00100401C5B
:1036200000900098B060012105F56370015556E1E6
:103630000398C0F3C00010B300200090009820F061
:103640000800083000900098B06005F1900050F834
:103650002400C0680090009820F00200801C0090B8
:1036600005F1900050F824000099C160E1B22846AD
:10367000FFF777FD052105F5637001552FE10398EC
:10368000C0F3001038B3002105F5457040F8241050
:1036900005F1900050F82400C0680090009820F0D8
:1036A0000200801C009005F1900050F82400009961
:1036B000C160E1B22846FFF754FD00200090009859
:1036C00020F01000103000900098B060032105F544
:1036D0006370015503E10398C0F3C01040B305F1D6
:1036E000900050F82400C0680090009820F002007C
:1036F000801C009005F1900050F824000099C160F2
:10370000E1B22846FFF72DFD05F5457050F824106D
:10371000491C40F824100621783001550020009003
:10372000009820F08000803000900098B060D6E0D3
:103730000398C0F3801038B3002105F5457040F8B8
:10374000241005F1900050F82400C0680090009803
:1037500020F00200801C009005F1900050F8240039
:103760000099C160E1B22846FFF7FBFC0020009001
:10377000009820F04000403000900098B060042194
:1037800005F563700155AAE00398C0F3802078B373
:1037900005F1900050F82400C0680090009820F0D7
:1037A0000200801C009005F1900050F82400009960
:1037B000C160E1B22846FFF7D4FC002000900098D9
:1037C00020F0100010300090009801E07C000020F4
:1037D000B060082105F56370015500200090009845
:1037E00020F4806000F5806000900098B06076E082
:1037F000FFE70398C0F34000002870D005F1900067
:1038000050F82400C0680090009820F0020000905A
:1038100005F1900050F824000099C16005F563702F
:10382000005D012815D1012105F29B300155019859
:10383000C0F38140022848D105F56B7000EB4410BD
:10384000407E80F0010105F56B7000EB441041767D
:103850003BE005F56370005D032804D1022105F209
:103860009B30015531E005F56370005D04280FD1F0
:1038700005F56B7000EB44100079012803D1E1B22B
:103880002846FFF7AFFC022105F29B3001551CE0F2
:1038900005F56370005D052804D1042105F29B3015
:1038A000015512E005F56370005D06280DD105F5A0
:1038B000457050F82400032807D1032105F29B30FE
:1038C00001550021873840F824100020009000980E
:1038D00020F00200801C00900098B06000BF012022
:1038E00004B070BD70B586B005460C4605F1900079
:1038F00050F82460B0680590F0680490DDE9041089
:103900000840059005F1900050F8240000680390ED
:10391000002004900598C0F38000D0B100200190F1
:10392000019820F00400001D01900198B06005F19D
:10393000900050F82400C0680190019820F0020027
:10394000801C019005F1900050F824000199C1609D
:1039500073E00598C0F3401048B100200190019831
:1039600020F02000203001900198B06065E00598BB
:10397000C0F3C00078B305F1900050F82400C0688F
:103980000190019820F00200801C019005F1900048
:1039900050F824000199C160052105F563700155B7
:1039A00000200190019820F0100010300190019843
:1039B000B06000200190019820F0080008300190CC
:1039C0000198B060059820F010000590E1B22846FB
:1039D000FFF7C7FB31E0FFE70598C0F3802060B335
:1039E00005F1900050F82400C0680190019820F083
:1039F0000200801C019005F1900050F8240001990C
:103A0000C160E1B22846FFF7ACFB002001900198AD
:103A100020F01000103001900198B060082105F5E9
:103A20006370015500200190019820F4806000F53A
:103A3000806001900198B06000BF0598C0F34020FD
:103A4000F8B105F1900050F82400C0680190019889
:103A500020F00200801C019005F1900050F8240035
:103A60000199C160E1B22846FFF77BFB002001907D
:103A7000019820F4007000F5007001900198B0608A
:103A800042E1059800F00100002871D0E878012893
:103A900012D105F1900050F824000069029005F55C
:103AA0006B7000EB441000690299C1F31201411AD6
:103AB00005F5547040F82410012105F56370015597
:103AC0000021783840F8241000200190019820F05F
:103AD0000100401C01900198B0600398C0F3814040
:103AE00020B10398C0F3814002282AD105F190004B
:103AF00050F82400C0680190019820F00200801C5A
:103B0000019005F1900050F824000199C160E1B2E4
:103B10002846FFF726FB00200190019820F01000B6
:103B2000103001900198B06005F56B7000EB441007
:103B3000007E80F0010105F56B7000EB441001760A
:103B4000E2E00398C0F38140032899D1039820F064
:103B5000005000F10050039005F1900050F824004F
:103B600003990160012105F29B300155CCE0FFE78C
:103B70000598C0F34000002851D005F1900050F89E
:103B80002400C0680190019820F00200019005F126
:103B9000900050F824000199C16005F56370005D44
:103BA000012804D1012105F29B3001552DE005F5D6
:103BB0006370005D052804D1042105F29B30015596
:103BC00023E005F56370005D062804D005F56370F9
:103BD000005D082808D1002105F5457040F8241043
:103BE00003218730015510E00398C0F3814003287A
:103BF0000BD105F56B7000EB4410007E80F00101E5
:103C000005F56B7000EB44100176002001900198DF
:103C100020F00200801C01900198B06074E00598CB
:103C2000C0F3C01040B305F1900050F82400C06804
:103C30000190019820F00200801C019005F1900095
:103C400050F824000199C16005F5457050F8241022
:103C5000491C40F82410062178300155E1B228466D
:103C6000FFF77FFA00200190019820F0800080305B
:103C700001900198B06047E00598C0F30010E8B3E8
:103C80000398C0F38140032815D105F1900050F846
:103C90002400C0680190019820F00200801C01906F
:103CA00005F1900050F824000199C160E1B2284666
:103CB000FFF757FA18E00398C0F3814020B103984A
:103CC000C0F3814002280FD1039820F0004000F19A
:103CD00000400390039820F08040039005F190008D
:103CE00050F8240003990160032105F56370015524
:103CF00000200190019820F0100000E004E0103056
:103D000001900198B06000BF012006B070BD7CB585
:103D10000546002400262846FFF708F8019000BF5A
:103D20001BE0019880B20121A1400840A0B105F13B
:103D3000900050F82400006800900098C0F3C03054
:103D400028B121462846FFF7CDFD064304E0214671
:103D50002846FFF7DBFB0643641C2878A042E0D826
:103D600030467CBDFEB5044660690069009001984C
:103D7000C0F3C30104F56B7000EB41100069C01C77
:103D8000C0F38F0674E04FF6FF71009801EA8005DA
:103D90000198C0F3C30104F56B7000EB411000699A
:103DA000A84216D20198C0F3C30104F56B7000EB72
:103DB0004110008A85B200200290029820F08060B5
:103DC00000F180600290E068806902998843E168B0
:103DD00088610198C0F3C30104F56B7000EB4110DA
:103DE0000069C01CC0F38F060198C0F3C302C0F382
:103DF000C30304F56B7000EB43102B46C1682046EB
:103E0000FEF788FC0198C0F3C30104F56B7000EB6A
:103E10004110C06841190198C0F3C30204F56B70EA
:103E200000EB4210C1600198C0F3C30104F56B7050
:103E300000EB41100069411B0198C0F3C30204F577
:103E40006B7000EB421001610198C0F3C30104F5EF
:103E50006B7000EB4110406941190198C0F3C30237
:103E600004F56B7000EB42104161606900690090DD
:103E7000009880B2B0420ADD0198C0F3C30104F596
:103E80006B7000EB4110006900287FF47CAF0120CB
:103E9000FEBD7FB50446E068C06A00900198C0F39B
:103EA000C30104F56B7000EB41100069C01CC0F346
:103EB0008F0673E04FF6FF71009801EA80050198C4
:103EC000C0F3C30104F56B7000EB41100069A84218
:103ED00015D20198C0F3C30104F56B7000EB4110DB
:103EE000008A85B200200390039820F02000203043
:103EF0000390E068806903998843E16888610198CC
:103F0000C0F3C30104F56B7000EB41100069C01CE5
:103F1000C0F38F060198C0F3C302C0F3C30304F5D6
:103F20006B7000EB43102B46C1682046FEF7F2FB96
:103F30000198C0F3C30104F56B7000EB4110C06839
:103F400041190198C0F3C30204F56B7000EB4210F5
:103F5000C1600198C0F3C30104F56B7000EB411020
:103F60000069411B0198C0F3C30204F56B7000EBBC
:103F7000421001610198C0F3C30104F56B7000EBBE
:103F80004110406941190198C0F3C30204F56B70F8
:103F900000EB42104161E068C06A0090009880B276
:103FA000B0420ADD0198C0F3C30104F56B7000EB69
:103FB0004110006900287FF47DAF012004B070BD7E
:103FC00030B585B00446002000900390039820F09F
:103FD000100010300390E068806903998843E1681D
:103FE0008861E068006A0490049800F00F00009077
:103FF00004F190009DF8001050F821000068019035
:104000000498C0F34340022806D0032878D005283E
:1040100077D0072873D175E00498C0F30A10002800
:1040200069DD04F56B709DF8001000EB4110C0686D
:10403000002860D00498C0F30A1204F56B709DF854
:10404000003000EB4310C1682046FEF783FB049864
:1040500000F00F0104F56B7000EB4110C06804998B
:10406000C1F30A110144049800F00F0204F56B70CB
:1040700000EB4210C160049800F00F0104F56B7072
:1040800000EB411040690499C1F30A1101440498FE
:1040900000F00F0204F56B7000EB4210416104F573
:1040A0006B709DF8001000EB4110456904F55470E9
:1040B0009DF8001040F8215004F190009DF8001088
:1040C00050F82100006902900298C0F3C94000280E
:1040D00011DD019820F0004000F1004001900198AE
:1040E00020F08040019004F190009DF8002001999B
:1040F00050F82200016006E002E002E0FFE700BFA6
:1041000000BF00BF00BF00BF039820F010001030B8
:104110000390E068806903990843E16888610120A1
:1041200005B030BD38B50446002000903148006825
:10413000016820468847009820F008000830009069
:104140000098E1684861012038BD38B50546002473
:10415000002000902846FEF7B4FC002847D02846EF
:10416000FEF7B9FC0090009808B9002038BD00980F
:10417000C0F3C00018B12846FFF7D4FF04430098ED
:10418000C0F3001018B12846FFF71AFF0443009847
:10419000C0F3401018B12846FFF77BFE0443009897
:1041A000C0F3806018B12846FFF7DCFD0443009897
:1041B000C0F3406018B12846FFF7A9FD04430098FA
:1041C000C0F3006018B12846FFF713F904430098C4
:1041D000C0F3407018B12846FFF7F7F80443009881
:1041E000C0F3405018B12846FFF7CCF804432046EE
:1041F000BCE700007C00002001460122C1F810232A
:104200000020704701460022C1F8102300207047AB
:1042100001460020704770B505460C46002020700E
:104220006070A0700120E070012121774021A17110
:10423000002084F820000121212001552179284601
:1042400000F0B8FB6179284600F0B4FB002070BD97
:104250002DE9F04106460F4614461D46DDF818804C
:10426000304601F0D1FD002001F021FE214630460C
:10427000FFF7D1FFC4F88C50C4F89080394630461F
:10428000FFF70DF8D4F8901008688047304601F029
:10429000FBFDBDE8F0812DE9F04106460C464FF0EC
:1042A000000800250021A174207F0C2876D2DFE8C9
:1042B00000F0FD060F3D466576919AC0D7ED627914
:1042C00004F11401304600F0D0FB02212177EEE02A
:1042D00061793046FFF72DF80546012D1FD1207D6D
:1042E00000F08007608B58B141F28830FD490880AA
:1042F000802F02D1032121770CE00521217709E0ED
:104300003220F8490880802F02D10921217701E06D
:10431000072121773046FFF707F8208205E0032DBB
:1043200003D10B2121770521A174C0E02379A28953
:104330003046A16800F0F1FB04212177B7E0217934
:104340003046FEF7F6FF0546012D01D10921217700
:10435000042D02D1607820700FE0032D02D10B21D3
:1043600021770AE03046FEF7DFFF218A401ADD4957
:104370000988884201D90B21217798E001216279CF
:1043800006F56B7000EB421041766379A2893046E6
:10439000A16800F08BFB0621217788E086E0617937
:1043A0003046FEF7C6FF0546012D02D107212177D1
:1043B0000FE0042D04D1607820700C21217708E0F3
:1043C000022D02D10521217703E0032D01D10B211C
:1043D00021776CE0237900221146304600F09DFBE6
:1043E0000821217763E021793046FEF7A2FF0546D8
:1043F000012D04D1607820700D21217718E0032D64
:1044000002D10B21217713E03046FEF78DFF218A80
:10441000401AB4490988884202D90B21217707E064
:10442000042D05D1607820700421A1744FF0030899
:104430003DE0617906F56B7000EB4110407E80F045
:104440000101627906F56B7000EB421041766379E9
:1044500000221146304600F029FB0A21217726E090
:1044600061793046FEF765FF0546012D04D160787D
:1044700020700D21217708E0022D02D1092121773A
:1044800003E0032D01D10B21217710E0A07B401C1C
:10449000C1B2A173022902DC0121217705E00821C4
:1044A000A174607820704FF0020800E000BF00BFE8
:1044B0004046BDE8F08170B504460D46052D01D09B
:1044C000042D06D1D4F89010486C80470A20207043
:1044D00007E0062D05D10A202070D4F89010086856
:1044E000804770BD70B592B005460C460126A07895
:1044F0000A287AD2DFE800F00528375D667A97B49B
:10450000D1DB08222146284600F094FCD8B994F863
:104510002910A1712846FEF7FCFE0120A070A079A9
:104520000021CDE90010617900231A46284600F0E9
:10453000E8F9A0790021CDE90010217900231A467D
:10454000284600F0DEF9B5E012222146284600F0A8
:1045500071FC38B9D4F89000C16904F12200884791
:104560000220A070A6E001222146284600F09AFD14
:10457000F0B9022001F0A2FC0120A41CA077D4F81D
:104580008E10086A80470320207000200090019060
:10459000A27FA1780346284600F0B3F900200090DE
:1045A0000190A27FA41E61790346284600F0A9F974
:1045B00080E009222146284600F00FFD08B90420BA
:1045C000A07077E0E28E2146284600F006FD58B93B
:1045D000D4F8900004F1500204F13E01436A04F162
:1045E000340098470520A07064E062E094F8300041
:1045F00088B1FF20009094F8302002AB2146284675
:1046000000F032FD70B9D4F89000816A02A88847A2
:104610000620A07006E0D4F89000816A32A0884796
:104620000620A07046E094F8310088B1FF20009089
:1046300094F8312002AB2146284600F015FD70B9F0
:10464000D4F89000C16A02A888470720A07006E04D
:10465000D4F89000C16A24A088470720A07029E000
:1046600094F8320088B1FF20009094F8322002AB19
:104670002146284600F0F8FC70B9D4F89000016B90
:1046800002A888470820A07006E0D4F89000016BCB
:1046900015A088470820A0700CE094F83920214626
:1046A000284600F012FD08B90920A07002E000269B
:1046B00000E000BF00BF304612B070BD3EB50546F9
:1046C0000C46022002902846FEF72AFE30B92078D8
:1046D00020B12078022801D00220207020780B28F9
:1046E0006FD203E0800000204E2F4100DFE800F091
:1046F0000610A0B94D6A7D8A598F90002846FEF7B2
:104700000FFE20B101202070642001F0D7FBA9E04A
:10471000D4F89010886880470021284600F037F9C7
:1047200060718021284600F032F920712846FEF79A
:10473000F0FD48BBD4F89010C86880472846FEF7C3
:10474000DEFDC1B221200155042020702122105D20
:10475000D4F8902091698847A0790021CDE9001014
:104760002120035D94F820202179284600F07CF870
:10477000A0790021CDE900102120035D94F82020CC
:104780006179284600F070F86CE021462846FFF772
:10479000A9FE28B9D4F89010486B804708202070F3
:1047A00060E0D4F89010886B8047012808D1D4F8D5
:1047B0008C00214602682846904708B905202070E1
:1047C00050E04EE0D4F88C0021468268284690479D
:1047D00002909DF8080010B90620207004E09DF8B2
:1047E00008102046FFF767FE3CE0D4F88C00214615
:1047F000C2682846904702909DF808102046FFF7AF
:104800005AFE2FE021462846FFF745FD2AE029E021
:1048100021462846FFF7FFFCD4F8901048688047EF
:10482000D4F88C0004F1200142682846904719E032
:10483000D4F890100869804721462846FFF7EBFC22
:10484000D4F8901048688047D4F88C0004F1200117
:10485000426828469047284600F0BBF800202070A8
:1048600000E000BF00BF3EBD2DE9F04704460D4605
:1048700017461E46DDE9088904F28C5010F8150031
:1048800000F07F0104F56B7000EB4510417004F2FD
:104890008C5010F81500C0F3C01104F56B7000EBDC
:1048A0004510817004F56B7000EB4510077004F53E
:1048B0006B7000EB451080F8058004F56B7000EB21
:1048C0004510A0F8069004F56B7000EB4510C6701B
:1048D000002104F56B7000EB4510017604F56B7058
:1048E00000EB451041762EB9012104F56B7000EB09
:1048F0004510017129462046FEF71CFA0020BDE84C
:10490000F0872DE9F04704460D4617461E46DDE9BF
:10491000089827B104F56B7000EB4510077004F59B
:104920006B7000EB4510C088404508D0B8F1000F0F
:1049300005D004F56B7000EB4510A0F8068004F577
:104940006B7000EB4510C078B04205D026B104F57D
:104950006B7000EB4510C67029462046FEF7EAF959
:104960000020BDE8F0870246002100BF0AE002F205
:104970008C5030F8110000F4004008B90846704728
:10498000481CC1B20829F2DB4FF6FF70F7E770B59B
:1049900005460E462846FFF7E6FF04464FF6FF7031
:1049A000844205D046F4004105F28C5020F81410E2
:1049B000E0B270BD0246082909DA02F28C5030F8E4
:1049C0001100C0F30E0302F28C5020F811300020C9
:1049D00070470246022106E0002302F28C5020F8C4
:1049E0001130481CC1B20829F6DB0020704710B511
:1049F0000346187858700720187099609A8101242E
:104A00001C77002010BD2DE9F04180460C4615466C
:104A10001E460127E078012802D0022820D108E0B4
:104A2000324629462046FFF7E2FF0220E0700127C8
:104A300017E0207F0D2805D10120E07000212177AB
:104A400000270CE0207F0B2803D10120E070022713
:104A500005E0207F0C2802D10120E070032700E050
:104A600000BF00BF3846BDE8F08170B505460E4670
:104A70001446002105F56B7000EB44108170032192
:104A800005F56B7000EB4410017205F56B7000EBDF
:104A90004410C660082105F56B7000EB44100161FD
:104AA00021462846FEF75DFCC0B270BD2DE9F041FD
:104AB00005460F4616461C46002105F56B7000EBB7
:104AC0004410817005F56B7000EB4410C76005F56C
:104AD0006B7000EB441006612EB9012105F56B7077
:104AE00000EB4410417605F56B7000EB4410407EFE
:104AF00030B9002105F56B7000EB4410017205E040
:104B0000022105F56B7000EB441001722146284626
:104B1000FEF727FC0020BDE8F0812DE9F0410546B5
:104B20000E4617461C46012105F56B7000EB44103C
:104B30008170022105F56B7000EB4410017205F5E0
:104B40006B7000EB4410C66005F56B7000EB441011
:104B5000076121462846FEF704FC0020BDE8F081ED
:104B60002DE9F04105460E4617461C46002105F585
:104B70006B7000EB4410817005F56B7000EB441016
:104B8000C66005F56B7000EB4410076105F56B70AE
:104B900000EB4410407E28B905F56B7000EB441023
:104BA000017205E0022105F56B7000EB4410017203
:104BB00021462846FEF7D5FB0020BDE8F0812DE90F
:104BC000F04105460E4617461C46012105F56B705F
:104BD00000EB4410817005F56B7000EB4410C6606B
:104BE00005F56B7000EB4410076105F56B7000EB89
:104BF0004410007E30B9002105F56B7000EB4410C5
:104C0000017205E0022105F56B7000EB44100172A2
:104C100021462846FEF7A5FB0020BDE8F0812DE9DE
:104C2000F04105460E4617461C46012105F56B70FE
:104C300000EB4410817005F56B7000EB4410C6600A
:104C400005F56B7000EB4410076105F56B7000EB28
:104C50004410007E30B9002105F56B7000EB441064
:104C6000017205E0022105F56B7000EB4410017242
:104C700005F56B7000EB4410007E80F0010105F536
:104C80006B7000EB4410017621462846FEF769FB65
:104C90000020BDE8F0812DE9F04105460E4617469B
:104CA0001C46002105F56B7000EB4410817005F582
:104CB0006B7000EB4410C66005F56B7000EB4410A0
:104CC000076105F56B7000EB4410007E28B905F50F
:104CD0006B7000EB4410017205E0022105F56B706A
:104CE00000EB4410017205F56B7000EB4410007E80
:104CF00080F0010105F56B7000EB44100176214650
:104D00002846FEF72EFB0020BDE8F0812DE9F0419A
:104D100005460E4617461C46012105F56B7000EB53
:104D20004410817005F56B7000EB4410C66005F50A
:104D30006B7000EB44100761002105F56B7000EB10
:104D40004410017221462846FEF70BFB0020BDE807
:104D5000F0812DE9F04105460E4617461C4600211C
:104D600005F56B7000EB4410817005F56B7000EB7E
:104D70004410C66005F56B7000EB4410076105F543
:104D80006B7000EB4410017221462846FEF7E9FAE9
:104D90000020BDE8F081000010B50B7803704B785F
:104DA00043708C78CB7804EB032343800B79037139
:104DB0004B7943718B798371CB79C371082A16DDE6
:104DC0000C7A4B7A04EB032303818C7ACB7A04EBC5
:104DD000032343810C7B4B7B04EB032383818B7B7D
:104DE0008373CB7BC3730B7C03744B7C437410BD08
:104DF0002DE9F04780460C4616461D46DDE908972A
:104E000046F08001217506216175E58205F47F4039
:104E1000B0F5407F03D140F20941218301E0002138
:104E2000218367833B464A4621464046FFF7EBFD18
:104E3000BDE8F0872DE9FC4104460D46164604F511
:104E400088704FF4807300222946CDE90006204681
:104E5000FFF7CEFF071E06D1324604F5887105F133
:104E60002200FFF799FF3846BDE8FC810A780270FE
:104E70004A7842708A788270CA78C2700B794A790F
:104E800003EB022282808A79827170470A7802706D
:104E90004A7842708A788270CA78C2700A79027140
:104EA0004A7942718A798271CA79C2710A7A027228
:104EB000704710B502460B88147823440B80137892
:104EC000981810BD2DE9F04F85B0064689469246E8
:104ED0001D462C460027B84600BF287830706878F9
:104EE0007070A978E87801EB002070802879307123
:104EF00068797071A879B071E879F071287A3072A8
:104F00000E98092866DD09200090307902285CDCC3
:104F1000BB4655E069462046FFF7CBFF0446607864
:104F200004284DD1A07847B207EBC70000EB090B6E
:104F3000E078032844DA214602A8FFF7A7FF4FF0E4
:104F400000089DF80C0003283ADC34E0694620464E
:104F5000FFF7AFFF0446607805282CD107EB470028
:104F60000AEBC00000EBC80001907F480078B8420F
:104F700006D07D490F7002A95846FFF787FF0CE065
:104F80002179607901EB002078490988884200DAAC
:104F900015E002A95846FFF779FF21460198FFF76F
:104FA00065FF2179607901EB00207049088008F1E4
:104FB00001004FFA80F89DF80C004045C6DC00BFA8
:104FC0007088BDF800108842A4DC00206749088082
:104FD0006549087005B0BDE8F08F2DE9FC41044635
:104FE0000D461646002704F588704FF40073002222
:104FF0002946CDE900062046FFF7FAFEB0F1000889
:1050000014D106E004F58870C05D5949C855781C74
:1050100087B2B742F6DB04F5887305F1500205F15B
:105020003E0105F134000096FFF74CFF4046BDE815
:10503000FC8130B513464578032D14D10578AD1E9B
:105040009D4202DC0578AD1E00E01D46ACB2801C1E
:10505000002204E0855C0D70491C951CAAB2A24296
:10506000F8DB00250D7030BD2DE9FC47044688466D
:1050700015461E460A9F04F5887045F440730022C9
:105080004146CDE900072046FFF7B2FEB0F1000926
:1050900005D13A46314604F58870FFF7CAFF484605
:1050A000BDE8FC8770B506460C4615460021217503
:1050B00005216175E58200212183618300231A4661
:1050C00021463046FFF79FFC70BD70B506460C4682
:1050D00015460021217509216175E5820021218392
:1050E000618300231A4621463046FFF78CFC70BDD1
:1050F0002DE9F04107460C4615461E460121217553
:105100000B216175E68225830021618300231A4605
:1051100021463846FFF777FCBDE8F0812DE9F041E4
:1051200005460C4616461F46022121750121617570
:105130000021E1822683618306F08000802805D16A
:1051400005F56B7000EB4710017605E0002105F5D1
:105150006B7000EB4710417600231A462146284623
:10516000FFF751FCBDE8F0818400002082000020A0
:10517000F432002010B504462046FEF7D1F848B1BD
:10518000F848F9490860F948486000204873012050
:10519000F749C8700020F7490860F749087010BD4A
:1051A0002DE9F04105460E461446012714B1012CA5
:1051B00012D108E0F1480378C27831462846FFF75B
:1051C000ADFF074609E0ED4843788278314628462E
:1051D000FFF7A4FF074600E000BF00BFE5480068F6
:1051E000401CE449086008460068042800D90427E8
:1051F0003846BDE8F0812DE9F04105460F4600260E
:1052000001242846FEF78CF820B3DC4801782846B4
:10521000FEF794F806460D2E01D002241CE0D84873
:105220000068D849884216D1D5484068CE494968B7
:10523000884211D1D248007B08B900240CE0D04844
:10524000007B012801D1012406E0CD48007B022823
:1052500002D1022400E00224C548C4732046BDE800
:10526000F0812DE9F0478046894600244046FEF74C
:1052700057F800287ED0BE48007909287BD2DFE8A5
:1052800000F07A051251A3FEFDFCFB00BB484378F9
:105290001F22B5494046FFF763FC0120B44948711D
:1052A000022008718BE1B54841784046FEF741F88D
:1052B0000446012C26D10020AE4908600220AC49EA
:1052C0004871A948007B00F08007A7488068A8B112
:1052D000A5488068AC490860A5488068AB4908606B
:1052E00008460068AA490860802F03D10320A0491E
:1052F000087116E004209E49087112E005209C49BF
:1053000008710EE0022C04D199484079984908713F
:1053100007E0042C05D101209E490870082094491B
:1053200008714CE1954801784046FEF702F80446C2
:10533000012C03D08E48407903283AD000208D49B3
:10534000086003208A4948718C4880888E49096822
:10535000884219D28948037882888C48016840467F
:10536000FFF72DFC8548808887490968081A864917
:10537000086001E024E121E18048808883490968D0
:105380000844824908601EE07F48006818B905207B
:105390007749087117E0794803787B48008882B222
:1053A0007A4801684046FFF70AFC00207649086009
:1053B00009E0042C07D100207649087007206C49C9
:1053C000087105204871FAE06C4841784046FDF7C5
:1053D000B0FF0446012C3BD1002066490860042040
:1053E000634948716548C0886749096888421AD28C
:1053F00062484378C288654801684046FFF7B0FBC1
:1054000062480068624908605C48C0885F49096872
:1054100008445E4908605948C0885B490968081A11
:105420005949086042E05848006818B905205049B9
:1054300008713BE0514843785348008882B2534892
:1054400001684046FFF78CFB00204F4908602DE0C3
:10545000022C21D14D4800684D490968884212D07C
:1054600046484378C288C088DFF820C1DCF800C015
:10547000ACEB0001404603E08EE058E036E016E079
:10548000FFF76EFB12E03D484378C2883F48016851
:105490004046FFF765FB09E0042C07D101203D4998
:1054A00008700820324908710520487187E00520FE
:1054B0002F494871324888603F2088810D2604E0DA
:1054C00000202F498855701EC6B2002EF8D100204A
:1054D0002B4908702948037825483F2281684046B7
:1054E000FFF76DFB06202249087168E02348017828
:1054F0004046FDF71EFF0446012C0FD100201D4938
:10550000086005201A4948710846807808704946A5
:105510004046FFF770FE1649C87307E0042C05D11A
:1055200000201C49087007201149087147E000223B
:1055300049464046FFF734FE054665B915480078F0
:10554000022803D108200A49087109E00848407977
:105550000749087104E0042D02D102200449C873F0
:105560002DE0000055534243F434002050403020D9
:105570002435002088000020A400002034350020BD
:1055800014350020555342538C0000209000002019
:105590009400002098000020012249464046FFF771
:1055A000FFFD054625B9074840790649087104E022
:1055B000042D02D102200349C87300E000BF00BFE0
:1055C000BDE8F087243500207CB506460D462C4604
:1055D00094F84300082856D194F84500502852D139
:1055E00094F8520000F0800038B194F85200C54998
:1055F000C870B4F85400888006E094F85200C1499D
:105600008870B4F85400C88094F85A0000F0800004
:1056100038B194F85A00BB49C870B4F85C0088806F
:1056200006E094F85A00B7498870B4F85C00C88066
:10563000B44881783046FFF7AAF9B2494870084665
:10564000C1783046FFF7A3F9AE4908700846C08814
:105650000221CDE900102120035D94F82020A94803
:1056600041783046FFF700F9A64880880221CDE94D
:1056700000102120035D94F82020A24801783046D4
:10568000FFF7F2F803E0D4F89010086C8047002090
:105690007CBD70B504460D469A48407860B1994883
:1056A00041782046FDF75DFD964841782046FFF79A
:1056B00081F90020934948709248007860B1914880
:1056C00001782046FDF74DFD8E4801782046FFF712
:1056D00071F900208B49087070BD10B5024600209A
:1056E0000023894C237010BD012812D18749097805
:1056F000491C864A1170114609780A2905DA0621E3
:10570000814A11700121D1700AE00A217E4A11708C
:1057100006E0022803D10A217B4A117000E000BF95
:10572000704770B505460C46A1212175FE216175B3
:105730000021E1822183012161830123714A083222
:1057400021462846FFF75FF970BD70B505460C4647
:1057500021212175FF2161750021E182218361836F
:1057600000231A4621462846FFF74DF970BD2DE962
:10577000F04781460F463E46012403254FF00008BE
:105780004846FDF7CDFD002878D05F4800780B280B
:1057900075D2DFE800F0060D1E5566798A999E44A1
:1057A000B0004846FFF7E6FC012057490870A5E025
:1057B00039464846FFF7C9FF044614B9022052494A
:1057C0000870032C04D102204F494870092008704A
:1057D00094E039464846FFF7A4FF0446BCB949485F
:1057E000007A484981F84800084690F848000028A7
:1057F0000ADD4748007838B9012045490870D6F8D5
:105800009010086C804779E003203F490870032C12
:1058100004D103203C494870092008706EE0737978
:10582000002239464846FFF779FC04463CB900207F
:10583000344981F8480034484078334908705DE0C5
:10584000484600F067F805463DB904202E49087027
:1058500000202E490870002402E02846FFF744FF8C
:105860004CE0484600F0A7F805464DB9052026490A
:105870000870002025490870002404E03FE03CE067
:105880002846FFF731FF39E0484600F0F9F80546B1
:105890003DB908201C49087000201C4908700024EC
:1058A00002E02846FFF720FF28E0484600F048F9CC
:1058B00005462DB91448407813490870002402E0C9
:1058C0002846FFF711FF19E039464846FFF7C9FCA3
:1058D00014E0D6F89010C86B804700F0FF08B8F1CC
:1058E000000F03D108200849087003E0B8F1010F48
:1058F00000D1062402E0042400E000BF00BF2046DF
:10590000BDE8F0873435002024350020A4000020B5
:10591000B800002070B5054603262846FDF700FDB7
:10592000002846D0FB48C078012802D002283ED18A
:1059300024E00020F8498860087306208873F7483F
:10594000F44988603F20888103208870102405E096
:105950000021F1480F300155601EC4B2002CF7D170
:105960000020ED49C8730120EA490871072008703A
:105970000320C8730220C870032619E0E548C07BE5
:1059800020B90120E349C87000260FE0E148C07B40
:10599000012803D1DF49C870012607E0DD48C07B3C
:1059A000022803D10120DB49C870022600E000BFB5
:1059B00000BF304670BD70B5054603262846FDF78A
:1059C000AFFC00285AD0D348C078012802D0022862
:1059D00052D123E00820D0498860802008730A2033
:1059E0008873CF48CB49886004208870102405E074
:1059F0000021C9480F300155601EC4B2002CF7D1F8
:105A00002520C549C8730120C249087107200870C4
:105A10000320C8730220C87003262EE0BD48C07B57
:105A2000C8B9BF480078BF49C870BD484078887081
:105A3000BB4880784870BA48C0780870B848817907
:105A4000B8484172B648C079B64908720120B149D8
:105A5000C87000260FE0AF48C07B012803D1AD49D4
:105A6000C870012607E0AB48C07B022803D10120A3
:105A7000A849C870022600E000BF00BF304670BDD4
:105A800070B5054603262846FDF74AFC002855D088
:105A9000A048C078012802D002284DD127E03F203D
:105AA0009D498860802008730A2088739C48994922
:105AB000886005208870102405E0002196480F308A
:105AC0000155601EC4B2002CF7D11A209249C87348
:105AD0003F2191484174C17401208E49087107200B
