:020000040800F2
:10000000C8A200201D030008313100087D29000826
:100010002D310008891C0008ED4F00080000000089
:100020000000000000000000000000005134000843
:100030003525000800000000353200086935000849
:1000400037030008370300083703000837030008A8
:100050003703000837030008370300083703000898
:100060003703000837030008370300083703000888
:100070003703000837030008370300083703000878
:100080003703000837030008370300083703000868
:100090008D1D0008370300083703000837030008E8
:1000A0003703000837030008370300083703000848
:1000B00029360008370300083D36000837030008DA
:1000C0003703000837030008370300083703000828
:1000D00037030008370300083D3B0008A13B000838
:1000E0003703000837030008370300083703000808
:1000F00037030008370300083703000837030008F8
:100100003703000837030008CD360008370300081E
:100110007D380008053A0008370300083703000857
:1001200037030008370300083703000837030008C7
:1001300037030008370300083703000837030008B7
:10014000251E000837030008370300080D32000899
:100150003703000837030008370300083703000897
:100160003703000837030008370300083703000887
:100170003703000837030008370300083703000877
:10018000370300083703000800F002F800F0B6F863
:100190000AA090E8000C82448344AAF10107DA45E2
:1001A00001D100F0ABF8AFF2090EBAE80F0013F07E
:1001B000010F18BFFB1A43F001031847DC6500006C
:1001C000FC65000010F8013B0A4413F0030408BF6B
:1001D00010F8014B1D1108BF10F8015B641E05D01B
:1001E00010F8016B641E01F8016BF9D1002D15D0D8
:1001F00010F8014B03F00C030C2BA1EB04040ABF15
:1002000010F8013BA4EB8314A4EB032405F10103D4
:1002100014F8016B5B1E01F8016BF9D5914238BFF0
:1002200010F8013BD1D3704700230024002500269D
:10023000103A28BF78C1FBD8520728BF30C148BF49
:100240000B6070476E2900F00A83702900F0638408
:10025000662906F00F82652906F00C82672906F0F0
:100260000982612906F0088203681B0A28BF41F051
:100270008001692900F0EC80642900F0E98075298B
:1002800000F0E6806F2900F0F083782900F02F84D9
:10029000E92900F08B83E42900F08883F52900F038
:1002A0008583EF2900F0ED83F82900F02E840368A0
:1002B000DB0928BF41F08001632900F00C8373291A
:1002C00000F01183E32901F00B80F32901F0108085
:1002D000002070471FB506F0C3F901F05FF8040075
:1002E0000020002106F064F8401C6060002000211E
:1002F00006F048F8E0601FBD10B510BD01F020F811
:100300001146FFF7E7FF05F08FF801F0F9F803B4A5
:10031000FFF7F2FF03BC04F0EEFE0000094880473F
:1003200009480047FEE7FEE7FEE7FEE7FEE7FEE7D7
:10033000FEE7FEE7FEE7FEE704480549054A064BEF
:1003400070470000C135000889010008C89C0020E2
:10035000C8A20020C89E0020C89E00207047000050
:100360001CB50C46064B7B4469460090204600F0C5
:1003700090FA04460020694600F09EFA20461CBD13
:100380004F0500000FB41CB5084B06AA7B44694614
:100390000090059800F07DFA04460020694600F0C0
:1003A0008BFA20461CBC5DF814FB000029050000F8
:1003B00070B5044685690068C10601D5302600E0A5
:1003C0002026C00707D070BDD4E9012130469047F0
:1003D000206A401C20626D1EF6D570BD70B50446C3
:1003E00085690078C00707D170BDD4E901212020BC
:1003F0009047206A401C20626D1EF6D570BD70B516
:100400000C460546012A05D02878800600D5EA6901
:10041000002302E0012305E05B1C934202D2E05C72
:100420000028F9D1A869E618C01AA861286A1844FA
:1004300028622846FFF7BCFF04E0D5E9012114F843
:10044000010B9047B442F8D32846FFF7C7FF70BDB1
:100450002DE9F0410646002410687529314616A59D
:1004600010D000F091F9002802DA404213A507E00D
:1004700031688A0701D512A502E0490704D511A504
:10048000012401E000F089F900210A2206F1240785
:1004900009E0B0FBF2FCB0FBF2F302FB1C003030D1
:1004A00078541846491C0028F3D123462A46304682
:1004B000BDE8F04100F07AB9000000002D00000016
:1004C0002B000000200000002DE9F05F8946044663
:1004D0004FF0000ADFF874B1FB44C0F820A02046BA
:1004E000E1688847002874D0252806D0D4E9012186
:1004F0009047206A401C2062F1E700265F462046B4
:10050000E16888472028054607DB312D05D2781998
:1005100010F8200C08B10643F1E7B00701D526F02A
:100520000406C4F81CA00027C4F818A02A2D09D07E
:10053000284604F0D9FD38B304EB8708303DC8F8ED
:10054000185019E059F8041B204604EB870291610A
:10055000E1688847012F054618D1E069002820DAB4
:1005600026F020061DE0D8F8180000EB800005EB0F
:1005700040003038C8F818002046E1688847054632
:1005800004F0B2FD0028EED1012F0AD02E2D08D1A3
:100590002046E16888477F1C0546022F46F020066A
:1005A000C4DBA069002803DA404246F00106A061DE
:1005B000F00701D026F010066C2D0BD0682D09D065
:1005C0004C2D39D06A2D35D0742D35D07A2D33D0BD
:1005D00016E038E0E1682F4620468847B8420546D5
:1005E00009D16C2F26D04FF48060E1680643204685
:1005F0008847054604E06C2F1AD04FF480700643FC
:100600000DB3A5F14100192802D8203546F4006643
:100610004A462946204626604E46FFF713FE80B123
:1006200001280BD0F61D26F0070000F1080956E757
:100630004020E4E78020D8E70020D6E706F104094F
:100640004DE7284652E7206ABDE8F09FA061000010
:1006500030B505460B462A4613F8014B12F8010B3C
:1006600008B1A042F8D01CB1002802D06D1CF1E7FF
:10067000284630BD10B5431C02E010F8011B71B1D3
:100680008107FAD14FF0013202C88C1A8C4314EA68
:10069000C211F9D0C01A0A0603D0C01E10BDC01A7C
:1006A00010BD0A0401D0801E10BD0902FCD0401EFE
:1006B00010BD4FF0000200B513469446964620390F
:1006C00022BFA0E80C50A0E80C50B1F12001BFF40B
:1006D000F7AF090728BFA0E80C5048BF0CC05DF871
:1006E00004EB890028BF40F8042B08BF704748BFBF
:1006F00020F8022B11F0804F18BF00F8012B704733
:100700004FF0013C50F8042B51F8043B9A4221D1A0
:10071000A2EB0C03934313EACC1317D150F8042B2C
:1007200051F8043B9A4215D1A2EB0C03934313EA10
:10073000CC130BD150F8042B51F8043B9A4209D149
:10074000A2EB0C03934313EACC13DBD04FF0000071
:10075000704700BFD01A01BAB1FA81F101F0180157
:1007600022FA01F0CB40C1F12001DBB2C0B2C01AC5
:100770002CFA01F3D11A914311EAC311E6D1704763
:10078000704770477047704709684A0501D540B205
:100790007047C905FCD500B2704709684A0501D504
:1007A000C0B27047C905FCD580B270472DE9F0474B
:1007B0000D4699469246044600F1240801688806D1
:1007C00004D5E06921F01001216000E00120A84279
:1007D00001DD471B00E00027A1697A1902EB09003F
:1007E000081AA0612078C00602D42046FFF7E0FD79
:1007F000002608E0D4E901211AF806009047206A93
:10080000401C761C20624E45F4DB2078C0060AD5D9
:100810002046FFF7CDFD06E0D4E9012130209047C6
:10082000206A401C2062381EA7F10107F4DC07E0B3
:10083000D4E9012118F805009047206A401C206285
:10084000281EA5F10105F3DC2046FFF7C7FD20783F
:10085000000602D50220BDE8F0870120FBE7116801
:100860000268006A530501D508700AE0D30501D576
:10087000088006E0130603D5C217C1E9000200E0B4
:10088000086001207047000001694A1C0261087875
:10089000704700B58FB0CDE90131002105910549C0
:1008A0007944CDE9031011466846FFF70DFE0FB0FD
:1008B00000BD0000E5FFFFFF0A6802F8010B0A60B7
:1008C000704710B5436913B1AFF3008001E0FFF743
:1008D00096FD012010BD127800F124010A7000225B
:1008E0004A700122EDE711684FF0FF32E9E700009E
:1008F0002DE9FF5F15468A460446DFF8AC80F844D0
:100900000027D8E900103E46CDE9001010E03AF883
:1009100016106A4602A800F0EFFC411C07D02178AF
:10092000890603D5E269391891420DD80744761C2F
:100930002078800602D5E069B84205DDAE42E6DBEC
:100940003AF816000028E2D1A069C01BA061204639
:10095000FFF72EFDD8E90010CDE90010002017E0C8
:100960003AF818106A4602A800F0C6FCB0F1FF3F42
:1009700081460BD000250DF1080B05E0D4E90121DB
:100980001BF8050090476D1C4D45F7D308F1010099
:10099000B0428046E4DB206A384420622046FFF7FC
:1009A0001DFDBDE8FF9F00008E5D00002DE9F041B8
:1009B0008046D21D22F007020025D2E90002F52967
:1009C00015A614D0011E72F1000106DA0023D0EB47
:1009D000030063EB020211A608E0D8F800108B07B1
:1009E00001D50FA602E0490701D50EA60125114643
:1009F000002408F1240704E000F098F830323A555A
:100A0000641C50EA0102F7D12B463246214640468B
:100A1000BDE8F041FFF7CABE000000002D00000055
:100A20002B0000002000000030B4002100F124045D
:100A300008E002F00705D208303542EA4372DB08CD
:100A40006554491C52EA0305F3D10468002310A23F
:100A5000250707D5A40600D421B1C46901230DA23E
:100A6000641EC46130BCFFF7A1BE10B50446214628
:100A70001068FFF792FE02462046BDE810400023B2
:100A8000D2E7D21D22F00701D1E90023CCE7000014
:100A90000000000030000000F0B40D460188090598
:100AA00002D5214C7C4402E01F4C7C440E340021D2
:100AB00000F1240608E002F00F071209E75D42EAA0
:100AC00003721B097754491C52EA0307F3D10278D9
:100AD0000023120704D5702D06D009B1022311346A
:100AE0002246F0BCFFF762BE01231034F8E770B570
:100AF00004460D4621461068FFF74FFE0246294680
:100B00002046BDE870400023C6E7D21D22F007034F
:100B1000D3E90023C0E70368126843F020030360B1
:100B20000823C3610023B7E7F05B000030B5B0F1E4
:100B30000A024FEA900E71F100034EEA817EB0EB9B
:100B40000E0061EB91014FEA101E4EEA017E10EBA0
:100B50000E0041EB11114FEA102E4EEA016E10EB20
:100B60000E0041EB11214FEA104E4EEA014E10EB00
:100B70000E0041EB1141401841F100014FEAD00055
:100B800040EA41704FEAD10110EB80054FEA810441
:100B900044EA907444EB01046D1944EB0404521BC5
:100BA000A3414FF0000348BF0A3200D530BD401CBE
:100BB00041F1000130BD70472DE9FF4F0C461E4644
:100BC0004FF0FF378BB0D2E90001DDF860800A906A
:100BD0008A46C1F30A5505B93D46002108464FF043
:100BE0000000BAF1000F00F4400005DA00EB8000CD
:100BF0004FF4400101EA50004FEA9059B9F1010F5A
:100C000000DDB9460A9850EA4A000ED044F610506A
:100C1000A5F2FF3545432F14B8F1000F1ED07542E1
:100C2000291E1EDDC9F100021CE0B8F1010F4FF0D2
:100C3000000001D0302103E0F24305E02154401CC4
:100C4000B042FBDB30460022002121540B99C1F851
:100C50000880C1E900200FB0BDE8F08FBD1B6D1CFE
:100C6000DEE74A4600DA694206A800F0DBFB06AB85
:100C700093E8070003AB83E8070050460A9900F0A9
:100C800048FC8DE80700A0F500501F38009003983D
:100C9000002D09DD42F21F014A46084403A90390D2
:100CA000684600F0A7FE08E0A0F500504A461F384D
:100CB00003A90390684600F0B1FE8DE80700000428
:100CC000000C03D04FF0FF30410800E01046B8F1AF
:100CD000000F03D00022009215461EE0751E05D4B9
:100CE000FFF724FF303262556D1EF9D5B34601225D
:100CF000084302D000227F1C04E02078302801D174
:100D000000227F1E002A099786D01DE0112D07DAE8
:100D1000FFF70CFF303262556D1C50EA0102F5D12D
:100D2000084302D00098C8B10EE00021681E05E01B
:100D3000235C625C63542254401E491C8142F7DBF1
:100D4000AB46A81B401E0990002004F80B000B982E
:100D5000099AC0F80880C0E9002B7CE711264FF003
:100D6000000859E72DE9F04F88460446D21D22F0CD
:100D7000070191B0D1E90001CDE90A0104F09CF925
:100D800002460B98C00F01D02D2007E02068810794
:100D900001D52B2002E0202101EAC000032A09909E
:100DA00001D0072A05DB03464146204600F0FAFA47
:100DB0000BE12078800601D5E06900E00620B8F15B
:100DC000650F814606D0B8F1660F18D0B8F1670FED
:100DD00070D131E00020B9F1110F009001DB112337
:100DE00001E009F101030AAA01A90CA8FFF7E4FE3A
:100DF000DDE90C70002609F10105834647E001207A
:100E00004B4600904FF000470AAA01A90CA8FFF733
:100E1000D3FEDDE90DB00C995D46002610B909F14D
:100E200001000D18B9EB050003D4C0F1FF3609F13C
:100E30000105A5EB09002BE0B9F1010F01DA4FF034
:100E400001090020B9F1110F0090484601DD11237E
:100E500000E003460AAA01A90CA8FFF7ADFEDDE9F0
:100E60000C704D4600268346207800070AD4AB4517
:100E700000DA5D4601A8012D04DD411911F8011CBD
:100E8000302907D04F4502DA17F1040F04DA0120A8
:100E900082460FE06D1EEEE7002F02DCED1B3E44A4
:100EA00003E0781CA84200DD7D1CB81B00F1010A9C
:100EB0004FF000472078000703D4AA4501DB4FF02C
:100EC000FF3A0021B7F1004F0DF143088DF84310B0
:100ED00024D002202B23002F01DA7F422D230A2168
:100EE000021EA0F1010000DC5FB197FBF1FC97FB53
:100EF000F1F201FB1C7C17460CF1300C08F801CD17
:100F0000EEE7A8F1010003702188090501D545210C
:100F100000E06521A0F1010800F8011C09980FA963
:100F2000A1EB0807FF1D00B10120411901EBEA7098
:100F3000A1693844081A401EA0612078C00602D476
:100F40002046FFF735FA099828B1D4E901219047E6
:100F5000206A401C20622078C00622D52046FFF778
:100F600027FA1EE0002E04DBB34502DD01A8805DF8
:100F700000E03020D4E901219047206A401C206223
:100F8000761CAAF101005FEA000A0AD100F006FA15
:100F9000C0680168405CD4E901219047206A401C88
:100FA0002062281EA5F10105DCDC07E0D4E901215F
:100FB00018F8010B9047206A401C2062381EA7F1E8
:100FC0000107F3DC2046FFF709FA032011B043E6DE
:100FD0002DE9F04F04460D46D21D22F0070089B0DE
:100FE000D0E900974846394604F066F80246F80F03
:100FF00001D02D2307E02068810701D52B2302E0D3
:10100000202101EAC0038DF820300BB1012000E05F
:101010000020032A824601D0072A04DB2946204605
:1010200000F0C0F93FE12078800601D40D2500E0F2
:10103000E569C7F30A560D2D49DA00214FEA175B1F
:1010400008464FF00000002F00F4400007DA00EBE4
:1010500080004FF4400100EBD07001EA6000811580
:10106000012901DD4FF0FF3100224FEA850CBCF170
:10107000180F06D31346ACF118004FF08052C2404F
:1010800003E04FF4801323FA0CF30CF10C0CBCF1C9
:10109000200F04D3ACF1200C09FA0CF001E007FAA0
:1010A0000CF000294FF0004801DD18B90FE00ED117
:1010B00040450CD319EB02095F4121B9404502D1EB
:1010C0009F4329EA0209BBEB175F00D0761C2088FA
:1010D000000502D57B48784402E07A487844193804
:1010E00008AA302302F80A30037C0AF10101002E1D
:1010F0000AF1020A53546A4602DC4FF0300101E063
:101100004FF031014FF001088DF8001002D0A6F227
:10111000FF3603E059EA470100D06B4E002D02DC98
:101120002178090704D54FF002082E218DF801100F
:10113000C44600210BE0C7F303433F01C35C491CD5
:101140006D1E02F80830052908F1010801DA002DAA
:10115000F1DC00210CE000EB1973491C1B786D1EBB
:10116000082902F808304FEA091908F1010801DAE4
:10117000002DF0DC21688B0602D516E0A8F10108ED
:10118000E04505DD02EB080313F8013C302BF5D0F8
:10119000B8F1000F09DD02EB080313F8013C2E2B18
:1011A00003D1090701D4A8F10108002D05DD3E2176
:1011B00002F808106D1E08F10108407C002E02F8AC
:1011C000080008F1010804DA2D20764202F8080030
:1011D00002E02B2002F808000A214FF47A708642C0
:1011E00008F101080BDB96FBF0F3303302F808300E
:1011F00096FBF0F308F1010800FB136601E0642E92
:101200000CDB642096FBF0F3303302F8083096FBD9
:10121000F0F308F1010800FB136601E00A2E06DB7B
:1012200096FBF1F0303002F8080008F1010896FB57
:10123000F1F001FB1060303002F80800A16908F1FC
:10124000010808EB050202EB0A00081AA0612078E9
:10125000C00602D42046FFF7ABF8216A08AE01EBC6
:101260000A00206204E0D4E9012116F8010B90473E
:10127000BAF1010AF7D22078C00602D52046FFF75E
:1012800097F86E4609E016F8010B3E280FD0D4E916
:1012900001219047206A401C2062B8F10108F2D277
:1012A0002046FFF79BF809B00320BDE8F08F206AC5
:1012B0002844206203E0D4E90121302090476D1ECC
:1012C000EBD3F8E7F955000002FCFFFF10B54369C6
:1012D00013B1AFF3008001E0FFF70AFB012010BD5E
:1012E000128800F1240182840022C2840122EDE7E9
:1012F00011684FF0FF32E9E770B516460C46054617
:1013000000F044F8036893F80101012806D0FF2C8F
:101310000FD8185D68B101202C7070BDD3F807019B
:101320003246214603F2071303442846BDE87040C5
:1013300018474FF0FF3070BD00487047649C002094
:101340007546FFF7F9FFAE4605006946534620F0A3
:101350000700854618B020B5FEF7EEFFBDE8204037
:101360004FF000064FF000074FF000084FF0000B61
:1013700021F00701AC46ACE8C009ACE8C009ACE814
:10138000C009ACE8C0098D467047000010B500F0F8
:1013900005F8001D10BD00BF19500000004870473F
:1013A000849C00202DE9F0411F4604460326016875
:1013B000072A01F4006004DB08B116A505E016A5B4
:1013C00003E008B115A500E015A521F0100020608C
:1013D000A069C01EA0610FB1401EA0612046FEF7AB
:1013E000E7FF4FB1D4E9012138469047206A401CFD
:1013F0002062C01C206206E0206AFAE7D4E90121DD
:1014000015F8010B9047761EF8D22046FEF7E6FF4E
:10141000BDE8F0814E414E006E616E00494E4600BF
:10142000696E66002DE9F047814616468AB033485A
:1014300078440DC88DE80D0030487844801C03AC1A
:101440000DC884E80D0041F69B300844372190FB1D
:10145000F1F290FBF1F5A5F1800501FB12041B3CB4
:1014600002D56442012000E00020DFF890A0804611
:101470000027FA44AAF1BE0A0DE0E00709D032467F
:10148000684607EB47010AEB810100F0C7FA8DE8D7
:10149000070064107F1C002CEFD1184F7F44AC3F35
:1014A00018E0E80714D007EB04100DF1180A90E8D3
:1014B0000E008AE80E00C068F04201D19819089029
:1014C000324606A903A800F0A9FA03AB83E8070097
:1014D0006D10641C002DE4D132466946B8F1000F4E
:1014E00003A802D000F086FA01E000F097FAC9E9FB
:1014F0000001C9F808200AB0BDE8F08730530000A9
:1015000010B50446AFF300802046BDE81040FEF75A
:10151000FEBE5FEA400C08BF91F0000F4FEA8C233B
:101520004FEAC12243EA51514FEA1C5018BF00F55F
:10153000F0404FEA300018BF41F000415FEA6C5CB8
:1015400000F02980BCF1FF3F08BF40F080407047A9
:10155000130C06BF12044FF0100C4FF0000C130ECA
:1015600004BF12020CF1080C130F04BF12010CF19E
:10157000040C930F04BF92000CF1020CD30F04BFB4
:1015800052000CF1010C11464FF00002A0F11F00B7
:10159000A0EB0C00704711F0004F08BF704731F00E
:1015A00000413FF4D5AF0B0C06BF09044FF0100CFF
:1015B0004FF0000C0B0E04BF09020CF1080C0B0FCE
:1015C00004BF09010CF1040C8B0F04BF89000CF15E
:1015D000020CCB0F04BF49000CF1010CCCF120032D
:1015E000A0EB0C0022FA03F302FA0CF241EA030129
:1015F00000F10100704720F07F4C80EA030023F0E7
:101600007F47ACEB070303F57C5300F0004003F188
:10161000FF032DE980494FEA154B09B44FEA144303
:1016200025EA0B4E24EA03480FF2042606EB1327A3
:1016300049083E785FEA320203FB0667C7F50007F8
:1016400007FB06F64FEA54374FEAD64606F1020684
:1016500007FB066CCCF1005C4FEA1C472CEA074CF8
:1016600007FB06F40CFB06F504EB15464FEA96164D
:1016700034BF00204FF000404FEAD13706FB07FC93
:101680004FEA1C4C0CFB0BF7D21B03FB0CF761EB76
:1016900007010CFB0EF7B0EB074072EB17420CFB97
:1016A00008F734BFA2EB0742B2EB074261EB1741E8
:1016B0004FEA0C444FEA910706FB07FC4FEA1C4C2B
:1016C0000CFB0BF7B0EBC74072EB573203FB0CF788
:1016D00034BFA2EBC742B2EBC74261EB57310CFB00
:1016E0000EF7B0EBC70072EB57720CFB08F734BF74
:1016F000A2EBC702B2EBC70261EB5771039F4FEA3F
:10170000816141EA921104EBCC044FEAD1374FEAF0
:10171000826206FB07FC42EA90124FEA80604FEAC1
:101720001C4C0CFB0BF7D21B03FB0CF761EB070106
:101730000CFB0EF7B0EB074072EB17420CFB08F7FF
:1017400034BFA2EB0742B2EB074261EB17414FEA0D
:101750008C554FEA910704EB9C2406FB07FC4FEAEB
:101760001C4C0CFB0BF7B0EBC74072EB573203FB82
:101770000CF734BFA2EBC742B2EBC74261EB573163
:101780000CFB0EF7B0EBC70072EB57720CFB08F7BF
:1017900034BFA2EBC702B2EBC70261EB577115EB86
:1017A0004C254FEA816141EA92114FEA82624FEA89
:1017B000D13742EA901206FB07FC44F100044FEADD
:1017C00080604FEA1C4C0CFB0BF7D21B03FB0CF7A1
:1017D00061EB07010CFB0EF7B0EB074072EB174211
:1017E0000CFB08F734BFA2EB0742B2EB074261EBF8
:1017F000174115EB1C154FEA813141EA92414FEA3E
:10180000823242EA90424FEA80304FEA0C7644F14D
:10181000000448EA03434EEA0B484FF0000EB2EBD7
:10182000080C71EB030724BF624639464EEB0E0EDF
:101830004FF0000B0018524149414BEB0B0BB2EB40
:10184000080C71EB03077BF1000B24BF624639469D
:101850004EEB0E0E4FF0000B0018524149414BEB7E
:101860000B0BB2EB080C71EB03077BF1000B24BFF1
:10187000624639464EEB0E0E51EA020718BF46F09B
:10188000010616EB0E7655F1000254F1000103D566
:10189000BDE88901BDE80088BDE88901BDE80048D0
:1018A000B619524141EB0101A3F101037047808059
:1018B0007F7E7D7C7B7A79787776767574737271AA
:1018C00071706F6E6E6D6C6C6B6A6A696868676662
:1018D00066656464636362616160605F5F5E5E5DF4
:1018E0005D5C5C5B5B5A5A59595858575756565568
:1018F00055555454535352525251515050504F4FCA
:101900004F4E4E4D4D4D4C4C4C4B4B4B4A4A4A4919
:10191000494948484847474747464646454545445C
:101920004444444343434342424242414141002BE9
:1019300026D4770021D01CB54FEA370703B44FF007
:1019400010004FF010014FF000000FBCBDE8104038
:101950000BF1010BBBF1010F08BF5FEA170722BFB4
:1019600012F1010211F101014FF0004143F10003B6
:1019700000F0004043EA00007047F9D35708DAE767
:1019800046EA064613F1400F4FEA16461FDD13F1F3
:10199000200FDFBF16430A46002120335B42C8D028
:1019A000C3F1200746EA064602FA07F74FEA164651
:1019B00046EA0706C3F1200722FA03F201FA07F705
:1019C00021FA03F14FF0000342EA0702B1E746EAC9
:1019D000020646EA06464FEA164646EA0106BCBF3C
:1019E00046EA0646360C4FF000034FF000024FF077
:1019F00000019EE72DE9C048934630B491E83800D5
:101A000007C831EA400C48BF34EA430C03D5FFF75E
:101A1000F2FDFFF78CFFF0BCBDE800882DE9C0485F
:101A2000934630B491E8380007C810F0804F08BFE3
:101A300013F0804F03D100F005F8FFF778FFF0BCFA
:101A4000BDE8008820F07F4780EA030023F07F4C48
:101A500007EB0C03A3F57C5300F00040A3F1FE0359
:101A600092F0000F00F0B38095F0000F00F0778047
:101A70002DE901494FEA11404FEA144621EA004896
:101A800000FB06FC24EA064708FB06F607FB08F8FD
:101A900000FB07F718EB06484CEB164C4FEA124BCD
:101AA00018EB07484FEA15464CEB174022EA0B4E5D
:101AB0000BFB06FC25EA06470EFB06F607FB0EFEAF
:101AC0000BFB07F71EEB064E4CEB164C4FF00006D7
:101AD0001EEB074E4CEB174B18EB0B0840F10000C8
:101AE00018EB0E0B58EB000840F100008F1A4FF076
:101AF00000013CBFC943661B14BFB5EB040C0021B9
:101B00003CBFC943F61B4FEA17444EEA8E0E27EA44
:101B100004454FEA1C4704FB07622CEA074C05FB0F
:101B200007F70CFB05F604FB0CFC16EB074642EB33
:101B3000174216EB0C4642EB1C421BEB060658EB19
:101B40000202414146EA9E0601D5BDE80189B61967
:101B5000524141EB0101A3F10103BDE801894FEAC4
:101B600014454FEA114724EA054621EA074C05FBD4
:101B700007F406FB07F70CFB06F105FB0CFC11EB69
:101B8000074144EB17444FEA124711EB0C4144EB79
:101B90001C4422EA074C05FB07F206FB07F70CFB87
:101BA00006F605FB0CFC16EB074642EB174216EB5C
:101BB0000C4642EB1C456A1854F1000148BF7047BF
:101BC000B619524141EB0101A3F10103704795F0B1
:101BD000000F37D04FEA11424FEA144721EA02467C
:101BE00024EA074C02FB07F106FB07F70CFB06F49F
:101BF00002FB0CFC14EB074441EB17414FEA15477D
:101C000014EB0C4441EB1C4125EA074C02FB07F5A1
:101C100006FB07F70CFB06F602FB0CFC16EB07466F
:101C200045EB174516EB0C4645EB1C42121951F1DA
:101C3000000148BF7047B619524141EB0101A3F1C1
:101C4000010370474FEA14454FEA114724EA05465D
:101C500021EA074C05FB07F106FB07F70CFB06F230
:101C60004FF0000605FB0CFC12EB074241EB17415D
:101C700012EB0C4251EB1C4148BF7047921841EBEC
:101C80000101A3F10103704700BFFEE72DE9F04118
:101C90008AB004460D4616461F46DDF840800121F5
:101CA000022001F01BFB0121480601F037FB4FF435
:101CB0004070089002208DF8240000208DF8260046
:101CC00003208DF8250001208DF8270008A92D4854
:101CD00000F0DCFD092211462A4800F01FFE09220F
:101CE0000821284800F01AFE00208DF81A008DF80F
:101CF0001B008DF81C0001208DF81D0000208DF8C0
:101D00001E008DF81F008DF816808DF817408DF895
:101D100018608DF81950ADF8147005A91A4800F034
:101D20002EFA00208DF80E008DF80F0001208DF89E
:101D300010000020ADF80400ADF80600ADF8080072
:101D4000ADF80A00ADF80C0001208DF8110001A8D3
:101D500000F088F9012202210B4800F007FA142054
:101D60008DF8000001208DF8010000208DF80200A0
:101D700001208DF80300684601F0DCF90AB0BDE8E7
:101D8000F0810000000402400064004010B500240F
:101D90000B490978C1EBC1010A4A02EB410003F08B
:101DA0000DFA07480078401C05490870084600787D
:101DB000312801DB0020087001200349086010BDB4
:101DC000D804002070260020D404002070B50546F9
:101DD0000024032011490870084645700920C87086
:101DE0000A2008710120887008204873084603F013
:101DF00043FA00BF01E0601C84B23146084800F09D
:101E0000C1FA18B940F6FF708442F4DB40F6FF7067
:101E1000844201DB012070BD0020FCE72C2500205E
:101E20000064004010B586B0002401AA00210548D6
:101E300000F02FFA00BF00E0641C082CFCDB06B0A9
:101E400010BD00000064004000B58BB001210220ED
:101E500001F044FA0121022001F040FA0121480674
:101E600001F05CFA0121880601F058FA09220821E4
:101E70006B4800F053FD09221146694800F04EFD01
:101E800009220621664800F049FD0922052164481F
:101E900000F044FD4FF44070099002208DF82800B6
:101EA0008DF8290000208DF82A0001208DF82B00E4
:101EB00009A95B4800F0EAFC5A4800F0B7F8002096
:101EC0008DF81A0001208DF81B0000208DF81C00F1
:101ED0008DF81D008DF81E008DF81F008DF816007E
:101EE00002208DF817000C208DF8180001208DF8C5
:101EF00019003620ADF8140005A94A4800F03FF952
:101F000000208DF80E008DF80F0001208DF81000D4
:101F10000020ADF80400ADF80600ADF80800ADF8FB
:101F20000A00ADF80C0001208DF8110001A800F0A6
:101F300099F8012202213B4800F018F914208DF88D
:101F4000200000208DF821008DF8220001208DF85E
:101F5000230008A801F0EEF86020099002208DF817
:101F600028008DF8290000208DF82A0001208DF826
:101F70002B0009A92A4800F089FC2B4800F056F8EC
:101F800000208DF81A0001208DF81B0000208DF82C
:101F90001C008DF81D008DF81E008DF81F008DF8B7
:101FA000160002208DF817000C208DF81800012073
:101FB0008DF819003620ADF8140005A91A4800F074
:101FC000DEF80E208DF80E0000208DF80F000120A5
:101FD0008DF810000020ADF80400ADF80600ADF853
:101FE0000800ADF80A000120ADF80C008DF81100D2
:101FF00001A800F037F8012210210B4800F0B6F8D4
:1020000041208DF8200000208DF821008DF822005D
:1020100001208DF8230008A801F08CF80BB000BD5A
:1020200000040240006400400068004010B504460F
:102030000B48844209D10121480601F07FF90021B3
:102040004FF0007001F07AF908E00121880601F0F4
:1020500075F900214FF0806001F070F910BD0000AB
:102060000064004010B50021837A012202FA03F1D6
:102070003D4A126842F001023B4B1A603A4A1C3258
:1020800012688A43384B1C331A60027BCAB9364A3D
:102090000C3212688A43344B0C331A604288C3886E
:1020A00042EA0343304A4032847A42F834300288AC
:1020B000838842EA03432C4A4032847A02EBC4020A
:1020C0005360027B012A19D1274A0C3212680A4355
:1020D000254B0C331A604288038842EA0343224AA4
:1020E0004032847A42F83430C288838842EA03431B
:1020F0001D4A4032847A02EBC4025360C27A3AB974
:10210000194A121D12688A43174B1B1D1A6006E0FC
:10211000154A121D12680A43134B1B1D1A600289CF
:1021200032B9114A143212688A430F4B14331A60C1
:102130000289012A06D10C4A143212680A430A4B5A
:1021400014331A60427B012A06D1074A1C321268F6
:102150000A43054B1C331A60034A126822F001023D
:10216000014B1A6010BD0000006600401AB14369BF
:102170000B43436102E043698B434361704730B5D1
:10218000024600200023146824F00204146014683E
:1021900044F00104146000E05B1C546804F0010486
:1021A0001CB94FF6FF74A342F6D1546804F0010441
:1021B0000CB900206CE08C79012C04D1146844F037
:1021C0008004146003E0146824F080041460CC7967
:1021D000012C04D1146844F04004146003E0146836
:1021E00024F0400414600C7A012C04D1146844F0EB
:1021F0002004146003E0146824F0200414604C7A76
:10220000012C04D1146844F01004146003E0146835
:1022100024F0100414608C7A012C04D1146844F06A
:102220000804146003E0146824F008041460CC7AF5
:10223000012C04D1146844F00404146003E0146811
:1022400024F0040414608C78A407CD7844EA056473
:102250000D7944EA05444D7944EA05540D886D1E14
:102260002C43D461146824F001041460002300E0BE
:102270005B1C546804F001041CB14FF6FF74A342C8
:10228000F6D1546804F001040CB1002000E00120F4
:1022900030BD10B500F5D87303EB01131B6803F0D4
:1022A00004031372137A53B900F5D87303EB0113C7
:1022B0001B6840F2FF7404EA5353136009E000F511
:1022C000D87303EB01131B686FF0604404EAD30377
:1022D000536000F5D87303EB01131B6803F002038E
:1022E000537200F5D87303EB01135B6803F00F031F
:1022F000937200F5D87303EB01135B681B0AD37468
:1023000000F5D87303EB01139B68D37200F5D87303
:1023100003EB01139B681C0A147300F5D87303EBDD
:1023200001139B681C0C547300F5D87303EB011365
:102330009B681B0E937300F5D87303EB0113DB68E6
:10234000D37300F5D87303EB0113DB681C0A147414
:1023500000F5D87303EB0113DB681C0C547400F513
:10236000D87303EB0113DB681B0E937421B9C368A8
:1023700043F02003C36003E0036943F020030361DB
:1023800010BD000010B50246002321B1012907D07D
:1023900002290FD109E090681D4C00EA04030BE00C
:1023A00090681C4C00EA040306E090681A4C00EAAE
:1023B000040301E0002300BF00BF184C181BA34218
:1023C00016D007DC83B16FF08060184470B102282A
:1023D00018D111E0B0F5007F10D0114C204448B165
:1023E000B0F5003F0ED10BE002230DE000230BE01F
:1023F000002309E0002307E0012305E0012303E0B7
:10240000012301E0002300BF00BFD8B210BD0000CF
:10241000030000040003000800000310000100088E
:102420000001FFF770B59CB004460226C8250120C4
:102430008DF8000003208DF80100601E282101EBBB
:102440008000019004200290684603F047F803E002
:10245000642002F071FE6D1E1348008800F40040F5
:1024600008B9002DF4D1DDB10F48008800F4004018
:10247000B8B100200C4908800C480068A04210D177
:102480000A4840680A490870084880684870074848
:10249000C068887008468078032802D1032600E0CF
:1024A000022630461CB070BDF0070020C497002003
:1024B0002107002070B59CB004460026C8250120E5
:1024C0008DF8000003208DF80100601E800001904F
:1024D00004200290684603F001F803E0642002F053
:1024E0002BFE6D1E1048008800F4004008B9002D36
:1024F000F4D1ADB10C48008800F4004088B1002050
:102500000949088009480068A0420AD10748406884
:10251000074948700548806888700846467800E09A
:10252000002630461CB070BDF0070020C497002084
:102530001E07002070472DE9FF4706460F469046CC
:1025400099460C9D2C4642F2107094FBF0F030300E
:10255000C0B28DF8080042F2107094FBF0F100FB5D
:10256000114084B24FF47A7094FBF0F03030C0B276
:102570008DF809004FF47A7094FBF0F100FB1140E4
:1025800084B2642094FBF0F03030C0B28DF80A00C1
:10259000642094FBF0F100FB114084B20A2094FB0C
:1025A000F0F03030C0B28DF80B000A2094FBF0F14F
:1025B00000FB114084B204F13000C0B28DF80C0071
:1025C00000208DF80D0002A800214B464246CDE9BF
:1025D00000103946304600F048FABDE8FF87000099
:1025E00000B599B00121182000F078FE01210846BD
:1025F00000F084FE0C220021514800F08FF90C22DB
:1026000001214F4800F08AF90C2204214C4800F0C7
:1026100085F90C2205214A4800F080F90C22072197
:10262000474800F07BF90C220821454800F076F974
:102630000C220921424800F071F90C220A2140487D
:1026400000F06CF90C220B213D4800F067F90C22D8
:102650000E213B4800F062F90C220F21384800F0AF
:102660005DF94CF6B370019002208DF808008DF8EA
:10267000090000208DF80A008DF80B0001A93048F0
:1026800000F004F90C2207212E4800F047F90C2233
:1026900008212C4800F042F90C220921294800F0B9
:1026A0003DF90C220A21274800F038F90C220B21B1
:1026B000244800F033F90C221146224800F02EF98C
:1026C0000C220D211F4800F029F90C220E211D4873
:1026D00000F024F90C220F211A4800F01FF94FF6E0
:1026E0008070019001A9174800F0D0F800200390F5
:1026F0000490032005900020069007900890099010
:102700000A900B900C9010200D9000200E900F90CE
:10271000109011904FF40060129040001390002030
:1027200014901590169003A8179018900AA800F01E
:1027300025F80121002000F007F819B000BD0000C5
:10274000000C02400010024051B18200A2F1C042D0
:10275000126842F001038200A2F1C042136009E056
:102760008200A2F1C0421268034B1A408300A3F119
:10277000C0431A6070470000FEFF0F00D0E901124D
:102780001143C268114302691143426911438269CE
:102790001143C2691143026A1143426A1143826ABA
:1027A0001143C26A1143026B114302689200A2F105
:1027B000C0421160816808290BD101688900A1F12C
:1027C000C041096841F0400201688900A1F1C0419F
:1027D0000A60416B0968426B526841EA0211426B20
:1027E000926841EA0221426B928941EA0241426BBE
:1027F000128A41EA0251426B127D41EA0261426B48
:10280000926911430268521C9200A2F1C042116009
:10281000C16AB1F5804F1BD1816B0968826B526828
:1028200041EA0211826B926841EA0221826B128AAC
:1028300041EA0251826B127D41EA0261826B926928
:10284000114302689200A2F1C042C2F8041107E0ED
:102850006FF0704201688900A1F1C041C1F8042104
:1028600070474FF0C0400088704700000148008862
:1028700070470000000002600149088070470000B6
:10288000000002604FF0C04108807047F0B50A4672
:1028900000210023002400BF3DE0012505FA01F3DB
:1028A000156805EA03049C4234D105684F000326ED
:1028B000BE40B543056015794E00B5400668354306
:1028C00005601579012D02D01579022D16D1856884
:1028D0004F000326BE40B543856055794E00B54094
:1028E000866835438560456801268E40B54345605E
:1028F000456896798E40B6B235434560C5684F004D
:102900000326BE40B543C560D5794E00B540C668C4
:102910003543C560491C1029BFD3F0BDF0B5002375
:1029200000244D07ED0E02FA05F3CE1000F120054C
:1029300055F826504E07F70E0F26BE40B543CF1070
:1029400000F1200646F82750CE1000F1200555F87A
:10295000265045EA0304CE1000F1200545F8264034
:10296000F0BD0246002013690B400BB1012000E0CE
:1029700000207047418370470183704700BFFEE726
:1029800001460846704700001CB50121142000F0E4
:10299000A5FC0D20009000208DF8040003208DF888
:1029A000050000208DF8070069460948FFF76EFF13
:1029B0005020009000208DF8040003208DF80500C1
:1029C00000208DF8070069460248FFF75FFF1CBD35
:1029D000000802400010024010B5002410211148E8
:1029E000FFF7BFFF04466006040E40210D48FFF7C5
:1029F000B8FF04436006040E01210B48FFF7B1FF46
:102A000004436006040E04210748FFF7AAFF0443AD
:102A10006006040E08210448FFF7A3FF0443204684
:102A200010BD0000001002400008024010B5FFF782
:102A3000D3FF0446082C0DD003DC3CB1042C0FD18D
:102A400006E00C2C08D01C2C0AD107E0042409E075
:102A5000032407E0022405E0012403E0002401E050
:102A6000002400BF00BF204610BD2DE9FC470446EE
:102A70000D4616461F46DDE90A893B463246294681
:102A80002046CDE9008902F095FEBDE8FC872DE9DE
:102A9000F84304460D4617461E46DDE9088903F053
:102AA000CDF802F0C1FF404602F05CFEBC4207D107
:102AB000B54205D142462946204602F075FC07E0A2
:102AC00033463A4629462046CDF8009002F0C5FE2E
:102AD000BDE8F8831CB548F230404FF4F0734FF472
:102AE000487200210090084601F004F831A04FF62A
:102AF000FF7300220A210090084602F067FC30A014
:102B00004FF6FF7300220A2100908C2002F05EFC39
:102B10002DA04FF6FF7300220A2100904FF496700B
:102B200002F054FC2BA04FF6FF7300220A21009004
:102B30004FF4D77002F04AFC28A04FF6FF73002232
:102B40000A21009040F2762002F040FC61204FF60E
:102B5000FF7300220A21009040F2EE20FFF7EBFC09
:102B60000020009032231A0101460190FFF78FFFE9
:102B70001DA04FF6FF7300224FF4E17100900A2070
:102B800002F024FC1CA04FF6FF7300224FF4E17109
:102B9000009040F2122002F019FC002000904FF447
:102BA000F0734FF448724FF4D7710190FFF76FFF45
:102BB0001CBD0000CFB5CDB3D7B4CCACA3BA0000D8
:102BC000D5FDB3A300000000C9E8B1B8D7B4CCACC0
:102BD000A3BA0000D4DACFDF00000000B5B1C7B05F
:102BE000D0C5BAC5A3BA0000C4CFBEA9B9A4B3CC9E
:102BF000D1A7D4BA00000000D7D4D6FACADBBBF5FF
:102C0000BBFABFD8D6C6CFB5CDB356312E300000F3
:102C100008B500F0B3F800F0E9F815A04FF6FF731F
:102C20000022FA2100904FF4AF7002F0CFFB13A006
:102C30004FF6FF7300224FF496710090FA2002F0D5
:102C4000C5FB16A04FF6FF7300224FF4AF71009042
:102C50004FF48C7002F0BAFB0A204FF6FF7300228B
:102C60004FF4AF7100904FF4E070FFF764FC08BDC3
:102C7000D6A7B8B6B3C9B9A600000000CFB5CDB38A
:102C8000D5FDD4DACEAAC4E3B3F6BBF5A3ACC7EB4B
:102C9000D7A2D2E2B2E9CAD500000000B8D0D0BBBA
:102CA000C4FAB5C4CAB9D3C3A3A8202020202020C9
:102CB000C3EBA3A90000000008B500F05FF800F026
:102CC00095F815A04FF6FF730022FA210090962088
:102CD00002F07CFB1CA04FF6FF7300224FF49671AC
:102CE0000090FA2002F072FB1EA04FF6FF73002244
:102CF0004FF4AF7100904FF48C7002F067FB0A2024
:102D00004FF6FF7300224FF4AF7100904FF4BC7088
:102D1000FFF711FC08BD0000CFB5CDB3D4DAD6B8AB
:102D2000B6A8CAB1BCE4C4DACEB4BCECB2E2B5BD5C
:102D3000B8B6BFEEBDE1B9FBA3ACB1BEB4CEBDBB6E
:102D4000D2D7CAA7B0DC0000C7EBB3A2CAD4D6D88A
:102D5000D0C2B9BAC2F2B2A2CDEAB3C9D6A7B8B648
:102D600000000000D2B3C3E6BDABD4DA202020209F
:102D70002020C3EBBAF3B9D8B1D5000008B548F2AA
:102D800030404FF4D7734FF4487232210090002046
:102D900000F0B0FE08BD000008B5FFF7EFFF0AA085
:102DA0004FF6FF7300223C2100904FF4AF7002F009
:102DB0000DFB07A04FF6FF73002264210090FA205C
:102DC00002F004FB08BD0000BFD52020CFD00000DA
:102DD000A1A320A1A320A1A320A1A320A1A320A15E
:102DE000A320A1A320A1A320A1A300001CB5FFF74D
:102DF000C5FF50A04FF6FF730022642100900846E3
:102E000002F0E4FA4EA04FF6FF73002296210090E4
:102E1000642002F0DBFA4DA04FF6FF73002264211C
:102E20000090880002F0D2FA4BA04FF6FF73002208
:102E3000962100904FF4C87002F0C8FA4948007813
:102E4000062813D2DFE800F0120306090C0F4648EB
:102E500004680CE04448446809E04348846806E09C
:102E60004148C46803E04048046900E000BF00BF77
:102E70004FF6FF7300226421E120009402F0A6FACD
:102E800038480078062813D2DFE800F0120306095C
:102E90000C0F364804680CE03448446809E03348B5
:102EA000846806E03148C46803E03048046900E003
:102EB00000BF00BF4FF6FF7300229621E12000946F
:102EC00002F084FA274840784FF6FF73002264210D
:102ED000009040F20D20FFF72EFB2548807830B19E
:102EE000012807D0022808D003280CD108E0214887
:102EF000046809E01F48446806E01E48846803E04F
:102F00001C48C46800E000BF00BF4FF6FF730022FA
:102F1000962140F20D20009402F058FA0020009013
:102F2000C8234FF42F72502101903220FFF7AFFDDC
:102F30001CBD0000C9CCC6B7C3FBB3C6A3BA000012
:102F4000C9CCC6B7BCDBB8F1A3BA0000C9CCC6B7C0
:102F5000BFE2B4E6A3BA0000D6A7B8B6D7B4CCACEB
:102F6000A3BA00001E07002058070020A007002079
:102F700021070020DC07002008B5FFF7FFFEFFF760
:102F800035FF15A04FF6FF730022FA210090B42000
:102F900002F01CFA1AA04FF6FF7300224FF496714C
:102FA00000904FF48C7002F011FA19A04FF6FF73E5
:102FB00000224FF4AF7100904FF4827002F006FAD5
:102FC0000A204FF6FF7300224FF4AF710090881D66
:102FD000FFF7B1FA08BD0000C4FACBF9D1A1D4F1D2
:102FE000B5C4C9CCC6B7D4DDCAB1C8B1BBF5A3ACB2
:102FF000CED2C3C7BDABBEA1BFECBDE2BEF60000E2
:10300000C7EBD1A1D4F1C6E4CBFBC9CCC6B7000055
:10301000D2B3C3E6BDABD4DA202020202020C3EBFE
:10302000C4DAB9D8B1D5000008B5FFF7A7FEFFF79D
:10303000DDFE1DA04FF6FF730022FA2100900A204A
:1030400002F0C4F925480078401E2B2101EB8000D6
:1030500080B24FF6FF730022FA2100904FF4A17066
:10306000FFF769FA1EA04FF6FF7300224FF4967126
:103070000090B42002F0AAF924A04FF6FF730022BA
:103080004FF4AF7100904FF4827002F09FF90A2064
:103090004FF6FF7300224FF4AF7100904FF4EE70C3
:1030A000FFF749FA08BD0000D6A7B8B6D0C5CFA231
:1030B000A3BAC7EBCDA8B9FDCAD6BBFABDABB5D88C
:1030C000D6B7202020202020CAFDBEDDD6C331C0C7
:1030D000B4CDEAB3C9D6A7B8B60000001E070020D9
:1030E000C4FAD2D1D1A1B6A8C9CCC6B7A3ACC7EB9C
:1030F000BEA1BFECB8F9BEDDB8B6BFEED0C5CFA259
:10310000BDF8D0D0D6A7B8B600000000D5FDD4DAFF
:10311000BCECB2E2D6A7B8B6BDE1B9FBA3A82020AB
:1031200020202020C3EBA3A90000000000BFFEE781
:103130007047000070B5002100230F22C4781CB333
:10314000174C246804F4E064C4F5E064C4F3072178
:10315000C1F10404E3B20A4144789C40E1B28478AE
:10316000144021430C07210E0E4C0578615504785C
:1031700004F01F050124AC4005786D11AD0005F188
:10318000E025C5F8004109E0047804F01F0501249A
:10319000AC40054D0678761145F8264070BD00001C
:1031A0000CED00E000E400E080E100E002490143B2
:1031B000024A1160704700000000FA050CED00E0C3
:1031C00070B5002501201049487102210E48817117
:1031D0000321C1710421017205214172062181720E
:1031E0000721C172002406E00748401D005D284405
:1031F000C5B2601CC4B2072CF6DB0348057301207E
:10320000FEF7E4FD70BD00002C25002010B502483B
:1032100000F0A4FE10BD0000380900200348002182
:103220000180817002480180817070471E07002074
:10323000210700207047000070B505460026C8240D
:1032400001201549087010204870681E022101EB0A
:103250008000283010494860012088608881084635
:1032600002F03CF903E0642001F066FF641E0B48A5
:10327000008800F4004008B9002CF4D14CB1074894
:10328000008800F4004028B100200449088001268D
:1032900000E00026304670BDC49A0020F0070020F0
:1032A00010B5882002F0FAF90C2002F001FA012092
:1032B00002F0D8F9892002F0F1F9022002F0F8F9C1
:1032C0000A2002F0CFF9042002F0E8F9812002F090
:1032D000EFF9012002F0C6F910BD000029B1064A3D
:1032E00012680243044B1A6004E0034A12688243E6
:1032F000014B1A60704700003038024029B1064A7D
:1033000012680243044B1A6004E0034A12688243C5
:10331000014B1A60704700003838024029B1064A54
:1033200012680243044B1A6004E0034A12688243A5
:10333000014B1A60704700004038024029B1064A2C
:1033400012680243044B1A6004E0034A1268824385
:10335000014B1A607047000020380240F0B5002190
:1033600000220024022500260223324F3F6807F086
:103370000C0121B1042905D0082937D105E02E4FD1
:10338000076036E02D4F076033E02A4F3F1F3F684C
:10339000C7F38056274F3F1F3F6807F03F036EB1CA
:1033A000264FB7FBF3F7DFF88CC0ACF1040CDCF868
:1033B00000C0CCF3881C07FB0CF40CE01E4FB7FBDD
:1033C000F3F7DFF870C0ACF1040CDCF800C0CCF30C
:1033D000881C07FB0CF4174F3F1F3F68C7F30147DA
:1033E0007F1C7D00B4FBF5F7076002E0124F076019
:1033F00000BF00BF0F4F3F6807F0F0010909104FF1
:103400007A5C0768D74047600A4F3F6807F4E0518D
:10341000890A0B4F7A5C4768D7408760054F3F6841
:1034200007F46041490B064F7A5C4768D740C76094
:10343000F0BD0000083802400024F40000127A00B9
:10344000F607002010B5FFF7E9FEFFF7A5FC10BD59
:10345000704700000CB500200190009034480068CF
:1034600040F480303249086000BF3148006800F401
:10347000003000900198401C0190009818B9019804
:10348000B0F5A04FF1D12A48006800F4003010B127
:103490000120009001E0002000900098012846D112
:1034A00023484030006840F0805021494031086096
:1034B0002048006840F440401E4908601C4808301D
:1034C00000681B49083108600846006840F4004065
:1034D00008600846006840F4A05008601648091FBC
:1034E0000860081F006840F08070091F086000BF76
:1034F0000F48006800F000700028F9D040F2057015
:103500000E4908600A480830006820F003000849A6
:10351000083108600846006840F00200086000BFFB
:1035200003480830006800F00C000828F8D10CBDF2
:10353000003802400070004008544007003C024040
:10354000042808D14FF0E021096941F004014FF04F
:10355000E022116107E04FF0E021096921F0040148
:103560004FF0E022116170470020014615E001EBA9
:103570004102114B03EB8200426852B14268521E75
:10358000426032B9012242700278012A01D1826878
:10359000426000BF481CC0B201460429E7DB07486F
:1035A0000068401C054A106010460068401C08B9BD
:1035B0000020106070470000349C002008080020A4
:1035C00010B51548006840F47000134908601348AE
:1035D000006840F001001149086000200F490831DF
:1035E00008600E4800680E4908400C4908600D4804
:1035F000091D0860081F006820F48020091F08606A
:10360000002006490C310860FFF724FF4FF00060EE
:1036100001498039086010BD88ED00E000380240A3
:10362000FFFFF6FE1030002410B50121880700F0DE
:1036300068F80121880700F055F810BD10B5012188
:103640000A4800F05EF880B10121084800F04AF80D
:103650000748008840F400400549088000210348DD
:1036600000F043F8034802F0B3FB10BD000800402F
:10367000F0070020349B00207FB505460C46012151
:103680000420FFF74BFE0295ADF804400020ADF892
:103690000600ADF80C0001A90B4800F04FF801221C
:1036A0001146094800F03EF81E208DF80000002069
:1036B0008DF8010001208DF802008DF803006846A6
:1036C000FFF738FD7FBD00000008004010B5012164
:1036D000034800F016F80121014800F003F810BD7E
:1036E000000C0040CA430282704721B1028842F0B8
:1036F0000102028004E002884FF6FE731A40028045
:10370000704730B50246002000230024158A05EAE0
:103710000103958905EA010413B10CB1012000E011
:10372000002030BD1AB183890B43838102E0838975
:103730008B438381704741627047000000220288FA
:10374000184B98420ED0184B98420BD0B0F1804FD6
:1037500008D0164B984205D0154B984202D0154B15
:10376000984204D14FF68F731A404B881A43124B7C
:10377000984207D0114B984204D04FF6FF431A40AD
:103780000B891A4302804B68C3620B880385054B83
:10379000984202D0044B984201D18B7A03860123D0
:1037A0008382704700000140000401400004004093
:1037B00000080040000C00400010004000140040D1
:1037C00010B504462046FFF7DBF828490870087852
:1037D000FEF770FE254948700846407840B9FFF76B
:1037E000CBFB40F6B83001F0A7FCFFF72BFE3BE027
:1037F00001201F490870FFF717FC1C490878FFF7E4
:103800001BFD0A201B49087000BF18490878FEF705
:1038100009FE174908704FF47A7001F08DFC1548C5
:103820000078401E1349087011480078032803D01F
:10383000084600780028E8D10D480078032808D110
:10384000FFF7E6F901200C490870002008490870CC
:103850000AE0022006490870FFF72EFA40F6B83059
:1038600001F06AFCFFF7EEFD10BD00001E0700200E
:10387000210700201D0700201907002070B540F225
:103880002551554800F07DFA002877D040F22551A7
:10389000514800F045FA504800F02CFB4F490870A1
:1038A0004F480078012852D1084600784D494E4AC9
:1038B000127888544C480078401C4B4908700846E0
:1038C00000780E2843DD002045490870454880787F
:1038D000AA283CD143488678032404E04148005D8F
:1038E0004640601CC4B20E2CF8DB3E48807BB042E0
:1038F0002DD1042406E03B48015D201F3B4A1154B2
:10390000601CC4B20B2CF6DB384840783749097884
:1039100000EB0120364988643448C07833498978FF
:1039200000EB01203249C864304840792F490979B9
:1039300000EB01202E4908652C48C0792B49897974
:1039400000EB01202A49486501202A4908702448D3
:10395000007898B92848007888B928480078012864
:103960000DD11E480078882809D10120224908700D
:103970001B49087002201C49087007E01FE0002066
:103980001E4908701C4908701549087013480078D2
:10399000BB2814D10120194908700020164908706D
:1039A00001201749087000200F490870002504E025
:1039B00000200C494855681CC5B20A2DF8DB0821C7
:1039C000054800F0D1F930B10821034800F0A8F90A
:1039D000014800F08FFA70BD004C00409A040020AE
:1039E0009E0400206E1500207A040020821500201D
:1039F00010210020A00400209D0400209C04002031
:103A00009904002070B540F22551334800F0B9F90F
:103A1000002850D040F225512F4800F081F92E485F
:103A200000F068FAC6B206F07F052C48007801283D
:103A30002DD12B482B49097845542A480078401C41
:103A4000284908700D2D19D108460078112815D184
:103A500000202249087004240BE02148015D201F4A
:103A6000214A11541E48015D201F204A1154601C38
:103A7000C4B20A2CF1DB01201D49087019480078F6
:103A8000202804DD00201549087016490870022D11
:103A900011D1012011490870002404E000201049D0
:103AA0000855601CC4B2642CF8DB01200D49087075
:103AB00002200B4908704FF45871074800F054F980
:103AC00040B14FF45871044800F02AF9024800F060
:103AD00011FAC5B270BD000000500040CD060020B4
:103AE000A88000203F050020A1040020A804002099
:103AF000CC0600202DE9FC4104460D4616461F4623
:103B0000DDF8208001203B4632462946CDE9008081
:103B10002046FEF7BCFFBDE8FC8108B501F052FC71
:103B200048F230404FF4F0734FF448720021009097
:103B30000846FFF7DFFF002008BD000010B540F287
:103B40002551134800F01DF900B31248008800F415
:103B50000040B0B900211048FFF7C7FD0C4800F045
:103B6000C9F9C1B20B480488601C0A4A10800B488E
:103B7000015500210848FFF7DEFD01210648FFF747
:103B8000B4FD40F22551024800F0D3F810BD00000A
:103B900000440040F007002000080040349B002053
:103BA00008B540F22551574800F0EBF800287DD0C9
:103BB00040F22551534800F0B3F8524800F09AF90A
:103BC000C0B2009050480078012870D19DF80000E4
:103BD0004E494F4A127888544D480078401C4C4951
:103BE00008709DF800004B2803D008460078122882
:103BF0006DDD0020444908709DF800004B2866D117
:103C00004248407800F0F00030282DD13F488078BD
:103C100000F0F000302827D13C48C07800F0F000D8
:103C2000302821D13948407800F00F003949086028
:103C300008460068000108603448807800F00F00F2
:103C400009680844334908600846006800010860B4
:103C50002E48C07800F00F00096808442D4908601C
:103C6000084600682C4988602848007900F0F00078
:103C7000302829D12548407900F0F000302823D1A0
:103C80002248007900F00F002449087008460078A7
:103C90000007000E08701D48407900F00F000978F9
:103CA00008441E4908700846007801E01BE00EE059
:103CB0001949C86019480078002802DD55200861BC
:103CC00002E0AA20144908610020114908709DF8FB
:103CD00000004A2807D101200B4908700C490870E0
:103CE0004A200A4908700821064800F03DF80128DA
:103CF00006D10821034800F013F8024800F0FAF852
:103D000008BD000000480040B4040020342000201A
:103D100091040020B804002010210020C0040020DD
:103D200001F40072B2F5007F00D100BFCA430280E7
:103D3000704710B50022002340F66A14A14200D15A
:103D400000BF0A1201249440A3B2DC43048010BDDA
:103D500021B1828942F40052828104E082894DF6C9
:103D6000FF731A408281704702460020B1F5007F40
:103D700000D100BF13880B400BB1012000E00020F0
:103D8000704770B50246002400230025002040F64D
:103D90006A16B14200D100BFC1F3421501F01F0302
:103DA000012606FA03F3012D02D19689334006E07D
:103DB000022D02D1168A334001E0968A33400C125C
:103DC000012606FA04F41688344013B10CB1012020
:103DD00000E0002070BDF0B5034600240026002559
:103DE000002040F66A17B94200D100BF1846C1F35F
:103DF000421401F01F06012707FA06F5012C01D134
:103E00000C3004E0022C01D1103000E014301AB163
:103E100007682F43076002E00768AF430760F0BD03
:103E20002DE9FF4705460E460024A14600BFA046E7
:103E3000B08900B100BF2C8A24F44054F0880443B8
:103E40002C82AC8941F20C608443B08831890843EC
:103E5000718908430443AC81AC8A24F44074B0896E
:103E60000443AC826846FFF779FA2048854202D0C5
:103E70001F48854202D1DDF80C9001E0DDF8089082
:103E8000A88900F4004040B109EBC90000EB09101B
:103E900031684900B0FBF1F707E009EBC90000EB1E
:103EA000091031688900B0FBF1F76420B7FBF0F02E
:103EB00004012009642101FB1078A88900F4004066
:103EC00040B1322000EBC800B0FBF1F000F0070079
:103ED000044308E0322000EB08106421B0FBF1F04D
:103EE00000F00F0004432C81BDE8FF870010014063
:103EF0000014014001468888C0F308007047C1F3F0
:103F00000802828070472DE9F04106460C462046A3
:103F1000FCF7B0FB87B2002510E040213046FFF7E8
:103F2000FFFE615D3046FFF7EAFF00BF40213046EB
:103F3000FFF71AFF0128F9D1681C85B2BD42ECDBFE
:103F4000BDE8F08101460122C1F81023002070472E
:103F500001460022C1F810230020704738B50546FD
:103F6000002400200090284600F0D5F8002847D013
:103F7000284600F0DAF80090009808B9002038BD13
:103F80000098C0F3C00018B1284600F0F9FF0443C0
:103F90000098C0F3001018B1284600F03EFF04431B
:103FA0000098C0F3401018B1284600F078FD044393
:103FB0000098C0F3806018B1284600F097FE0443D3
:103FC0000098C0F3406018B1284600F040F904435F
:103FD0000098C0F3006018B1284600F0F7FD0443D4
:103FE0000098C0F3407018B1284600F0F7F8044379
:103FF0000098C0F3405018B1284600F005F904437A
:104000002046BCE701460020704710B50446A0B228
:1040100001F092F810BD0146C868406900F0010047
:1040200070471CB50246002000230093009B23F03C
:10403000004303F1004300930124009B64F3DC433D
:10404000009302F1900353F82130009C1C6102F1AF
:10405000900353F821301B680193019B23F0004328
:1040600003F100430193019B23F08043019302F18C
:10407000900353F82130019C1C601CBD10B586B024
:104080000246002000230393019302F1900353F8AA
:1040900021301B680093009B23F0004303F1004391
:1040A0000093009B23F0804303F180430093009B27
:1040B000C3F3814323B1009BC3F38143022B0BD194
:1040C000D368DB6A0393039BC3F307437BB9009B6D
:1040D00023F0004300930AE053691B690193019B9D
:1040E000C3F307431BB9009B23F00043009302F185
:1040F000900353F82130009C1C6006B010BD08B539
:10410000426912680092009A61F301020092009BDA
:104110004269136008BD00B502461046FFF77BFFF9
:10412000012800D100BD0020FCE701460020CA683C
:104130005069CA6892691040704708B50146D1F8C5
:10414000CC0000680090009820F0040000900098D7
:1041500020F002000090009820F0080000900098E5
:1041600020F020000090009808BD01464869406991
:104170007047F0B503460024D01CC71700EB9777B3
:10418000BD10D3F8D06000BF03E030680860641C45
:10419000091DAC42F9D30846F0BD38B504462046A7
:1041A000FFF7CBFF0090009820F4807000F580703E
:1041B00000900099D4F8CC0001600A20FFF725FF99
:1041C000009820F4807000900099D4F8CC00016031
:1041D0001420FFF71AFF012038BD000038B504464F
:1041E00000200090074800688168204688470098B2
:1041F00020F0005000F1005000900098E168486104
:10420000012038BD180800200CB50146D1F89000F7
:1042100000680090009820F0004000F100400090FD
:10422000009820F0804000F180400090009AD1F882
:104230009000026000200190019820F4001000F529
:10424000001001900198CA68506101200CBD7CB536
:104250000546002400262846FFF787FF019000BF8F
:104260001BE0019880B20121A1400840A0B105F1F6
:10427000900050F82400006800900098C0F3C0300F
:1042800028B12146284600F00DF8064304E02146F7
:10429000284600F01CFA0643641C2878A042E0D8A7
:1042A00030467CBD70B586B005460C4605F19000E1
:1042B00050F82460B0680590F0680490DDE90410BF
:1042C0000840059005F1900050F824000068039024
:1042D000002004900598C0F38000D0B10020019028
:1042E000019820F00400001D01900198B06005F1D4
:1042F000900050F82400C0680190019820F002005E
:10430000801C019005F1900050F824000199C160D3
:1043100073E00598C0F3401048B100200190019867
:1043200020F02000203001900198B06065E00598F1
:10433000C0F3C00078B305F1900050F82400C068C5
:104340000190019820F00200801C019005F190007E
:1043500050F824000199C160052105F563700155ED
:1043600000200190019820F0100010300190019879
:10437000B06000200190019820F008000830019002
:104380000198B060059820F010000590E1B2284631
:10439000FFF774FE31E0FFE70598C0F3802060B3BB
:1043A00005F1900050F82400C0680190019820F0B9
:1043B0000200801C019005F1900050F82400019942
:1043C000C160E1B22846FFF759FE00200190019834
:1043D00020F01000103001900198B060082105F520
:1043E0006370015500200190019820F4806000F571
:1043F000806001900198B06000BF0598C0F3402034
:10440000F8B105F1900050F82400C06801900198BF
:1044100020F00200801C019005F1900050F824006B
:104420000199C160E1B22846FFF728FE0020019003
:10443000019820F4007000F5007001900198B060C0
:1044400042E1059800F00100002871D0E8780128C9
:1044500012D105F1900050F824000069029005F592
:104460006B7000EB441000690299C1F31201411A0C
:1044700005F5547040F82410012105F563700155CD
:104480000021783840F8241000200190019820F095
:104490000100401C01900198B0600398C0F3814076
:1044A00020B10398C0F3814002282AD105F1900081
:1044B00050F82400C0680190019820F00200801C90
:1044C000019005F1900050F824000199C160E1B21B
:1044D0002846FFF7D3FD00200190019820F010003E
:1044E000103001900198B06005F56B7000EB44103E
:1044F000007E80F0010105F56B7000EB4410017641
:10450000E2E00398C0F38140032899D1039820F09A
:10451000005000F10050039005F1900050F8240085
:1045200003990160012105F29B300155CCE0FFE7C2
:104530000598C0F34000002851D005F1900050F8D4
:104540002400C0680190019820F00200019005F15C
:10455000900050F824000199C16005F56370005D7A
:10456000012804D1012105F29B3001552DE005F50C
:104570006370005D052804D1042105F29B300155CC
:1045800023E005F56370005D062804D005F563702F
:10459000005D082808D1002105F5457040F8241079
:1045A00003218730015510E00398C0F381400328B0
:1045B0000BD105F56B7000EB4410007E80F001011B
:1045C00005F56B7000EB4410017600200190019816
:1045D00020F00200801C01900198B06074E0059802
:1045E000C0F3C01040B305F1900050F82400C0683B
:1045F0000190019820F00200801C019005F19000CC
:1046000050F824000199C16005F5457050F8241058
:10461000491C40F82410062178300155E1B22846A3
:10462000FFF72CFD00200190019820F080008030E1
:1046300001900198B06047E00598C0F30010E8B31E
:104640000398C0F38140032815D105F1900050F87C
:104650002400C0680190019820F00200801C0190A5
:1046600005F1900050F824000199C160E1B228469C
:10467000FFF704FD18E00398C0F3814020B10398D0
:10468000C0F3814002280FD1039820F0004000F1D0
:1046900000400390039820F08040039005F19000C3
:1046A00050F8240003990160032105F5637001555A
:1046B00000200190019820F0100000E004E010308C
:1046C00001900198B06000BF012006B070BD7FB5B9
:1046D00005460C4605F1900050F82460B068039040
:1046E000F0680290DDE902100840039005F19000A7
:1046F00050F82400006801900398C0F38000D0B106
:1047000000200090009820F00400001D0090009808
:10471000B06005F1900050F82400C0680090009847
:1047200020F00200801C009005F1900050F8240059
:104730000099C160B0E10398C0F3401048B1002077
:104740000090009820F02000203000900098B06089
:10475000A2E10398C0F34020F8B105F1900050F8B1
:104760002400C0680090009820F00200801C009097
:1047700005F1900050F824000099C160E1B228468C
:10478000FFF77CFC00200090009820F4007000F5FA
:10479000007000900098B0607EE1039800F0010086
:1047A00038B3002105F5457040F8241005F190005C
:1047B00050F82400C0680090009820F00200801C8F
:1047C000009005F1900050F824000099C160E1B21A
:1047D0002846FFF753FC00200090009820F00100CD
:1047E000401C00900098B060012105F563700155F0
:1047F00052E10398C0F3C00010B30020009000986D
:1048000020F00800083000900098B06005F190009A
:1048100050F82400C0680090009820F00200801C2E
:10482000009005F1900050F824000099C160E1B2B9
:104830002846FFF723FC052105F5637001552BE1A0
:104840000398C0F3001038B3002105F5457040F817
:10485000241005F1900050F82400C06800900098E2
:1048600020F00200801C009005F1900050F8240018
:104870000099C160E1B22846FFF700FC00200090DB
:10488000009820F01000103000900098B0600321D4
:1048900005F563700155FFE00398C0F3C01040B305
:1048A00005F1900050F82400C0680090009820F0B6
:1048B0000200801C009005F1900050F8240000993F
:1048C000C160E1B22846FFF7D9FB05F5457050F805
:1048D0002410491C40F8241006217830015500208E
:1048E0000090009820F08000803000900098B06028
:1048F000D2E00398C0F3801038B3002105F545706D
:1049000040F8241005F1900050F82400C068009091
:10491000009820F00200801C009005F1900050F8F3
:1049200024000099C160E1B22846FFF7A7FB0020F0
:104930000090009820F04000403000900098B06057
:10494000042105F563700155A6E00398C0F38020AB
:1049500060B305F1900050F82400C0680090009802
:1049600020F00200801C009005F1900050F8240017
:104970000099C160E1B22846FFF780FB002000905B
:10498000009820F01000103000900098B0600821CE
:1049900005F56370015500200090009820F48060B8
:1049A00000F5806000900098B06075E00398C0F357
:1049B0004000002870D005F1900050F82400C06835
:1049C0000090009820F00200009005F1900050F84F
:1049D00024000099C16005F56370005D012815D1C0
:1049E000012105F29B3001550198C0F38140022856
:1049F00048D105F56B7000EB4410407E80F001015A
:104A000005F56B7000EB441041763BE005F56370F3
:104A1000005D032804D1022105F29B30015531E0ED
:104A200005F56370005D04280FD105F56B7000EB90
:104A300044100079012803D1E1B22846FFF7F1FACA
:104A4000022105F29B3001551CE005F56370005D05
:104A5000052804D1042105F29B30015512E005F52B
:104A60006370005D06280DD105F5457050F82400EF
:104A7000032807D1032105F29B3001550021873817
:104A800040F8241000200090009820F00200801CC4
:104A900000900098B06000BF012004B070BD7FB5E9
:104AA0000446E068C06A00900198C0F3C30104F5B1
:104AB0006B7000EB41100069C01CC0F38F0673E0FF
:104AC0004FF6FF71009801EA80050198C0F3C30119
:104AD00004F56B7000EB41100069A84215D20198F3
:104AE000C0F3C30104F56B7000EB4110008A85B27E
:104AF00000200390039820F0200020300390E0680D
:104B0000806903998843E16888610198C0F3C30113
:104B100004F56B7000EB41100069C01CC0F38F06F8
:104B20000198C0F3C302C0F3C30304F56B7000EB3C
:104B300043102B46C168204600F038FA0198C0F3B4
:104B4000C30104F56B7000EB4110C0684119019876
:104B5000C0F3C30204F56B7000EB4210C160019812
:104B6000C0F3C30104F56B7000EB41100069411BF9
:104B70000198C0F3C30204F56B7000EB42100161B1
:104B80000198C0F3C30104F56B7000EB411040695C
:104B900041190198C0F3C30204F56B7000EB421099
:104BA0004161E068C06A0090009880B2B0420ADDBE
:104BB0000198C0F3C30104F56B7000EB411000696C
:104BC00000287FF47DAF012004B070BDFEB504461F
:104BD000002600250020009002900190D4F8CC001F
:104BE00000680290D4F8CC0000680190019820F091
:104BF00004000190019820F002000190019820F03B
:104C000008000190019820F0200001900298C0F364
:104C1000400058B1019820F00200801C01903248F9
:104C2000006841682046884745F001050298C0F3B6
:104C3000C000002842D0019820F008000830019000
:104C40000298C0F38000002838D0274800684168E7
:104C5000204688470298C0F34140022804D00298B9
:104C6000C0F34140012828D1606900680090029893
:104C7000C0F34140022811D141F270716069416076
:104C8000009800F00300022818D0207A022803D1EF
:104C900002212046FFF733FA01260FE04BF6803160
:104CA00060694160009800F00300012806D00121EE
:104CB0002046FFF724FA012600E001260298C0F3FF
:104CC000401030B1019820F020002030019045F0D4
:104CD000010516B12046FFF760FA0199D4F8CC001F
:104CE00001602846FEBD000018080020FEB50446FD
:104CF0006069006900900198C0F3C30104F56B700E
:104D000000EB41100069C01CC0F38F0674E04FF641
:104D1000FF71009801EA80050198C0F3C30104F512
:104D20006B7000EB41100069A84216D20198C0F3E5
:104D3000C30104F56B7000EB4110008A85B20020BE
:104D40000290029820F0806000F180600290E0689C
:104D5000806902998843E16888610198C0F3C301C2
:104D600004F56B7000EB41100069C01CC0F38F06A6
:104D70000198C0F3C302C0F3C30304F56B7000EBEA
:104D800043102B46C168204600F010F90198C0F38B
:104D9000C30104F56B7000EB4110C0684119019824
:104DA000C0F3C30204F56B7000EB4210C1600198C0
:104DB000C0F3C30104F56B7000EB41100069411BA7
:104DC0000198C0F3C30204F56B7000EB421001615F
:104DD0000198C0F3C30104F56B7000EB411040690A
:104DE00041190198C0F3C30204F56B7000EB421047
:104DF0004161606900690090009880B2B0420ADDAC
:104E00000198C0F3C30104F56B7000EB4110006919
:104E100000287FF47CAF0120FEBD30B585B004468C
:104E2000002000900390039820F0100010300390B1
:104E3000E068806903998843E1688861E068006AF6
:104E40000490049800F00F00009004F190009DF889
:104E5000001050F82100006801900498C0F343400E
:104E6000022806D0032878D0052877D0072873D1E8
:104E700075E00498C0F30A10002869DD04F56B7032
:104E80009DF8001000EB4110C068002860D0049825
:104E9000C0F30A1204F56B709DF8003000EB43106C
:104EA000C1682046FFF765F9049800F00F0104F58A
:104EB0006B7000EB4110C0680499C1F30A11014402
:104EC000049800F00F0204F56B7000EB4210C16013
:104ED000049800F00F0104F56B7000EB411040697D
:104EE0000499C1F30A110144049800F00F0204F57B
:104EF0006B7000EB4210416104F56B709DF800107F
:104F000000EB4110456904F554709DF8001040F81D
:104F1000215004F190009DF8001050F82100006924
:104F200002900298C0F3C940002811DD019820F0DA
:104F3000004000F100400190019820F08040019075
:104F400004F190009DF80020019950F822000160C2
:104F500006E002E002E0FFE700BF00BF00BF00BFC5
:104F600000BF039820F0100010300390E0688069C3
:104F700003990843E1688861012005B030BD000055
:104F800038B50446002000900748006801682046B4
:104F90008847009820F00800083000900098E168E9
:104FA0004861012038BD0000180800202DE9F041BB
:104FB00004460026E078B0B900270020DD1C4FEA47
:104FC000E57805EB98784FEAA80704F1D00555F885
:104FD00022C000BF04E00D68CCF80050401C091D41
:104FE000B842F8D300BF3046BDE8F08100BFFEE70D
:104FF00010B588B0044642F2CF0140F2F310FEF73C
:105000003BFB01210846FEF769F901214804FEF740
:1050100085F9072202212648FDF780FC072203219B
:105020002348FDF77BFC0420069002208DF81C002D
:105030008DF81D0000208DF81E008DF81F0006A9B8
:105040001B48FDF723FC0820069002208DF81C0069
:1050500006A91748FDF71AFC26208DF80400002049
:105060008DF8050005208DF8060001208DF8070059
:1050700001A8FEF75FF802940020ADF80C00ADF82F
:105080000E00ADF81000ADF814000C20ADF81200C1
:1050900002A90848FEF7C4FE01210648FEF758FEA3
:1050A000012240F225510348FEF795FE08B010BDDD
:1050B000000002400044004003B401984100009801
:1050C00050EAC12018BF04204A0D18BF40F001006B
:1050D00040F2FF72B2EB515F08BF40F002000128BE
:1050E00008BF052002B0704730380A2801D20120DD
:1050F00070470020704700BF7047000010B504469D
:105100006FF00400FEF71CFAE11704EB5171C1F3D4
:10511000C701074A11701046007800EB4001C1EB4F
:10512000C0104FF6FF7101EAC0000249088010BDAF
:10513000F2070020F407002070B504464FF4077012
:1051400094FBF0F0C6B24FF4077094FBF0F100FB53
:10515000114085B205E04FF4077000F009F8701EA9
:10516000C6B2002EF7D115B1284600F001F870BD87
:105170000146114A12884A434FF0E0235A61002247
:105180009A611A46126942F001021A6100BF4FF09B
:10519000E022106900F001021AB100F48032002A06
:1051A000F5D04FF0E022126922F001024FF0E02327
:1051B0001A6100229A617047F40700200CB52B4950
:1051C000096840F2FF7202EA5151019127490968CA
:1051D000274A02EAD10100913F22019902EAD10156
:1051E000017001994901009A41EA5231417001224E
:1051F000009902EA113181700F22009902EA11210F
:10520000C170009901711949091D096801F00F0168
:105210004173164908310968417114490831096818
:105220000A0A82711149083109680A0CC2710F49D2
:1052300008310968090E01720C490C310968417284
:105240000A490C3109680A0A827208490C31096856
:105250000A0CC27205490C310968090E017305492F
:10526000096841F02001034A11600CBDB06500409F
:10527000FFFF03000C64004008B500212B4A1160B9
:105280000178090600914178009A42EA01410091B3
:105290008178009A42EAC1310091C178009A42EACD
:1052A000C12100910179009A42EAC101009100995F
:1052B00041F0040100911D4A00991160017A0A062B
:1052C000C17942EA0142817942EA012142791143DE
:1052D000164A08321160017B0A06C17A42EA01428D
:1052E000817A42EA0121427A1143104A0C3211605C
:1052F0000E49091D096821F00F020C49091D0A60B9
:105300000968427B02F00F021143084A121D116026
:105310000749096841F00101054A1160034909681C
:1053200041F00101014A116008BD000080650040A4
:105330001464004010B52DED068B0446204601F0A4
:105340007EF841EC1A0B9FED150B53EC102B01F07E
:1053500089F841EC190B01F041F808EE100A9FEDB5
:10536000110AB4EEC08AF1EE10FA03DD9FED0D0ACA
:10537000B0EE408A00F0C5FC00F0D0FC00F0DBFC91
:10538000022000F0A4FCBCEEC80A10EE101AC8B24D
:1053900000F0AEFCBDEC068B10BD00007B14AE47E8
:1053A000E17A044000007F4370B504460D4616467E
:1053B00000F044FC00F038FB32462946204600F05D
:1053C0003FFA70BD10B500F077FB10BD2DE9F0413C
:1053D00006460F4614461D46DDF8188000F02EFCE8
:1053E00000F0DEFC00F0A5FA00F0B0FA032000F0B7
:1053F000CEFC00F0ADFC00F080FA00F0C1FA00F045
:10540000CEFA00F002FB3946304600F0E2FA2846B8
:1054100000F091F9204600F0A5F9404600F0FCF9B3
:1054200000F07AFABDE8F08108B500BFFEF7C8F8D1
:105430004FF4A060FDF7BAFE01210803FDF74EFF0F
:10544000A820FFF75BFE6420FFF776FE4FF4E13003
:10545000FFF7CEFDC820FFF76FFEFEF75EFBFCF7FF
:10546000F3FC00203C23062205210090FCF70EFCF3
:105470001648007808B100F0E9FEFDF785FA002033
:1054800013490880FDF726FBFDF786FC1DE0FDF7BC
:10549000CDFA104908700846007840B1FDF7BEFE0D
:1054A0000C480078FEF78CF900200A4908700A4879
:1054B000007850B1002008490870FDF781FE40F6E1
:1054C000B830FFF739FEFDF767FCE0E70C0200207B
:1054D000F007002018070020190700202DE9F047E9
:1054E00005460024A24606244FF480715B48FBF772
:1054F000E0F8687828B16878032802D06878102826
:105500007BD1287855490855687820B103284AD0BE
:10551000102874D100E073E06F68D5F8088000BFF0
:1055200007EB0800B0F5807F02D84FF0000A01E0D9
:105530004FF0100A601CC4B2687840EA0A0047497C
:105540000855601CC4B26868C0F307200855601C89
:10555000C4B268680855601CC4B2A868C0F30720CC
:105560000855601CC4B2A8680855601CC4B2A8687D
:105570004006000E0855002611E0601CC4B205F17B
:105580000C0030F81600000A34490855601CC4B2FB
:1055900005F10C0030F816000855701CC6B2A8685A
:1055A000B042EAD82CE06F68D5F8088000BF07EB5E
:1055B0000800B0F5807F02D84FF0000A01E04FF0FC
:1055C000100A601CC4B2687840EA0A0023490855F2
:1055D000601CC4B26868C0F307200855601CC4B2E0
:1055E00068680855601CC4B2A868C0F30720085555
:1055F000601CC4B2A868085502E02BE0FFE700BFBA
:1056000000BF4AF6BB294FEA19201449087081F8F7
:10561000019000208870C870601F000A0871601F28
:1056200048712878887140210D48FEF79DFB0026BF
:105630000DE00A48815D0A48FEF761FC00BF402189
:105640000748FEF791FB0128F9D1701CC6B2601C17
:105650008642EEDB0020BDE8F0870000C499002000
:1056600000440040014606E0002000E0401C4CF2EF
:1056700050329042FAD30A1EA1F1010399B2F3D13C
:10568000704710B500BF00F019F8044604F0800020
:105690008028F8D00520FFF7E5FF10BD10B50446BF
:1056A0002046FDF7E9F810BD10B5FDF7DAF810BD9A
:1056B00010B504462046FDF7E5F810BD10B5FDF71E
:1056C000D5F8C0B210BD2DE9F04107460C4615468D
:1056D0001E463020FFF7E2FF3846FFF7E9FF312092
:1056E000FFF7DCFF3812FFF7E3FF3420FFF7D6FFA8
:1056F0002046FFF7DDFF3520FFF7D0FF2012FFF730
:10570000D7FF3220FFF7CAFF2846FFF7D1FF33202B
:10571000FFF7C4FF2812FFF7CBFF3620FFF7BEFFCD
:105720003046FFF7C5FF3720FFF7B8FF3012FFF70D
:10573000BFFFBDE8F08110B504466020FFF7AEFF63
:10574000E00AFFF7B5FF6120FFF7A8FFC4F345109B
:10575000FFF7AEFF6220FFF7A1FF04F01F00FFF785
:10576000A7FF10BD10B504466320FFF797FFE00ABE
:10577000FFF79EFF6420FFF791FFC4F34510FFF78A
:1057800097FF6520FFF78AFF04F01F00FFF790FFE7
:1057900010BD10B5044634B10120FFF77FFF802013
:1057A000FFF786FF05E00120FFF778FF0020FFF7F5
:1057B0007FFF10BD2DE9F0470746884615461E4677
:1057C000DDE9089400F0ECFA00F0B3F800F0CBF853
:1057D0003046FFF7B0FF2846FFF7C4FFB9F1000FCE
:1057E00002D000F0E9F801E000F0D9F8414638466F
:1057F00000F0EFF808E000F021FA0220FFF74EFF7A
:105800002078FFF755FF641C20780028F3D120781A
:105810000028F0D1BDE8F08710B5044600F0C0FACA
:105820000220FFF73BFF05E014F8010BFFF740FFF4
:1058300000F004FA20780028F6D1FFF722FF10BD0F
:1058400070B505460E4614463146284600F016FA55
:105850002146022000F0B1FA70BD2DE9F041044666
:105860000D4616461F46DDF818809120FFF716FFFB
:10587000E0B2FFF71DFF9220FFF710FF2012FFF7A5
:1058800017FF9320FFF70AFFE8B2FFF711FF9420FC
:10589000FFF704FF2812FFF70BFF9520FFF7FEFE2E
:1058A000F0B2FFF705FF9620FFF7F8FE3012FFF782
:1058B000FFFE9720FFF7F2FEF8B2FFF7F9FE9820FF
:1058C000FFF7ECFE3812FFF7F3FEB8F1000F09D036
:1058D0009020FFF7E3FE1020FFF7EAFEB020FFF76D
:1058E000E7FE08E09020FFF7D9FE1020FFF7E0FE6A
:1058F0009020FFF7DDFEBDE8F08110B52F20FFF707
:10590000CDFEFFF7D1FEC4B204F0FC0444F0010464
:105910002046FFF7CDFE10BD10B52F20FFF7BEFECD
:10592000FFF7C2FEC4B204F0E3042046FFF7C0FE56
:1059300010BD10B52120FFF7B1FEFFF7B5FEC4B2D0
:1059400004F07F042046FFF7B3FE10BD10B5212000
:10595000FFF7A4FEFFF7A8FEC4B244F020042046DF
:10596000FFF7A6FE10BD10B52120FFF797FEFFF749
:105970009BFEC4B204F0DF042046FFF799FE10BD81
:1059800010B52E20FFF78AFEFFF78EFEC4B204F09A
:105990003F0444F040042046FFF78AFE10BD10B5D6
:1059A0002220FFF77BFEFFF77FFEC4B204F0BF04A6
:1059B0002046FFF77DFE10BD10B52220FFF76EFEDA
:1059C000FFF772FEC4B244F040042046FFF770FEB9
:1059D00010BD70B505460C462A20FFF75FFE28462D
:1059E000FFF766FE2B20FFF759FE2812FFF760FE37
:1059F0002C20FFF753FE2046FFF75AFE2D20FFF71D
:105A00004DFE2012FFF754FE70BD10B52F20FFF79A
:105A100045FEFFF749FEC4B204F01F0444F08004C1
:105A20002046FFF745FE10BD10B54020FFF736FEBB
:105A3000FFF73AFEC4B204F07F042046FFF738FEB9
:105A400010BD00001CB501210620FDF747FC2020F9
:105A5000009001208DF8040003208DF8050000203F
:105A60008DF806008DF8070069461148FCF70EFF17
:105A70000120009000208DF8040003208DF805001F
:105A800000208DF8070069460A48FCF7FFFE022057
:105A9000009000208DF8040003208DF805000120FF
:105AA0008DF8070069460348FCF7F0FE1CBD0000B6
:105AB000000802400004024010B5FCF791FD64208C
:105AC000FFF7D0FDFFF7BEFF00BF20215348FCF7D2
:105AD00051FF0A20FFF7C6FD20215048FCF74CFF7C
