:020000040800F2
:10000000C80C0020D502000841640008691F0008E0
:100010003D640008471C0008F16C00080000000067
:10002000000000000000000000000000BB660008A7
:100030006D1D000800000000D3640008D1670008AF
:10004000EF020008EF020008EF020008EF020008CC
:10005000EF020008EF020008EF020008EF020008BC
:10006000EF020008EF020008EF020008EF020008AC
:10007000EF020008EF020008EF020008EF0200089C
:10008000EF020008EF020008EF020008EF0200088C
:10009000EF020008EF020008EF020008EF0200087C
:1000A000EF020008EF020008EF020008EF0200086C
:1000B0003D680008EF02000851680008EF020008E0
:1000C000EF020008EF020008EF020008EF0200084C
:1000D000EF020008696A0008EF020008EF0200085A
:1000E000EF020008EF020008EF020008EF0200082C
:1000F000EF020008EF020008EF020008EF0200081C
:10010000EF020008EF020008D9680008EF020008BB
:10011000EF020008EF020008EF020008EF020008FB
:10012000EF020008EF020008EF020008EF020008EB
:10013000EF020008EF020008EF020008EF020008DB
:10014000EF020008EF020008EF020008EF020008CB
:10015000EF020008EF020008EF020008EF020008BB
:10016000EF020008EF020008EF020008EF020008AB
:10017000EF020008EF020008EF020008EF0200089B
:10018000EF020008EF02000800F002F800F092F819
:100190000AA090E8000C82448344AAF10107DA45E2
:1001A00001D100F087F8AFF2090EBAE80F0013F0A2
:1001B000010F18BFFB1A43F001031847F491000028
:1001C00014920000103A24BF78C878C1FAD85207B8
:1001D00024BF30C830C144BF04680C6070470000C1
:1001E0000023002400250026103A28BF78C1FBD840
:1001F000520728BF30C148BF0B6070476E2900F01E
:100200007382702900F0CB83662907F06484652926
:1002100007F06184672907F05E84612907F05D8437
:1002200003681B0A28BF41F08001692900F0208281
:10023000642900F01D82752900F01A826F2900F0F0
:100240005883782900F09783E92900F0F382E429A4
:1002500000F0F082F52900F0ED82EF2900F05583DF
:10026000F82900F096830368DB0928BF41F080017C
:10027000632900F07482732900F07982E32900F089
:10028000CD87F32900F0D287002070471FB507F013
:100290001DFC01F01DF804000020002107F0C2FA47
:1002A000401C60600020002107F0A6FAE0601FBD3E
:1002B00010B510BD00F0DEFF1146FFF7E7FF06F0B6
:1002C0001DFE01F0B7F803B4FFF7F2FF03BC06F020
:1002D0008CFD00000948804709480047FEE7FEE71B
:1002E000FEE7FEE7FEE7FEE7FEE7FEE7FEE7FEE7E6
:1002F00004480549054A064B70470000D5670008C9
:1003000089010008C8060020C80C0020C808002089
:10031000C8080020704700001CB50C46064B7B4403
:1003200069460090204600F0F8F90446002069462E
:1003300000F006FA20461CBD1F0400000FB41CB5D7
:10034000084B06AA7B4469460090059800F0E5F941
:1003500004460020694600F0F3F920461CBC5DF815
:1003600014FB0000F903000070B50C460546012A95
:1003700005D02878800600D5EA69002302E0012331
:1003800005E05B1C934202D2E05C0028F9D1A86929
:10039000E618C01AA861286A18442862284600F0A6
:1003A0002DF904E0D5E9012114F8010B9047B4427E
:1003B000F8D3284600F038F970BD00002DE9F05F51
:1003C000894604464FF0000ADFF874B1FB44C0F8D8
:1003D00020A02046E1688847002874D0252806D050
:1003E000D4E901219047206A401C2062F1E70026F1
:1003F0005F462046E16888472028054607DB312D07
:1004000005D2781910F8200C08B10643F1E7B007BF
:1004100001D526F00406C4F81CA00027C4F818A0D3
:100420002A2D09D0284606F0D9FC38B304EB8708FA
:10043000303DC8F8185019E059F8041B204604EB69
:1004400087029161E1688847012F054618D1E0696C
:10045000002820DA26F020061DE0D8F8180000EB6E
:10046000800005EB40003038C8F818002046E168ED
:100470008847054606F0B2FC0028EED1012F0AD0CD
:100480002E2D08D12046E16888477F1C0546022FA3
:1004900046F02006C4DBA069002803DA404246F09B
:1004A0000106A061F00701D026F010066C2D0BD0DC
:1004B000682D09D04C2D39D06A2D35D0742D35D00A
:1004C0007A2D33D016E038E0E1682F462046884781
:1004D000B842054609D16C2F26D04FF48060E16800
:1004E000064320468847054604E06C2F1AD04FF497
:1004F000807006430DB3A5F14100192802D82035BC
:1005000046F400664A462946204626604E46FFF7D6
:1005100075FE80B101280BD0F61D26F0070000F112
:10052000080956E74020E4E78020D8E70020D6E716
:1005300006F104094DE7284652E7206ABDE8F09F1E
:10054000CE8E000030B505460B462A4613F8014B07
:1005500012F8010B08B1A042F8D01CB1002802D05B
:100560006D1CF1E7284630BD10B5431C02E010F8C1
:10057000011B71B18107FAD14FF0013202C88C1A08
:100580008C4314EAC211F9D0C01A0A0603D0C01E67
:1005900010BDC01A10BD0A0401D0801E10BD090292
:1005A000FCD0401E10BD4FF0000200B5134694462B
:1005B0009646203922BFA0E80C50A0E80C50B1F1BB
:1005C0002001BFF4F7AF090728BFA0E80C5048BFCF
:1005D0000CC05DF804EB890028BF40F8042B08BF6D
:1005E000704748BF20F8022B11F0804F18BF00F869
:1005F000012B7047704770477047704770B50446CD
:1006000085690068C10601D5302600E02026C007B4
:1006100007D070BDD4E9012130469047206A401CC4
:1006200020626D1EF6D570BD70B5044685690078F0
:10063000C00707D170BDD4E9012120209047206A6E
:10064000401C20626D1EF6D570BD09684A0501D5B3
:1006500040B27047C905FCD500B2704709684A0529
:1006600001D5C0B27047C905FCD580B27047000003
:100670002DE9F0410646002410687529314616A57B
:1006800010D0FFF7E2FF002802DA404213A507E08E
:1006900031688A0701D512A502E0490704D511A5E2
:1006A000012401E0FFF7DAFF00210A2206F1240706
:1006B00009E0B0FBF2FCB0FBF2F302FB1C003030AF
:1006C00078541846491C0028F3D123462A46304660
:1006D000BDE8F04100F0B3B9000000002D000000BB
:1006E0002B0000002000000011680268006A53051A
:1006F00001D508700AE0D30501D5088006E013068D
:1007000003D5C217C1E9000200E00860012070476C
:1007100001694A1C02610878704700B58FB0CDE9C5
:1007200001310021059105497944CDE903101146B5
:100730006846FFF743FE0FB000BD0000E5FFFFFF76
:100740000A6802F8010B0A60704710B5436913B1DB
:10075000AFF3008001E0FFF707FE012010BD127823
:1007600000F124010A7000224A700122EDE71168AD
:100770004FF0FF32E9E700002DE9FF5F15468A469A
:100780000446DFF8AC80F8440027D8E900103E4664
:10079000CDE9001010E03AF816106A4602A800F001
:1007A00049FD411C07D02178890603D5E269391833
:1007B00091420DD80744761C2078800602D5E06966
:1007C000B84205DDAE42E6DB3AF816000028E2D179
:1007D000A069C01BA0612046FFF710FFD8E90010F8
:1007E000CDE90010002017E03AF818106A4602A878
:1007F00000F020FDB0F1FF3F81460BD000250DF148
:10080000080B05E0D4E901211BF8050090476D1C99
:100810004D45F7D308F10100B0428046E4DB206A81
:10082000384420622046FFF7FFFEBDE8FF9F00002E
:10083000268B00002DE9F0418046D21D22F00702F0
:100840000025D2E90002F52915A614D0011E72F187
:10085000000106DA0023D0EB030063EB020211A6CD
:1008600008E0D8F800108B0701D50FA602E0490771
:1008700001D50EA601251146002408F1240704E045
:1008800000F098F830323A55641C50EA0102F7D172
:100890002B46324621464046BDE8F04100F0CFB835
:1008A000000000002D0000002B00000020000000D0
:1008B00030B4002100F1240408E002F00705D2085A
:1008C000303542EA4372DB086554491C52EA03059D
:1008D000F3D10468002310A2250707D5A40600D48D
:1008E00021B1C46901230DA2641EC46130BC00F0B3
:1008F000A6B810B5044621461068FFF7AFFE0246C1
:100900002046BDE810400023D2E7D21D22F00701A7
:10091000D1E90023CCE70000000000003000000017
:10092000F0B40D460188090502D5214C7C4402E053
:100930001F4C7C440E34002100F1240608E002F034
:100940000F071209E75D42EA03721B097754491C3D
:1009500052EA0307F3D102780023120704D5702D61
:1009600006D009B1022311342246F0BC00F067B86A
:1009700001231034F8E770B504460D46214610688F
:10098000FFF76CFE024629462046BDE87040002372
:10099000C6E7D21D22F00703D3E90023C0E70368AE
:1009A000126843F0200303600823C3610023B7E704
:1009B0008889000030B5B0F10A024FEA900E71F15B
:1009C00000034EEA817EB0EB0E0061EB91014FEA2D
:1009D000101E4EEA017E10EB0E0041EB11114FEAA2
:1009E000102E4EEA016E10EB0E0041EB11214FEA82
:1009F000104E4EEA014E10EB0E0041EB1141401833
:100A000041F100014FEAD00040EA41704FEAD101C4
:100A100010EB80054FEA810444EA907444EB010432
:100A20006D1944EB0404521BA3414FF0000348BF6F
:100A30000A3200D530BD401C41F1000130BD2DE926
:100A4000F0470D4699469246044600F12408016895
:100A5000880604D5E06921F01001216000E0012042
:100A6000A84201DD471B00E00027A1697A1902EBCB
:100A70000900081AA0612078C00602D42046FFF7BA
:100A8000BDFD002608E0D4E901211AF806009047D0
:100A9000206A401C761C20624E45F4DB2078C0069C
:100AA0000AD52046FFF7AAFD06E0D4E9012130204F
:100AB0009047206A401C2062381EA7F10107F4DC31
:100AC00007E0D4E9012118F805009047206A401C8E
:100AD0002062281EA5F10105F3DC2046FFF7A4FDE6
:100AE0002078000602D50220BDE8F0870120FBE750
:100AF00070472DE9FF4F0C461E464FF0FF378BB075
:100B0000D2E90001DDF860800A908A46C1F30A55F7
:100B100005B93D46002108464FF00000BAF1000F2C
:100B200000F4400005DA00EB80004FF4400101EAD8
:100B300050004FEA9059B9F1010F00DDB9460A980B
:100B400050EA4A000ED044F61050A5F2FF35454356
:100B50002F14B8F1000F1ED07542291E1EDDC9F1F9
:100B600000021CE0B8F1010F4FF0000001D030216D
:100B700003E0F24305E02154401CB042FBDB304669
:100B80000022002121540B99C1F80880C1E90020FE
:100B90000FB0BDE8F08FBD1B6D1CDEE74A4600DAE2
:100BA000694206A800F0D8FB06AB93E8070003AB48
:100BB00083E8070050460A9900F08AFC8DE8070098
:100BC000A0F500501F3800900398002D09DD42F277
:100BD0001F014A46084403A90390684600F0E9FE55
:100BE00008E0A0F500504A461F3803A90390684664
:100BF00000F0F3FE8DE807000004000C03D04FF076
:100C0000FF30410800E01046B8F1000F03D0002289
:100C1000009215461EE0751E05D4FFF7CBFE30325C
:100C200062556D1EF9D5B3460122084302D0002259
:100C30007F1C04E02078302801D100227F1E002A8A
:100C4000099786D01DE0112D07DAFFF7B3FE303289
:100C500062556D1C50EA0102F5D1084302D000989C
:100C6000C8B10EE00021681E05E0235C625C63549D
:100C70002254401E491C8142F7DBAB46A81B401E94
:100C80000990002004F80B000B98099AC0F808801E
:100C9000C0E9002B7CE711264FF0000859E72DE949
:100CA000F04F88460446D21D22F0070191B0D1E9E9
:100CB0000001CDE90A0106F079F802460B98C00F51
:100CC00001D02D2007E02068810701D52B2002E00C
:100CD000202101EAC000032A099001D0072A05DB80
:100CE00003464146204600F0F7FA0BE120788006E3
:100CF00001D5E06900E00620B8F1650F814606D015
:100D0000B8F1660F18D0B8F1670F70D131E000204C
:100D1000B9F1110F009001DB112301E009F101038A
:100D20000AAA01A90CA8FFF7E4FEDDE90C70002671
:100D300009F10105834647E001204B4600904FF042
:100D400000470AAA01A90CA8FFF7D3FEDDE90DB000
:100D50000C995D46002610B909F101000D18B9EB98
:100D6000050003D4C0F1FF3609F10105A5EB090028
:100D70002BE0B9F1010F01DA4FF001090020B9F1C0
:100D8000110F0090484601DD112300E003460AAA36
:100D900001A90CA8FFF7ADFEDDE90C704D46002659
:100DA0008346207800070AD4AB4500DA5D4601A8E7
:100DB000012D04DD411911F8011C302907D04F45E0
:100DC00002DA17F1040F04DA012082460FE06D1EEB
:100DD000EEE7002F02DCED1B3E4403E0781CA84246
:100DE00000DD7D1CB81B00F1010A4FF000472078A0
:100DF000000703D4AA4501DB4FF0FF3A0021B7F109
:100E0000004F0DF143088DF8431024D002202B230E
:100E1000002F01DA7F422D230A21021EA0F10100DA
:100E200000DC5FB197FBF1FC97FBF1F201FB1C7C4E
:100E300017460CF1300C08F801CDEEE7A8F10100DF
:100E400003702188090501D5452100E06521A0F145
:100E5000010800F8011C09980FA9A1EB0807FF1D64
:100E600000B10120411901EBEA70A1693844081A68
:100E7000401EA0612078C00602D42046FFF7BEFBCA
:100E8000099828B1D4E901219047206A401C2062CA
:100E90002078C00622D52046FFF7B0FB1EE0002ECA
:100EA00004DBB34502DD01A8805D00E03020D4E919
:100EB00001219047206A401C2062761CAAF10100A3
:100EC0005FEA000A0AD100F003FAC0680168405CDA
:100ED000D4E901219047206A401C2062281EA5F118
:100EE0000105DCDC07E0D4E9012118F8010B90478B
:100EF000206A401C2062381EA7F10107F3DC20465F
:100F0000FFF792FB032011B043E600002DE9F04FFC
:100F100004460D46D21D22F0070089B0D0E90097A3
:100F20004846394605F042FF0246F80F01D02D230E
:100F300007E02068810701D52B2302E0202101EA88
:100F4000C0038DF820300BB1012000E00020032AFF
:100F5000824601D0072A04DB2946204600F0BCF96E
:100F60003FE12078800601D40D2500E0E569C7F354
:100F70000A560D2D49DA00214FEA175B08464FF05B
:100F80000000002F00F4400007DA00EB80004FF46F
:100F9000400100EBD07001EA60008115012901DDFC
:100FA0004FF0FF3100224FEA850CBCF1180F06D339
:100FB0001346ACF118004FF08052C24003E04FF4EA
:100FC000801323FA0CF30CF10C0CBCF1200F04D3AA
:100FD000ACF1200C09FA0CF001E007FA0CF0002942
:100FE0004FF0004801DD18B90FE00ED140450CD399
:100FF00019EB02095F4121B9404502D19F4329EA1B
:101000000209BBEB175F00D0761C2088000502D5D3
:101010007B48784402E07A487844193808AA30239B
:1010200002F80A30037C0AF10101002E0AF1020ADB
:1010300053546A4602DC4FF0300101E04FF03101B9
:101040004FF001088DF8001002D0A6F2FF3603E041
:1010500059EA470100D06B4E002D02DC21780907C8
:1010600004D54FF002082E218DF80110C44600214E
:101070000BE0C7F303433F01C35C491C6D1E02F83C
:101080000830052908F1010801DA002DF1DC002102
:101090000CE000EB1973491C1B786D1E082902F83F
:1010A00008304FEA091908F1010801DA002DF0DCD7
:1010B00021688B0602D516E0A8F10108E04505DDA0
:1010C00002EB080313F8013C302BF5D0B8F1000F08
:1010D00009DD02EB080313F8013C2E2B03D10907AD
:1010E00001D4A8F10108002D05DD3E2102F8081009
:1010F0006D1E08F10108407C002E02F8080008F17E
:10110000010804DA2D20764202F8080002E02B20C4
:1011100002F808000A214FF47A70864208F10108AB
:101120000BDB96FBF0F3303302F8083096FBF0F35C
:1011300008F1010800FB136601E0642E0CDB64205B
:1011400096FBF0F3303302F8083096FBF0F308F129
:10115000010800FB136601E00A2E06DB96FBF1F0A6
:10116000303002F8080008F1010896FBF1F001FBAD
:101170001060303002F80800A16908F1010808EB9E
:10118000050202EB0A00081AA0612078C00602D40A
:101190002046FFF733FA216A08AE01EB0A0020620D
:1011A00004E0D4E9012116F8010B9047BAF1010AD5
:1011B000F7D22078C00602D52046FFF71FFA6E4608
:1011C00009E016F8010B3E280FD0D4E90121904721
:1011D000206A401C2062B8F10108F2D22046FFF7D5
:1011E00023FA09B00320BDE8F08F206A284420626A
:1011F00003E0D4E90121302090476D1EEBD3F8E7DE
:10120000DD82000002FCFFFF10B5436913B1AFF3AC
:10121000008001E0FFF7B0FA012010BD128800F154
:10122000240182840022C2840122EDE711684FF07C
:10123000FF32E9E770B516460C46054600F040F867
:10124000036893F80101012806D0FF2C0FD8185D20
:1012500068B101202C7070BDD3F8070132462146D9
:1012600003F2071303442846BDE8704018474FF0C7
:10127000FF3070BD754600F0E7F8AE4605006946E0
:10128000534620F00700854618B020B5FFF730F828
:10129000BDE820404FF000064FF000074FF0000877
:1012A0004FF0000B21F00701AC46ACE8C009ACE8F8
:1012B000C009ACE8C009ACE8C0098D467047000021
:1012C00010B500F005F8001D10BD00BF5965000005
:1012D00000487047840600202DE9F0411F4604466F
:1012E00003260168072A01F4006004DB08B116A593
:1012F00005E016A503E008B115A500E015A521F04D
:1013000010002060A069C01EA0610FB1401EA06146
:101310002046FFF773F94FB1D4E9012138469047D1
:10132000206A401C2062C01C206206E0206AFAE7A6
:10133000D4E9012115F8010B9047761EF8D220461A
:10134000FFF772F9BDE8F0814E414E006E616E000C
:10135000494E4600696E66002DE9F0478146164603
:101360008AB0334878440DC88DE80D003048784481
:10137000801C03AC0DC884E80D0041F69B30084486
:10138000372190FBF1F290FBF1F5A5F1800501FB0F
:1013900012041B3C02D56442012000E00020DFF86B
:1013A00090A080460027FA44AAF1BE0A0DE0E007AB
:1013B00009D03246684607EB47010AEB810100F08D
:1013C0000CFB8DE8070064107F1C002CEFD1184F38
:1013D0007F44AC3F18E0E80714D007EB04100DF190
:1013E000180A90E80E008AE80E00C068F04201D1A9
:1013F00098190890324606A903A800F0EEFA03AB4C
:1014000083E807006D10641C002DE4D13246694664
:10141000B8F1000F03A802D000F0CBFA01E000F011
:10142000DCFAC9E90001C9F808200AB0BDE8F08774
:101430001C80000010B50446AFF300802046BDE8D4
:101440001040FEF740BF00000048704764060020CF
:101450004FF0013C50F8042B51F8043B9A4221D143
:10146000A2EB0C03934313EACC1317D150F8042BCF
:1014700051F8043B9A4215D1A2EB0C03934313EAB3
:10148000CC130BD150F8042B51F8043B9A4209D1EC
:10149000A2EB0C03934313EACC13DBD04FF0000014
:1014A000704700BFD01A01BAB1FA81F101F01801FA
:1014B00022FA01F0CB40C1F12001DBB2C0B2C01A68
:1014C0002CFA01F3D11A914311EAC311E6D1704706
:1014D0005FEA400C08BF91F0000F4FEA8C234FEAFF
:1014E000C12243EA51514FEA1C5018BF00F5F040A9
:1014F0004FEA300018BF41F000415FEA6C5C00F039
:101500002980BCF1FF3F08BF40F080407047130CBA
:1015100006BF12044FF0100C4FF0000C130E04BF66
:1015200012020CF1080C130F04BF12010CF1040C91
:10153000930F04BF92000CF1020CD30F04BF5200B2
:101540000CF1010C11464FF00002A0F11F00A0EBBE
:101550000C00704711F0004F08BF704731F0004198
:101560003FF4D5AF0B0C06BF09044FF0100C4FF041
:10157000000C0B0E04BF09020CF1080C0B0F04BF8A
:1015800009010CF1040C8B0F04BF89000CF1020C53
:10159000CB0F04BF49000CF1010CCCF12003A0EBF0
:1015A0000C0022FA03F302FA0CF241EA030100F103
:1015B0000100704720F07F4C80EA030023F07F4752
:1015C000ACEB070303F57C5300F0004003F1FF038D
:1015D0002DE980494FEA154B09B44FEA144325EA37
:1015E0000B4E24EA03480FF2042606EB13274908A2
:1015F0003E785FEA320203FB0667C7F5000707FB88
:1016000006F64FEA54374FEAD64606F1020607FBC4
:10161000066CCCF1005C4FEA1C472CEA074C07FB38
:1016200006F40CFB06F504EB15464FEA961634BF9C
:1016300000204FF000404FEAD13706FB07FC4FEA8D
:101640001C4C0CFB0BF7D21B03FB0CF761EB0701E7
:101650000CFB0EF7B0EB074072EB17420CFB08F7E0
:1016600034BFA2EB0742B2EB074261EB17414FEAEE
:101670000C444FEA910706FB07FC4FEA1C4C0CFB9D
:101680000BF7B0EBC74072EB573203FB0CF734BFDC
:10169000A2EBC742B2EBC74261EB57310CFB0EF72E
:1016A000B0EBC70072EB57720CFB08F734BFA2EB2C
:1016B000C702B2EBC70261EB5771039F4FEA81612A
:1016C00041EA921104EBCC044FEAD1374FEA82622F
:1016D00006FB07FC42EA90124FEA80604FEA1C4C7E
:1016E0000CFB0BF7D21B03FB0CF761EB07010CFBA8
:1016F0000EF7B0EB074072EB17420CFB08F734BF54
:10170000A2EB0742B2EB074261EB17414FEA8C555F
:101710004FEA910704EB9C2406FB07FC4FEA1C4CA4
:101720000CFB0BF7B0EBC74072EB573203FB0CF727
:1017300034BFA2EBC742B2EBC74261EB57310CFB9F
:101740000EF7B0EBC70072EB57720CFB08F734BF13
:10175000A2EBC702B2EBC70261EB577115EB4C2548
:101760004FEA816141EA92114FEA82624FEAD13732
:1017700042EA901206FB07FC44F100044FEA806045
:101780004FEA1C4C0CFB0BF7D21B03FB0CF761EB75
:1017900007010CFB0EF7B0EB074072EB17420CFB96
:1017A00008F734BFA2EB0742B2EB074261EB1741E7
:1017B00015EB1C154FEA813141EA92414FEA823222
:1017C00042EA90424FEA80304FEA0C7644F100043E
:1017D00048EA03434EEA0B484FF0000EB2EB080C08
:1017E00071EB030724BF624639464EEB0E0E4FF0F5
:1017F000000B0018524149414BEB0B0BB2EB080CAC
:1018000071EB03077BF1000B24BF624639464EEBB8
:101810000E0E4FF0000B0018524149414BEB0B0BE1
:10182000B2EB080C71EB03077BF1000B24BF62469F
:1018300039464EEB0E0E51EA020718BF46F001067C
:1018400016EB0E7655F1000254F1000103D5BDE808
:101850008901BDE80088BDE88901BDE80048B619E6
:10186000524141EB0101A3F10103704780807F7E6B
:101870007D7C7B7A79787776767574737271717006
:101880006F6E6E6D6C6C6B6A6A69686867666665B8
:101890006464636362616160605F5F5E5E5D5D5C46
:1018A0005C5B5B5A5A5959585857575656555555B7
:1018B0005454535352525251515050504F4F4F4E17
:1018C0004E4D4D4D4C4C4C4B4B4B4A4A4A49494965
:1018D00048484847474747464646454545444444A7
:1018E000444343434342424242414141002B26D4B8
:1018F000770021D01CB54FEA370703B44FF0100032
:101900004FF010014FF000000FBCBDE810400BF18C
:10191000010BBBF1010F08BF5FEA170722BF12F1ED
:10192000010211F101014FF0004143F1000300F009
:10193000004043EA00007047F9D35708DAE746EA67
:10194000064613F1400F4FEA16461FDD13F1200F34
:10195000DFBF16430A46002120335B42C8D0C3F1E3
:10196000200746EA064602FA07F74FEA164646EA15
:101970000706C3F1200722FA03F201FA07F721FA5A
:1019800003F14FF0000342EA0702B1E746EA02061C
:1019900046EA06464FEA164646EA0106BCBF46EA54
:1019A0000646360C4FF000034FF000024FF00001E6
:1019B0009EE72DE9C048934630B491E8380007C847
:1019C00031EA400C48BF34EA430C03D5FFF7F2FD7F
:1019D000FFF78CFFF0BCBDE800882DE9C0489346B6
:1019E00030B491E8380007C810F0804F08BF13F0FA
:1019F000804F03D100F005F8FFF778FFF0BCBDE899
:101A0000008820F07F4780EA030023F07F4C07EB3B
:101A10000C03A3F57C5300F00040A3F1FE0392F009
:101A2000000F00F0B38095F0000F00F077802DE9F3
:101A300001494FEA11404FEA144621EA004800FBF1
:101A400006FC24EA064708FB06F607FB08F800FB3D
:101A500007F718EB06484CEB164C4FEA124B18EB05
:101A600007484FEA15464CEB174022EA0B4E0BFB9A
:101A700006FC25EA06470EFB06F607FB0EFE0BFBEF
:101A800007F71EEB064E4CEB164C4FF000061EEB14
:101A9000074E4CEB174B18EB0B0840F1000018EB0E
:101AA0000E0B58EB000840F100008F1A4FF00001B8
:101AB0003CBFC943661B14BFB5EB040C00213CBFFF
:101AC000C943F61B4FEA17444EEA8E0E27EA044537
:101AD0004FEA1C4704FB07622CEA074C05FB07F79B
:101AE0000CFB05F604FB0CFC16EB074642EB174219
:101AF00016EB0C4642EB1C421BEB060658EB0202AF
:101B0000414146EA9E0601D5BDE80189B619524118
:101B100041EB0101A3F10103BDE801894FEA14453E
:101B20004FEA114724EA054621EA074C05FB07F472
:101B300006FB07F70CFB06F105FB0CFC11EB07415C
:101B400044EB17444FEA124711EB0C4144EB1C44A1
:101B500022EA074C05FB07F206FB07F70CFB06F62B
:101B600005FB0CFC16EB074642EB174216EB0C4646
:101B700042EB1C456A1854F1000148BF7047B61982
:101B8000524141EB0101A3F10103704795F0000FB1
:101B900037D04FEA11424FEA144721EA024624EABD
:101BA000074C02FB07F106FB07F70CFB06F402FBF0
:101BB0000CFC14EB074441EB17414FEA154714EBBB
:101BC0000C4441EB1C4125EA074C02FB07F506FBE0
:101BD00007F70CFB06F602FB0CFC16EB074645EB81
:101BE000174516EB0C4645EB1C42121951F100014A
:101BF00048BF7047B619524141EB0101A3F10103FF
:101C000070474FEA14454FEA114724EA054621EA96
:101C1000074C05FB07F106FB07F70CFB06F24FF03C
:101C2000000605FB0CFC12EB074241EB174112EBDF
:101C30000C4251EB1C4148BF7047921841EB010127
:101C4000A3F10103704700BFFEE700007FB5044623
:101C50000126142501208DF8000003208DF80100D5
:101C6000601E282101EB800001900420029068464C
:101C700005F08AF903E0642005F0D8F86D1E1548D8
:101C8000008800F4004008B9002DF4D1F5B11148E6
:101C9000008800F40040D0B100200E4908800E48B2
:101CA00005F034FA0D480068A04210D10B48406896
:101CB0000B4908700948806848700848C0688870F7
:101CC00008468078012802D1012600E0012630462E
:101CD00004B070BD500000206200002064030020AA
:101CE000310000207FB504460026142501208DF820
:101CF000000003208DF80100601E80000190032089
:101D00000290684605F040F903E0642005F08EF883
:101D10006D1E1248008800F4004008B9002DF4D16F
:101D2000C5B10E48008800F40040A0B100200B4966
:101D300008800B4805F0EAF90A480068A0420AD179
:101D40000848406808494870064880688870084616
:101D5000467800E00026304604B070BD50000020F8
:101D600062000020640300202E0000207047000065
:101D700051B18200A2F1C042126842F00103820018
:101D8000A2F1C042136009E08200A2F1C0421268D1
:101D9000034B1A408300A3F1C0431A607047000050
:101DA000FEFF0F00D0E901121143C268114302691E
:101DB00011434269114382691143C2691143026AA6
:101DC0001143426A1143826A1143C26A1143026B92
:101DD000114302689200A2F1C04211608168082993
:101DE0000BD101688900A1F1C041096841F04002AE
:101DF00001688900A1F1C0410A60416B0968426B2A
:101E0000526841EA0211426B926841EA0221426B38
:101E1000928941EA0241426B128A41EA0251426BC5
:101E2000127D41EA0261426B926911430268521CC1
:101E30009200A2F1C0421160C16AB1F5804F1BD17E
:101E4000816B0968826B526841EA0211826B926869
:101E500041EA0221826B128A41EA0251826B127DB1
:101E600041EA0261826B9269114302689200A2F119
:101E7000C042C2F8041107E06FF0704201688900A7
:101E8000A1F1C041C1F804217047F0B50A46002114
:101E90000023002400BF3DE0012505FA01F3156889
:101EA00005EA03049C4234D105684F000326BE4076
:101EB000B543056015794E00B540066835430560A9
:101EC0001579012D02D01579022D16D185684F00A4
:101ED0000326BE40B543856055794E00B5408668FF
:101EE00035438560456801268E40B54345604568A9
:101EF00096798E40B6B235434560C5684F000326DB
:101F0000BE40B543C560D5794E00B540C66835437F
:101F1000C560491C1029BFD3F0BDF0B500230024D3
:101F20004D07ED0E02FA05F3CE1000F1200555F82D
:101F300026504E07F70E0F26BE40B543CF1000F1D6
:101F4000200646F82750CE1000F1200555F82650FF
:101F500045EA0304CE1000F1200545F82640F0BD07
:101F6000418370470183704700BFFEE70146084682
:101F70007047704770B504460026174805884088AA
:101F800045431548808846F60401884216D1124818
:101F90008079012812D100200F4988712A204881B8
:101FA0002B2088810021084604F07CF801200A4992
:101FB00088712B2048812A20888103E0002108466F
:101FC00004F070F804F022FA002602E003480480CE
:101FD000761CAE42FAD370BD540000208000006C25
:101FE00010B50446002C66D16C498871F020088039
:101FF0004FF4A07048800846808849F241318842F9
:102000000BD06648808846F60401884205D06348B4
:10201000808845F2103188421AD12C205F4908810E
:102020002A2048812B2088810846808846F60401B2
:10203000884205D05948808845F21031884206D13F
:102040004FF4A070554908804FF4F0704880A1E02B
:102050005248808845F21051884210D14FF43050D8
:102060004E4908814FF4285048814FF42C50888104
:102070004FF4F07008804FF4487048808AE0474879
:10208000808841F6631188420DD12C204349088194
:102090002B2048812A2088814FF4F07008804FF46B
:1020A0004870488076E022203C4908812020488101
:1020B000212088816EE00120384988714FF4A0709A
:1020C0000880F02048800846808849F241318842E3
:1020D00005D03248808845F21031884207D12C2043
:1020E0002E4908812A2048812B2088813FE02B48F7
:1020F000808846F60401884207D12C2027490881B0
:102100002B2048812A20888131E02448808845F2AC
:102110001051884210D14FF43050204908814FF4BB
:10212000285048814FF42C5088814FF44870088023
:102130004FF4F07048801AE01848808841F6631127
:1021400088420DD12C20154908812A2048812B2056
:1021500088814FF4487008804FF4F070488006E0A2
:1021600022200E49088121204881202088810B48A7
:10217000808846F60401884205D00848808845F2E8
:102180001031884206D14FF4F070044908804FF4B2
:10219000A0704880002003F00FFE10BD5400002006
:1021A00070B504460D4616465B48808849F24131B9
:1021B000884205D05848808845F21031884214D1B1
:1021C0005549488904F016F9201204F007F9E0B2E5
:1021D00004F004F95049888904F00CF9281204F03D
:1021E000FDF8E8B204F0FAF88CE04B48808845F23C
:1021F0001051884220D14849488904F0FBF8201248
:1022000004F0ECF844494989491C88B204F0F2F81A
:10221000E0B204F0E3F84049888904F0EBF82812B2
:1022200004F0DCF83C498989491C88B204F0E2F8E2
:10223000E8B204F0D3F865E03748808841F66311CE
:10224000884228D13448807920B933480088401E1C
:10225000001B84B23049488904F0CCF8201204F005
:10226000BDF8E0B204F0BAF8201204F0B7F8E0B21A
:1022700004F0B4F82849888904F0BCF8281204F066
:10228000ADF8E8B204F0AAF8281204F0A7F8E8B212
:1022900004F0A4F836E02048808846F6040188421D
:1022A0001DD11D488079012804D11B480088401E9B
:1022B000001B84B21849488904F09CF8201204F0ED
:1022C0008DF8E0B204F08AF81349888904F092F896
:1022D000281204F083F8E8B204F080F812E00E4807
:1022E0008079012804D10C480088401E001B84B26C
:1022F00009494889214604F093F807498889294605
:1023000004F08EF804480089044908804FF0D84052
:10231000A0F8806070BD0000540000207E00006CBA
:102320002DE9FC4F05460E4617469846DDF82C90E1
:10233000002001902748808846F60401884229D170
:1023400024488079012825D1AB46354621480088AC
:10235000C01B401E86B247461E480088A0EB0B00FB
:10236000401E1FFA80F800201A4988712A204881EF
:102370002B20888143463A4631462846CDF80090C6
:10238000FFF7CEFF0120134988712B2048812A20B6
:1023900088811DE0781B401C80B20190344615E016
:1023A0002146284603F07EFE04F030F84FF0000A84
:1023B00007E04FF0D840A0F880900AF101001FFA22
:1023C00080FA01988245F4DB601C84B24445E7DD65
:1023D000BDE8FC8F5400002000B5A1B00020209083
:1023E00001217A2004F0B4F80121084604F0C0F875
:1023F0004FF400401E9001208DF87C0000208DF8E5
:102400007E0002208DF87D0001208DF87F001EA93E
:10241000FE48FFF73AFD4CF233701E9002208DF813
:102420007C0000208DF87E0003208DF87D000120C7
:102430008DF87F001EA9F648FFF727FD4FF6807044
:102440001E9002208DF87C0000208DF87E00032075
:102450008DF87D0001208DF87F001EA9ED48FFF763
:1024600014FD4FF480501E9002208DF87C00002057
:102470008DF87E0003208DF87D0001208DF87F000F
:102480001EA9E548FFF701FD4FF480501E90022081
:102490008DF87C0000208DF87E0003208DF87D00F3
:1024A00001208DF87F001EA9DC48FFF7EEFC0C220E
:1024B0000021D748FFF731FD0C220121D448FFF756
:1024C0002CFD0C220421D248FFF727FD0C22052108
:1024D000CF48FFF722FD0C220821CD48FFF71DFD54
:1024E0000C220921CA48FFF718FD0C220A21C8480E
:1024F000FFF713FD0C220E21C548FFF70EFD0C223D
:102500000F21C348FFF709FD0C220721C148FFF73F
:1025100004FD0C220821BF48FFF7FFFC0C22092113
:10252000BC48FFF7FAFC0C220A21BA48FFF7F5FC79
:102530000C220B21B748FFF7F0FC0C221146B548DE
:10254000FFF7EBFC0C220D21B248FFF7E6FC0C2252
:102550000E21B048FFF7E1FC0C220F21AD48FFF738
:10256000DCFC0C221146AC48FFF7D7FC0C221146CC
:10257000AA48FFF7D2FC0F200890002009903C20C9
:102580000A9000200B900C900D900E900920019065
:1025900000200290082003900020049005900690EF
:1025A000079006200F90002010901190102012909C
:1025B0000020139015901490169017904FF48050AF
:1025C0001890002019904FF480401A9000201B9022
:1025D00008A81C9001A81D900FA8FFF7E3FB01219C
:1025E0000620FFF7C5FB322004F020FC012100206B
:1025F00003F016FF322004F019FC002003F0A0FBCA
:102600008749888008468088FF280ADB084680883A
:102610004FF6FF71884204D081488088B0F5134F8F
:102620007ED1D32003F0E6FE03F080FB7C49888056
:1026300003F07CFB7A49888003F078FB7849888036
:10264000084680884FF6FF7101EA002074498880AF
:1026500003F06CFB724989880843714988800846F9
:10266000808849F2413188425AD0BF2003F0C2FE2F
:1026700003F05CFB6A49888003F058FB6849888056
:1026800003F054FB6649888003F050FB644988805E
:10269000084680884FF6FF7101EA00206049888073
:1026A00003F044FB5E49898808435D4988800846F9
:1026B000808846F6040188427AD0D42003F09AFE3E
:1026C00003F034FB5649888003F030FB544988807E
:1026D00003F02CFB52498880084680884FF6FF7132
:1026E00001EA00204E49888003F020FB4C4989888C
:1026F00008434B4988800846808845F2103188425B
:1027000056D04FF45A4003F075FE03F00FFB4449D6
:1027100088804FF45B4003F06DFE03F007FB00E0A0
:1027200046E03F498880084680884FF6FF7101EAFD
:1027300000203B4988804FF45C4003F05BFE03F0CF
:10274000F5FA3749898808433549888008468088E2
:10275000B0F5004F02D145F2105088803048808893
:1027600045F21051884223D0A12003F043FE03F02C
:10277000DDFA2B49888003F0D9FA29498880084678
:1027800080884FF6FF7101EA00202549888003F018
:10279000CDFA2349898808432149888008468088E2
:1027A00045F26171884203D141F663101C4988806B
:1027B0001B48808849F24131884211D018488088EE
:1027C00045F2103188420BD01548808845F21051EF
:1027D000884205D01248808841F6631188422DD185
:1027E0001048006820F00F004FF02041C1F81C0194
:1027F0000846D0F81C0120F47060C1F81C0108469E
:10280000D0F81C0140F003000EE00000000402407C
:10281000000C024000100240001402400018024068
:10282000540000201C0100A0C1F81C010846D0F88B
:102830001C0140F40070C1F81C0128E0FB488088AE
:1028400046F60401884205D0F84880884CF20551CC
:1028500088421CD1F648006820F00F004FF020415C
:10286000C1F81C010846D0F81C0120F47060C1F8C2
:102870001C010846D0F81C0140F00A00C1F81C01F8
:102880000846D0F81C0140F44060C1F81C01E7483C
:10289000808849F2413188427ED1CF2003F0AAFDE1
:1028A000002003F09BFDC12003F098FD302003F0D1
:1028B00095FDED2003F09EFD642003F08FFD0320C5
:1028C00003F08CFD122003F089FD812003F086FDCA
:1028D000E82003F08FFD852003F080FD102003F039
:1028E0007DFD7A2003F07AFDCB2003F083FD3920B3
:1028F00003F074FD2C2003F071FD002003F06EFD49
:10290000342003F06BFD022003F068FDF72003F094
:1029100071FD202003F062FDEA2003F06BFD002032
:1029200003F05CFD002003F059FDC02003F062FDC0
:102930001B2003F053FDC12003F05CFD012003F0D8
:102940004DFDC52003F056FD302003F047FD30203B
:1029500003F044FDC72003F04DFDB72003F03EFD1A
:10296000362003F047FD482003F038FD3A2003F0FD
:1029700041FD552003F032FDB12003F03BFD002066
:1029800003F02CFD1A2003F029FDB62003F032FDE0
:102990000A2003F023FD00E097E0A22003F01EFDD3
:1029A000F22003F027FD002003F018FD262003F09D
:1029B00021FD012003F012FDE02003F01BFD0F209C
:1029C00003F00CFD2A2003F009FD282003F006FD8A
:1029D000082003F003FD0E2003F000FD082003F0A3
:1029E000FDFC542003F0FAFCA92003F0F7FC43207F
:1029F00003F0F4FC0A2003F0F1FC0F2003F0EEFCDE
:102A0000002003F0EBFC002003F0E8FC002003F0C2
:102A1000E5FC002003F0E2FCE12003F0EBFC0020E9
:102A200003F0DCFC152003F0D9FC172003F0D6FCE2
:102A3000072003F0D3FC112003F0D0FC062003F0A4
:102A4000CDFC2B2003F0CAFC562003F0C7FC3C2031
:102A500003F0C4FC052003F0C1FC102003F0BEFC11
:102A60000F2003F0BBFC3F2003F0B8FC3F2003F035
:102A7000B5FC0F2003F0B2FC2B2003F0BBFC0020C0
:102A800003F0ACFC002003F0A9FC012003F0A6FC3D
:102A90003F2003F0A3FC2A2003F0ACFC002003F04D
:102AA0009DFC002003F09AFC002003F097FCEF202F
:102AB00003F094FC112003F09DFC782004F0B6F99B
:102AC000292003F097FC03F021B95848808846F686
:102AD000040188427ED1112003F08CFC142004F004
:102AE000A5F9D02003F086FC072003F077FC4220F4
:102AF00003F074FC1D2003F071FCD12003F07AFC7C
:102B0000002003F06BFC1A2003F068FC092003F09E
:102B100065FCD22003F06EFC012003F05FFC222054
:102B200003F05CFCC02003F065FC102003F056FCB1
:102B30003B2003F053FC002003F050FC022003F084
:102B40004DFC112003F04AFCC52003F053FC032088
:102B500003F044FCC82003F04DFC002003F03EFCD1
:102B6000252003F03BFC212003F038FC052003F076
:102B700035FC002003F032FC0A2003F02FFC652016
:102B800003F02CFC252003F029FC772003F026FC21
:102B9000502003F023FC0F2003F020FC002003F062
:102BA0001DFCF82003F026FC012003F017FCFE209A
:102BB00003F020FC002003F011FC022003F00EFCC7
:102BC000202003F017FC362003F014FC082003F04B
:102BD00005FC00E02EE03A2003F00CFC552003F049
:102BE000FDFB2B2003F006FC002003F0F7FB002088
:102BF00003F0F4FB012003F0F1FB3F2003F0EEFBB8
:102C00002A2003F0F7FB002003F0E8FB002003F08C
:102C1000E5FB012003F0E2FBDF2003F0DFFB78207F
:102C200004F004F9292003F0E5FB4CE754000020F0
:102C30001C0100A0FE48808845F21031884240F017
:102C40007C87ED2003F0D6FB012003F0C7FBFE20BC
:102C500003F0C4FBEE2003F0CDFBDE2003F0BEFB4F
:102C6000212003F0BBFBF12003F0C4FB012003F0A3
:102C7000B5FBDF2003F0BEFB102003F0AFFBC42048
:102C800003F0B8FB8F2003F0A9FBC62003F0B2FBD2
:102C9000002003F0A3FBE22003F0A0FBE22003F0FE
:102CA0009DFBE22003F09AFBBF2003F0A3FBAA20C8
:102CB00003F094FBB02003F09DFB0D2003F08EFB8E
:102CC000002003F08BFB0D2003F088FB002003F0B5
:102CD00085FB112003F082FB002003F07FFB19200D
:102CE00003F07CFB002003F079FB212003F076FB4E
:102CF000002003F073FB2D2003F070FB002003F095
:102D00006DFB3D2003F06AFB002003F067FB5D20B4
:102D100003F064FB002003F061FB5D2003F05EFB29
:102D2000002003F05BFBB12003F064FB802003F084
:102D300055FB002003F052FB8B2003F04FFB0020DB
:102D400003F04CFB962003F049FB002003F046FB08
:102D5000B22003F04FFB002003F040FB002003F003
:102D60003DFB022003F03AFB002003F037FB032079
:102D700003F034FB002003F031FBB32003F03AFBF7
:102D8000002003F02BFB002003F028FB002003F0C1
:102D900025FB002003F022FB002003F01FFB002096
:102DA00003F01CFB002003F019FB002003F016FBCE
:102DB000002003F013FB002003F010FB002003F0C1
:102DC0000DFB002003F00AFB002003F007FB0020AE
:102DD00003F004FB002003F001FB002003F0FEFAE7
:102DE000002003F0FBFA002003F0F8FA002003F0C3
:102DF000F5FA002003F0F2FA002003F0EFFA0020C9
:102E000003F0ECFA002003F0E9FA002003F0E6FA00
:102E1000B42003F0EFFA8B2003F0E0FA002003F077
:102E2000DDFA962003F0DAFA002003F0D7FAA120A9
:102E300003F0D4FA002003F0D1FAB52003F0DAFA57
:102E4000022003F0CBFA002003F0C8FA032003F0BD
:102E5000C5FA002003F0C2FA042003F0BFFA0020F4
:102E600003F0BCFAB62003F0C5FA002003F0B6FA6E
:102E7000002003F0B3FAB72003F0BCFA002003F0FF
:102E8000ADFA002003F0AAFA3F2003F0A7FA0020D1
:102E900003F0A4FA5E2003F0A1FA002003F09EFAEA
:102EA000642003F09BFA002003F098FA8C2003F0D2
:102EB00095FA002003F092FAAC2003F08FFA00207C
:102EC00003F08CFADC2003F089FA002003F086FA84
:102ED000702003F083FA002003F080FA902003F0C2
:102EE0007DFA002003F07AFAEB2003F077FA002055
:102EF00003F074FADC2003F071FA002003F06EFA9C
:102F0000B82003F077FA002003F068FA002003F0FD
:102F100065FA002003F062FA002003F05FFA002057
:102F200003F05CFA002003F059FA002003F056FA8F
:102F3000002003F053FABA2003F05CFA242003F0D7
:102F40004DFA002003F04AFA002003F047FA00206F
:102F500003F044FAC12003F04DFA202003F03EFABA
:102F6000002003F03BFA542003F038FA002003F06D
:102F700035FAFF2003F032FA002003F02FFAC220C6
:102F800003F038FA0A2003F029FA002003F026FAA9
:102F9000042003F023FA002003F020FAC32003F0FA
:102FA00029FA3C2003F01AFA002003F017FA3A201D
:102FB00003F014FA002003F011FA392003F00EFA9E
:102FC000002003F00BFA372003F008FA002003F08A
:102FD00005FA3C2003F002FA002003F0FFF9362046
:102FE00003F0FCF9002003F0F9F9322003F0F6F9C0
:102FF000002003F0F3F92F2003F0F0F9002003F094
:10300000EDF92C2003F0EAF9002003F0E7F929207C
:1030100003F0E4F9002003F0E1F9262003F0DEF9E3
:10302000002003F0DBF9242003F0D8F9002001E0B0
:103030005400002003F0D2F9242003F0CFF900203F
:1030400003F0CCF9232003F0C9F9002003F0C6F9FE
:103050003C2003F0C3F9002003F0C0F9362003F050
:10306000BDF9002003F0BAF9322003F0B7F90020CF
:1030700003F0B4F92F2003F0B1F9002003F0AEF90A
:103080002C2003F0ABF9002003F0A8F9292003F06D
:10309000A5F9002003F0A2F9262003F09FF90020F3
:1030A00003F09CF9242003F099F9002003F096F92D
:1030B000242003F093F9002003F090F9232003F07B
:1030C0008DF9002003F08AF9C42003F093F96220FF
:1030D00003F084F9002003F081F9052003F07EF964
:1030E000002003F07BF9842003F078F9002003F03E
:1030F00075F9F02003F072F9002003F06FF9182041
:1031000003F06CF9002003F069F9A42003F066F9DC
:10311000002003F063F9182003F060F9002003F0A9
:103120005DF9502003F05AF9002003F057F90C2004
:1031300003F054F9002003F051F9172003F04EF981
:10314000002003F04BF9952003F048F9002003F02C
:1031500045F9F32003F042F9002003F03FF9E6209F
:1031600003F03CF9002003F039F9C52003F042F9DF
:10317000322003F033F9002003F030F9442003F04B
:103180002DF9002003F02AF9652003F027F900202B
:1031900003F024F9762003F021F9002003F01EF952
:1031A000882003F01BF9002003F018F9C62003F073
:1031B00021F9202003F012F9002003F00FF9172065
:1031C00003F00CF9002003F009F9012003F006F9DF
:1031D000002003F003F9C72003F00CF9002003F0EE
:1031E000FDF8002003F0FAF8002003F0F7F80020C3
:1031F00003F0F4F8C82003F0FDF8002003F0EEF827
:10320000002003F0EBF8002003F0E8F8002003F0C2
:10321000E5F8C92003F0EEF8002003F0DFF8002005
:1032200003F0DCF8002003F0D9F8002003F0D6F812
:10323000002003F0D3F8002003F0D0F8002003F0C2
:10324000CDF8002003F0CAF8002003F0C7F80020F2
:1032500003F0C4F8002003F0C1F8002003F0BEF82A
:10326000002003F0BBF8002003F0B8F8002003F0C2
:10327000B5F8002003F0B2F8E02003F0BBF8162008
:1032800003F0ACF8002003F0A9F81C2003F0A6F826
:10329000002003F0A3F8212003F0A0F8002003F0A1
:1032A0009DF8362003F09AF8002003F097F84620A6
:1032B00003F094F8002003F091F8522003F08EF808
:1032C000002003F08BF8642003F088F8002003F05E
:1032D00085F87A2003F082F8002003F07FF88B2035
:1032E00003F07CF8002003F079F8992003F076F8D9
:1032F000002003F073F8A82003F070F8002003F01A
:103300006DF8B92003F06AF8002003F067F8C420D4
:1033100003F064F8002003F061F8CA2003F05EF8BF
:10332000002003F05BF8D22003F058F8002003F0EF
:1033300055F8D92003F052F8002003F04FF8E020B0
:1033400003F04CF8002003F049F8F32003F046F8AE
:10335000002003F043F8E12003F04CF8162003F0BE
:103360003DF8002003F03AF81C2003F037F8002065
:1033700003F034F8222003F031F8002003F02EF897
:10338000362003F02BF8002003F028F8452003F046
:1033900025F8002003F022F8522003F01FF8002047
:1033A00003F01CF8642003F019F8002003F016F86D
:1033B0007A2003F013F8002003F010F88B2003F0BC
:1033C0000DF8002003F00AF8992003F007F8002018
:1033D00003F004F8A82003F001F8002002F0FEFF3B
:1033E000B92002F0FBFF002002F0F8FFC42002F039
:1033F000F5FF002002F0F2FFCA2002F0EFFF0020EC
:1034000002F0ECFFD22002F0E9FF002002F0E6FF1C
:10341000D82002F0E3FF002002F0E0FFE02002F0FD
:10342000DDFF002002F0DAFFF32002F0D7FF0020DA
:1034300002F0D4FFE22002F0DDFF052002F0CEFF13
:10344000002002F0CBFF0B2002F0C8FF002002F0AA
:10345000C5FF1B2002F0C2FF002002F0BFFF342096
:1034600002F0BCFF002002F0B9FF442002F0B6FFDA
:10347000002002F0B3FF4F2002F0B0FF002002F066
:10348000ADFF612002F0AAFF002002F0A7FF792023
:1034900002F0A4FF002002F0A1FF882002F09EFFAE
:1034A000002002F09BFF972002F098FF002002F01E
:1034B00095FFA62002F092FF002002F08FFFB720B8
:1034C00002F08CFF002002F089FFC22002F086FF8C
:1034D000002002F083FFC72002F080FF002002F0EE
:1034E0007DFFD12002F07AFF002002F077FFD62086
:1034F00002F074FF002002F071FFDD2002F06EFF89
:10350000002002F06BFFF32002F068FF002002F0C1
:1035100065FFE32002F06EFF052002F05FFF002050
:1035200002F05CFF0A2002F059FF002002F056FF73
:103530001C2002F053FF002002F050FF332002F065
:103540004DFF002002F04AFF442002F047FF002018
:1035500002F044FF502002F041FF002002F03EFF45
:10356000622002F03BFF002002F038FF782002F0DA
:1035700035FF002002F032FF882002F02FFF0020EC
:1035800002F02CFF972002F029FF002002F026FF16
:10359000A62002F023FF002002F020FFB72002F057
:1035A0001DFF002002F01AFFC22002F017FF0020CA
:1035B00002F014FFC72002F011FF002002F00EFFFE
:1035C000D12002F00BFF002002F008FFD52002F00E
:1035D00005FF002002F002FFDD2002F0FFFE0020C8
:1035E00002F0FCFEF32002F0F9FE002002F0F6FEED
:1035F000E42002F0FFFE012002F0F0FE002002F0C5
:10360000EDFE012002F0EAFE002002F0E7FE0220BB
:1036100002F0E4FE002002F0E1FE2A2002F0DEFECD
:10362000002002F0DBFE3C2002F0D8FE002002F079
:10363000D5FE4B2002F0D2FE002002F0CFFE5D202E
:1036400002F0CCFE002002F0C9FE742002F0C6FE9B
:10365000002002F0C3FE842002F0C0FE002002F031
:10366000BDFE932002F0BAFE002002F0B7FEA220B9
:1036700002F0B4FE002002F0B1FEB32002F0AEFE74
:10368000002002F0ABFEBE2002F0A8FE002002F0F7
:10369000A5FEC42002F0A2FE002002F09FFECD2075
:1036A00002F09CFE002002F099FED32002F096FE6C
:1036B000002002F093FEDD2002F090FE002002F0D8
:1036C0008DFEF32002F08AFE002002F087FEE52046
:1036D00002F090FE002002F081FE002002F07EFE4B
:1036E000002002F07BFE002002F078FE022002F0B3
:1036F00075FE002002F072FE292002F06FFE00200D
:1037000002F06CFE3C2002F069FE002002F066FE32
:103710004B2002F063FE002002F060FE5D2002F00C
:103720005DFE002002F05AFE742002F057FE0020D9
:1037300002F054FE842002F051FE002002F04EFE02
:10374000932002F04BFE002002F048FEA22002F07F
:1037500045FE002002F042FEB32002F03FFE0020B2
:1037600002F03CFEBE2002F039FE002002F036FEE0
:10377000C42002F033FE002002F030FECD2002F023
:103780002DFE002002F02AFED32002F027FE0020AA
:1037900002F024FEDC2002F021FE002002F01EFEDA
:1037A000F32002F01BFE002002F018FEE62002F0DB
:1037B00021FE112002F012FE002002F00FFE342044
:1037C00002F00CFE002002F009FE562002F006FE78
:1037D000002002F003FE762002F000FE002002F03E
:1037E000FDFD772002F0FAFD002002F0F7FD6620D3
:1037F00002F0F4FD002002F0F1FD882002F0EEFD61
:10380000002002F0EBFD992002F0E8FD002002F01C
:10381000E5FDBB2002F0E2FD002002F0DFFD992073
:1038200002F0DCFD002002F0D9FD662002F0D6FD9A
:10383000002002F0D3FD552002F0D0FD002002F060
:10384000CDFD552002F0CAFD002002F0C7FD452045
:1038500002F0C4FD002002F0C1FD432002F0BEFDD5
:10386000002002F0BBFD442002F0B8FD002002F071
:10387000B5FDE72002F0BEFD322002F0AFFD0020D2
:1038800002F0ACFD552002F0A9FD002002F0A6FDDB
:10389000762002F0A3FD002002F0A0FD662002F0D9
:1038A0009DFD002002F09AFD672002F097FD0020A8
:1038B00002F094FD672002F091FD002002F08EFDE1
:1038C000872002F08BFD002002F088FD992002F095
:1038D00085FD002002F082FDBB2002F07FFD00206C
:1038E00002F07CFD992002F079FD002002F076FDC7
:1038F000772002F073FD002002F070FD442002F0FA
:103900006DFD002002F06AFD562002F067FD0020E8
:1039100002F064FD232002F061FD002002F05EFD54
:10392000332002F05BFD002002F058FD452002F03C
:1039300055FD002002F052FDE82002F05BFD002062
:1039400002F04CFD002002F049FD992002F046FDF6
:10395000002002F043FD872002F040FD002002F02D
:103960003DFD882002F03AFD002002F037FD77206F
:1039700002F034FD002002F031FD662002F02EFD41
:10398000002002F02BFD882002F028FD002002F02C
:1039900025FDAA2002F022FD002002F01FFDBB2021
:1039A00002F01CFD002002F019FD992002F016FD26
:1039B000002002F013FD662002F010FD002002F04E
:1039C0000DFD552002F00AFD002002F007FD5520F4
:1039D00002F004FD002002F001FD442002F0FEFC94
:1039E000002002F0FBFC442002F0F8FC002002F072
:1039F000F5FC552002F0F2FC002002F0EFFCE9207B
:103A000002F0F8FCAA2002F0E9FC002002F0E6FC3B
:103A1000002002F0E3FC002002F0E0FC002002F0B5
:103A2000E9FCAA2002F0DAFCCF2002F0E3FC00203F
:103A300002F0D4FC002002F0D1FC002002F0CEFC09
:103A4000002002F0CBFC002002F0C8FC002002F0B5
:103A5000C5FC002002F0C2FC002002F0BFFC0020E8
:103A600002F0BCFC002002F0B9FC002002F0B6FC21
:103A7000002002F0B3FC002002F0B0FC002002F0B5
:103A8000ADFC002002F0AAFC002002F0A7FC002000
:103A900002F0A4FCF02002F0ADFC002002F09EFC3D
:103AA000502002F09BFC002002F098FC002002F065
:103AB00095FC002002F092FCF32002F09BFC002019
:103AC00002F08CFCF92002F095FC062002F086FC46
:103AD000102002F083FC292002F080FC002002F07C
:103AE0007DFC3A2002F086FC552002F077FC112084
:103AF00002F080FC642003F099F9292002F07AFC9E
:103B0000352002F077FC002002F068FC512002F022
:103B100071FCFF2002F062FC532002F06BFC2C20B1
:103B200002F05CFC552002F065FC822002F056FC9D
:103B30002C2002F05FFC02F0E9B8FE48808845F2D4
:103B4000105188427ED155214FF4704002F068FC3C
:103B5000AA214FF2010002F063FC52214FF2020051
:103B600002F05EFC08214FF2030002F059FC012133
:103B70004FF2040002F054FC0D214FF4304002F0EB
:103B80004FFC0D214BF2010002F04AFC0D214BF2DB
:103B9000020002F045FC34214FF4364002F040FCB4
:103BA00034214BF2016002F03BFC34214BF2026005
:103BB00002F036FC0D214FF4314002F031FC0D21B2
:103BC0004BF2011002F02CFC0D214BF2021002F01E
:103BD00027FC34214FF4374002F022FC34214BF211
:103BE000017002F01DFC34214BF2027002F018FC4F
:103BF00000214FF4324002F013FC00214BF201206F
:103C000002F00EFC00214BF2022002F009FC2421FC
:103C10004FF4384002F004FC24214BF6010002F07E
:103C2000FFFB24214BF6020002F0FAFB01214FF4C6
:103C30003F4002F0F5FB0F214FF4334002F0F0FB60
:103C40000F2100E0FEE34BF2013002F0E9FB0F210F
:103C50004BF2023002F0E4FB34214FF4394002F021
:103C6000DFFB34214BF6011002F0DAFB34214BF676
:103C7000021002F0D5FB08214FF4354002F0D0FBD2
:103C800008214BF2015002F0CBFB08214BF202500D
:103C900002F0C6FB03214FF4424002F0C1FB242195
:103CA0004FF43A4002F0BCFB24214BF6012002F015
:103CB000B7FB24214BF6022002F0B2FB00214FF4A7
:103CC0003C4002F0ADFB78214BF6014002F0A8FB2E
:103CD00000214BF6024002F0A3FB00214FF43D40CF
:103CE00002F09EFB78214BF6015002F099FB002177
:103CF0004BF6025002F094FB00214FF43E4002F0DC
:103D00008FFB64214BF6016002F08AFB00214FF427
:103D1000514002F085FB33214DF2011002F080FB8F
:103D200000214DF2021002F07BFB34214DF2031012
:103D300002F076FB00214DF2041002F071FB3A21F3
:103D40004DF2051002F06CFB00214DF2061002F05E
:103D500067FB4A214DF2071002F062FB00214DF291
:103D6000081002F05DFB5C214DF2091002F058FBD7
:103D700000214DF20A1002F053FB81214DF20B108D
:103D800002F04EFB00214DF20C1002F049FBA6217F
:103D90004DF20D1002F044FB00214DF20E1002F026
:103DA0003FFBE5214DF20F1002F03AFB01214DF2ED
:103DB000101002F035FB13214DF2111002F030FB10
:103DC00001214DF2121002F02BFB54214DF2131081
:103DD00002F026FB01214DF2141002F021FB82219A
:103DE0004DF2151002F01CFB01214DF2161002F0ED
:103DF00017FBCA214DF2171002F012FB02214DF2FF
:103E0000181002F00DFB00214DF2191002F008FB12
:103E100002214DF21A1002F003FB01214DF21B109A
:103E200002F0FEFA02214DF21C1002F0F9FA3421E0
:103E30004DF21D1002F0F4FA02214DF21E1002F0B4
:103E4000EFFA67214DF21F1002F0EAFA02214DF25B
:103E5000201002F0E5FA84214DF2211002F0E0FA80
:103E600002214DF2221002F0DBFAA4214DF22310C0
:103E700002F0D6FA02214DF2241002F0D1FAB72155
:103E80004DF2251002F0CCFA02214DF2261002F07C
:103E9000C7FACF214DF2271002F0C2FA02214DF2EB
:103EA000281002F0BDFADE214DF2291002F0B8FA16
:103EB00002214DF22A1002F0B3FAF2214DF22B103A
:103EC00002F0AEFA02214DF22C1002F0A9FAFE2106
:103ED0004DF22D1002F0A4FA03214DF22E1002F043
:103EE0009FFA10214DF22F1002F09AFA03214DF2A1
:103EF000301002F095FA33214DF2311002F090FAB1
:103F000003214DF2321002F08BFA6D214DF2331085
:103F100002F086FA00214FF4524002F081FA332178
:103F20004DF2012002F07CFA00214DF2022002F055
:103F300077FA01E05400002034214DF2032002F012
:103F40006FFA00214DF2042002F06AFA3A214DF294
:103F5000052002F065FA00214DF2062002F060FA19
:103F60004A214DF2072002F05BFA00214DF20820B1
:103F700002F056FA5C214DF2092002F051FA0021BC
:103F80004DF20A2002F04CFA81214DF20B2002F092
:103F900047FA00214DF20C2002F042FAA6214DF220
:103FA0000D2002F03DFA00214DF20E2002F038FA09
:103FB000E5214DF20F2002F033FA01214DF21020DD
:103FC00002F02EFA13214DF2112002F029FA0121FC
:103FD0004DF2122002F024FA54214DF2132002F087
:103FE0001FFA01214DF2142002F01AFA82214DF23B
:103FF000152002F015FA01214DF2162002F010FAF8
:10400000CA214DF2172002F00BFA02214DF21820BE
:1040100002F006FA00214DF2192002F001FA022105
:104020004DF21A2002F0FCF901214DF21B2002F0A2
:10403000F7F902214DF21C2002F0F2F934214DF281
:104040001D2002F0EDF902214DF21E2002F0E8F9E8
:1040500067214DF21F2002F0E3F902214DF22020EA
:1040600002F0DEF984214DF2212002F0D9F902217B
:104070004DF2222002F0D4F9A4214DF2232002F0C7
:10408000CFF902214DF2242002F0CAF9B7214DF2F6
:10409000252002F0C5F902214DF2262002F0C0F9D8
:1040A000CF214DF2272002F0BBF902214DF228204A
:1040B00002F0B6F9DE214DF2292002F0B1F9022119
:1040C0004DF22A2002F0ACF9F2214DF22B2002F041
:1040D000A7F902214DF22C2002F0A2F9FE214DF2A7
:1040E0002D2002F09DF903214DF22E2002F098F9C7
:1040F00010214DF22F2002F093F903214DF23020D0
:1041000002F08EF933214DF2312002F089F90321BA
:104110004DF2322002F084F96D214DF2332002F08D
:104120007FF900214FF4534002F07AF933214DF228
:10413000013002F075F900214DF2023002F070F901
:1041400034214DF2033002F06BF900214DF20430BE
:1041500002F066F93A214DF2053002F061F90021D2
:104160004DF2063002F05CF94A214DF2073002F0C0
:1041700057F900214DF2083002F052F95C214DF25E
:10418000093002F04DF900214DF20A3002F048F9F1
:1041900081214DF20B3002F043F900214DF20C3039
:1041A00002F03EF9A6214DF20D3002F039F900215E
:1041B0004DF20E3002F034F9E5214DF20F3002F0ED
:1041C0002FF901214DF2103002F02AF913214DF29E
:1041D000113002F025F901214DF2123002F020F9E0
:1041E00054214DF2133002F01BF901214DF214302D
:1041F00002F016F982214DF2153002F011F9012179
:104200004DF2163002F00CF9CA214DF2173002F0CF
:1042100007F902214DF2183002F002F900214DF2A7
:10422000193002F0FDF802214DF21A3002F0F8F8D0
:1042300001214DF21B3002F0F3F802214DF21C3047
:1042400002F0EEF834214DF21D3002F0E9F80221BF
:104250004DF21E3002F0E4F867214DF21F3002F0FB
:10426000DFF802214DF2203002F0DAF884214DF21D
:10427000213002F0D5F802214DF2223002F0D0F8C0
:10428000A4214DF2233002F0CBF802214DF224306C
:1042900002F0C6F8B7214DF2253002F0C1F8022134
:1042A0004DF2263002F0BCF8CF214DF2273002F05B
:1042B000B7F802214DF2283002F0B2F8DE214DF2BB
:1042C000293002F0ADF802214DF22A3002F0A8F8B0
:1042D000F2214DF22B3002F0A3F802214DF22C30E6
:1042E00002F09EF8FE214DF22D3002F099F80321E4
:1042F0004DF22E3002F094F810214DF22F3002F0E2
:104300008FF803214DF2303002F08AF833214DF25C
:10431000313002F085F803214DF2323002F080F89E
:104320006D214DF2333002F07BF800214FF4544000
:1043300002F076F833214DF2014002F071F80021CD
:104340004DF2024002F06CF834214DF2034002F0CD
:1043500067F800214DF2044002F062F83A214DF274
:10436000054002F05DF800214DF2064002F058F8D9
:104370004A214DF2074002F053F800214DF2084067
:1043800002F04EF85C214DF2094002F049F800219C
:104390004DF20A4002F044F881214DF20B4002F048
:1043A0003FF800214DF20C4002F03AF8A6214DF200
:1043B0000D4002F035F800214DF20E4002F030F8C9
:1043C000E5214DF20F4002F02BF801214DF2104093
:1043D00002F026F813214DF2114002F021F80121DC
:1043E0004DF2124002F01CF854214DF2134002F03D
:1043F00017F801214DF2144002F012F882214DF21B
:10440000154002F00DF801214DF2164002F008F8B7
:10441000CA214DF2174002F003F802214DF2184074
:1044200001F0FEFF00214DF2194001F0F9FF0221D9
:104430004DF21A4001F0F4FF01214DF21B4001F052
:10444000EFFF00E004E302214DF21C4001F0E8FF21
:1044500034214DF21D4001F0E3FF02214DF21E40D8
:1044600001F0DEFF67214DF21F4001F0D9FF02216C
:104470004DF2204001F0D4FF84214DF2214001F0A3
:10448000CFFF02214DF2224001F0CAFFA4214DF2DC
:10449000234001F0C5FF02214DF2244001F0C0FF8E
:1044A000B7214DF2254001F0BBFF02214DF226401D
:1044B00001F0B6FFCF214DF2274001F0B1FF0221FC
:1044C0004DF2284001F0ACFFDE214DF2294001F011
:1044D000A7FF02214DF22A4001F0A2FFF2214DF286
:1044E0002B4001F09DFF02214DF22C4001F098FF7E
:1044F000FE214DF22D4001F093FF03214DF22E409D
:1045000001F08EFF10214DF22F4001F089FF0321B1
:104510004DF2304001F084FF33214DF2314001F083
:104520007FFF03214DF2324001F07AFF6D214DF201
:10453000334001F075FF00214FF4554001F070FF4A
:1045400033214DF2015001F06BFF00214DF202507A
:1045500001F066FF34214DF2035001F061FF0021AC
:104560004DF2045001F05CFF3A214DF2055001F08C
:1045700057FF00214DF2065001F052FF4A214DF243
:10458000075001F04DFF00214DF2085001F048FFA7
:104590005C214DF2095001F043FF00214DF20A5019
:1045A00001F03EFF81214DF20B5001F039FF002157
:1045B0004DF20C5001F034FFA6214DF20D5001F0E8
:1045C0002FFF00214DF20E5001F02AFFE5214DF2A0
:1045D0000F5001F025FF01214DF2105001F020FF96
:1045E00013214DF2115001F01BFF01214DF2125029
:1045F00001F016FF54214DF2135001F011FF01217B
:104600004DF2145001F00CFF82214DF2155001F0D3
:1046100007FF01214DF2165001F002FFCA214DF2B1
:10462000175001F0FDFE02214DF2185001F0F8FE86
:1046300000214DF2195001F0F3FE02214DF21A5003
:1046400001F0EEFE01214DF21B5001F0E9FE0221C6
:104650004DF21C5001F0E4FE34214DF21D5001F0EA
:10466000DFFE02214DF21E5001F0DAFE67214DF20D
:104670001F5001F0D5FE02214DF2205001F0D0FE76
:1046800084214DF2215001F0CBFE02214DF2225047
:1046900001F0C6FEA4214DF2235001F0C1FE02211B
:1046A0004DF2245001F0BCFEB7214DF2255001F02F
:1046B000B7FE02214DF2265001F0B2FECF214DF29D
:1046C000275001F0ADFE02214DF2285001F0A8FE66
:1046D000DE214DF2295001F0A3FE02214DF22A50B5
:1046E00001F09EFEF2214DF22B5001F099FE0221C5
:1046F0004DF22C5001F094FEFE214DF22D5001F0B0
:104700008FFE03214DF22E5001F08AFE10214DF252
:104710002F5001F085FE03214DF2305001F080FE54
:1047200033214DF2315001F07BFE03214DF2325026
:1047300001F076FE6D214DF2335001F071FE002143
:104740004FF4564001F06CFE33214DF2016001F050
:1047500067FE00214DF2026001F062FE34214DF24D
:10476000036001F05DFE00214DF2046001F058FE8F
:104770003A214DF2056001F053FE00214DF2066032
:1047800001F04EFE4A214DF2076001F049FE002182
:104790004DF2086001F044FE5C214DF2096001F029
:1047A0003FFE00214DF20A6001F03AFE81214DF2F8
:1047B0000B6001F035FE00214DF20C6001F030FE7F
:1047C000A6214DF20D6001F02BFE00214DF20E608E
:1047D00001F026FEE5214DF20F6001F021FE0121DE
:1047E0004DF2106001F01CFE13214DF2116001F03A
:1047F00017FE01214DF2126001F012FE54214DF21C
:10480000136001F00DFE01214DF2146001F008FE6D
:1048100082214DF2156001F003FE01214DF2166078
:1048200001F0FEFDCA214DF2176001F0F9FD0221F1
:104830004DF2186001F0F4FD00214DF2196001F015
:10484000EFFD02214DF21A6001F0EAFD01214DF267
:104850001B6001F0E5FD02214DF21C6001F0E0FD5E
:1048600034214DF21D6001F0DBFD02214DF21E608E
:1048700001F0D6FD67214DF21F6001F0D1FD02214C
:104880004DF2206001F0CCFD84214DF2216001F059
:10489000C7FD02214DF2226001F0C2FDA4214DF2BC
:1048A000236001F0BDFD02214DF2246001F0B8FD4E
:1048B000B7214DF2256001F0B3FD02214DF22660D3
:1048C00001F0AEFDCF214DF2276001F0A9FD0221DC
:1048D0004DF2286001F0A4FDDE214DF2296001F0C7
:1048E0009FFD02214DF22A6001F09AFDF2214DF266
:1048F0002B6001F095FD02214DF22C6001F090FD3E
:10490000FE214DF22D6001F08BFD03214DF22E6052
:1049100001F086FD10214DF22F6001F081FD032191
:104920004DF2306001F07CFD33214DF2316001F039
:1049300077FD03214DF2326001F072FD6D214DF2E1
:10494000336001F06DFD55214FF4704001F068FDBA
:10495000AA214FF2010001F063FD52214FF2020043
:1049600001F05EFD08214FF2030001F059FD002126
:104970004FF2040001F054FDCC214FF4314001F01E
:104980004FFD00214BF2011001F04AFD05214FF4CB
:10499000364001F045FD70214FF4374001F040FDF5
:1049A00070214BF2017001F03BFD01214FF43840C2
:1049B00001F036FD03214BF6010001F031FD03212A
:1049C0004BF6020001F02CFD03214BF6030001F031
:1049D00027FD02214FF43C4001F022FD00214BF65F
:1049E000014001F01DFD00214BF6024001F018FDD1
:1049F000D0214FF4494001F013FD02214CF6011083
:104A000001F00EFD50214CF6021001F009FD50217D
:104A10004CF6031001F004FD50214CF6041001F097
:104A2000FFFC00214FF4545001F0FAFC55214FF4E3
:104A3000685001F0F5FC4FF4885001F0DBFC782061
:104A400002F010FA4FF4245001F0D4FC01F05EB9EA
:104A5000FE48808849F2253188427DD147F6F00131
:104A6000E52001F0DDFC4FF48071012001F0D8FC5D
:104A70004FF4E061022001F0D3FC41F23001032049
:104A800001F0CEFC0021042001F0CAFC40F202211A
:104A9000082001F0C5FC0021092001F0C1FC002123
:104AA0000A2001F0BDFC00210C2001F0B9FC00211E
:104AB0000D2001F0B5FC00210F2001F0B1FC002118
:104AC000102001F0ADFC0721112001F0A9FC00210C
:104AD000122001F0A5FC0021132001F0A1FC00210F
:104AE000072001F09DFC41F29061102001F098FC3C
:104AF00040F22721112001F093FC9D21122001F0AA
:104B00008FFC4FF4C851132001F08AFC2521292085
:104B100001F086FC0D212B2001F082FC07213020C2
:104B200001F07EFC40F20331312001F079FC0321D9
:104B3000322001F075FC40F20621352001F070FCB6
:104B40000821362001F06CFC40F20641372001F0CC
:104B500067FC4FF4417100E058E0382001F060FC40
:104B60000721392001F05CFC40F202613C2001F099
:104B700057FC08213D2001F053FC0021502001F09A
:104B80004FFCEF21512001F04BFC0021522001F09D
:104B900047FC40F23F11532001F042FC4FF4274103
:104BA000602001F03DFC0121612001F039FC002171
:104BB0006A2001F035FC0021802001F031FC002149
:104BC000812001F02DFC0021822001F029FC002130
:104BD000832001F025FC0021842001F021FC00212C
:104BE000852001F01DFC1021902001F019FC4FF4EC
:104BF000C061922001F014FC40F23311072001F053
:104C00000FFC2221002001F00BFC1FE78F48808859
:104C100049F2283188427DD141F28F01EC2001F028
:104C2000FFFB41F23421EF2001F0FAFB4FF48071D9
:104C3000012001F0F5FB4FF4E061022001F0F0FBF0
:104C400041F23001032001F0EBFB0021042001F0D0
:104C5000E7FB40F20221082001F0E2FB00210920DD
:104C600001F0DEFB00210A2001F0DAFB01210C201B
:104C700001F0D6FB00210D2001F0D2FB00210F2016
:104C800001F0CEFB0021102001F0CAFB072111200A
:104C900001F0C6FB0021122001F0C2FB002113200D
:104CA00001F0BEFB0121072001F0BAFB322002F027
:104CB000BDF841F29041102001F0B2FB40F22721F3
:104CC000112001F0ADFB322002F0B0F88A21122051
:104CD00001F0A6FB322002F0A9F84FF4D0511320C6
:104CE00001F09EFB0621292001F09AFB0D212B20CB
:104CF00001F096FB322002F099F80021202001F00B
:104D00008FFB0021212001F08BFB322002F08EF876
:104D1000002100E075E0302001F082FB40F20461E8
:104D2000312001F07DFB40F20531322001F078FBAB
:104D30000021352001F074FB40F60941362001F0D6
:104D40006FFB4FF40171372001F06AFB40F2013133
:104D5000382001F065FB40F20771392001F060FB5B
:104D600000213C2001F05CFB40F60A213D2001F0CF
:104D700057FB322002F05AF80021502001F050FB7E
:104D8000EF21512001F04CFB0021522001F048FBA3
:104D900040F23F11532001F043FB4FF427416020C4
:104DA00001F03EFB0121612001F03AFB00216A2065
:104DB00001F036FB0021802001F032FB0021812030
:104DC00001F02EFB0021822001F02AFB002183202C
:104DD00001F026FB0021842001F022FB0021852028
:104DE00001F01EFB1021902001F01AFB4FF4C0616E
:104DF000922001F015FB40F23311072001F010FB67
:104E000024E61248808849F2203188427ED1002170
:104E1000084601F005FB4FF48071012001F000FB12
:104E20004FF4E061022001F0FBFA41F2300103206F
:104E300001F0F6FA0021042001F0F2FA40F202211A
:104E4000082001F0EDFA0021092001E054000020C3
:104E500001F0E6FA00210A2001F0E2FA01210C201B
:104E600001F0DEFA00210D2001F0DAFA00210F2016
:104E700001F0D6FA322001F0D9FF40F201110720EB
:104E800001F0CEFA322001F0D1FF4FF4865110200C
:104E900001F0C6FA0721112001F0C2FA4FF488711F
:104EA000122001F0BDFA4FF43061132001F0B8FA7E
:104EB0000021292001F0B4FA44F210012B2001F066
:104EC000AFFA0021502001F0ABFAEF21512001F0A0
:104ED000A7FA0021522001F0A3FA40F23F1153201B
:104EE00001F09EFA4FF41C51602001F099FA012163
:104EF000612001F095FA00216A2001F091FA002169
:104F0000802001F08DFA0021812000E030E001F0E6
:104F100087FA0021822001F083FA0021832001F02A
:104F20007FFA0021842001F07BFA0021852001F026
:104F300077FA1021902001F073FA0021922001F0FD
:104F40006FFA0121932001F06BFA4FF488719520DC
:104F500001F066FA0021972001F062FA0021982002
:104F600001F05EFA40F27311072001F059FA6DE585
:104F7000FE48808849F2313188427DD141F21401E6
:104F8000E72001F04DFA4FF48071012001F048FA5A
:104F90004FF40071022001F043FA41F2380103207E
:104FA00001F03EFA40F20221082001F039FA002116
:104FB000092001F035FA00210A2001F031FA002120
:104FC0000C2001F02DFA00210D2001F029FA00211A
:104FD0000F2001F025FA0021102001F021FA07210D
:104FE000112001F01DFA0021122001F019FA002110
:104FF000132001F015FAC82001F018FF41F290616A
:10500000102001F00DFA40F22721112001F008FADA
:10501000322001F00BFF0C21122001F001FA3220A6
:1050200001F004FF4FF40061132001F0F9F91121A0
:10503000292001F0F5F90B212B2001F0F1F93220A4
:1050400001F0F4FE0021202001F0EAF940F23F11C6
:10505000212001F0E5F90021302001F0E1F94FF4C1
:105060008371312001F0DCF90021322001F0D8F900
:105070004FF40171352000E064E001F0D1F941F214
:105080000A61362001F0CCF940F20771372001F0B7
:10509000C7F94FF48371382001F0C2F940F207716B
:1050A000392001F0BDF940F202413C2001F0B8F98D
:1050B00040F60F413D2001F0B3F90021502001F0EE
:1050C000AFF9EF21512001F0ABF90021522001F09E
:1050D000A7F940F23F11532001F0A2F94FF41C51FF
:1050E000602001F09DF90121612001F099F9002172
:1050F0006A2001F095F90021802001F091F900214A
:10510000812001F08DF90021822001F089F9002130
:10511000832001F085F90021842001F081F900212C
:10512000852001F07DF91021902001F079F94FF4EC
:10513000C061922001F074F940F23311072001F0B0
:105140006FF983E48948808845F2084188427DD11F
:105150004FF48071012001F063F94FF4E061022007
:1051600001F05EF941F23001032001F059F900210C
:10517000042001F055F940F20721082001F050F910
:105180000021092001F04CF900210A2001F048F922
:1051900000210C2001F044F900210D2001F040F91C
:1051A00000210F2001F03CF9142001F03FFE41F2F4
:1051B000B061102001F034F90121112001F030F923
:1051C0000121172001F02CF94FF49C71122001F0FD
:1051D00027F94FF40061132001F022F90921292059
:1051E00001F01EF909212A2001F01AF90021A4205A
:1051F00001F016F90021502001F012F9EF215120A1
:1052000001F00EF90021522001F00AF940F23F119D
:10521000532001F005F94FF41C51602001F000F912
:105220000121612001F0FCF800216A2001F0F8F86A
:105230000021802001F0F4F80021812001F0F0F835
:105240000021822001F0ECF8002100E024E083201E
:1052500001F0E6F80021842001F0E2F80021852029
:1052600001F0DEF81321902001F0DAF800219220FD
:1052700001F0D6F80321932001F0D2F84FF48871A1
:10528000952001F0CDF840F27311072001F0C8F825
:10529000322001F0CBFDB8E43448808841F205515A
:1052A00088427DD10021072001F0BAF8322001F0B8
:1052B000BDFD4FF48E71122001F0B2F80121A4203F
:1052C00001F0AEF80F21082001F0AAF808210A2009
:1052D00001F0A6F808210D2001F0A2F840F20771B4
:1052E000302001F09DF80721312001F099F840F2BB
:1052F0000361322001F094F84FF4E061332001F0B3
:105300008FF840F20221342001F08AF80221352082
:1053100001F086F841F60F71362001F081F840F275
:105320000771372001F07CF80021382001F078F86F
:105330000021392001F074F840F207713A2001F0A1
:105340006FF800213B2001F06BF807213C2001F0B1
:1053500067F800213D2001F063F8322001F066FD7E
:105360000121072001F05CF8012101E05400002038
:10537000172001F055F8322001F058FD4FF4BD51CF
:10538000102001F04DF840F21721112001F048F8EB
:105390004FF48F71122001F043F84FF4706100E078
:1053A00098E0132001F03CF800212A2001F038F8A1
:1053B0000A21292001F034F84FF49F71122001F0E6
:1053C0002FF80021502001F02BF8EF21512001F09F
:1053D00027F80021522001F023F840F23F1153201A
:1053E00001F01EF84FF41C51602001F019F8012162
:1053F000612001F015F800216A2001F011F8002168
:10540000802001F00DF80021812001F009F8002131
:10541000822001F005F80021832001F001F800212D
:10542000842000F0FDFF0021852000F0F9FF13210A
:10543000902000F0F5FF4FF44071922000F0F0FF53
:105440000521932000F0ECFF0021952000F0E8FFFB
:105450000021972000F0E4FF0021982000F0E0FFF9
:105460004FF48071012000F0DBFF4FF4E061022077
:1054700000F0D6FF41F23801032000F0D1FF0021F7
:10548000042000F0CDFF00210C2000F0C9FF002116
:105490000F2000F0C5FF0021202000F0C1FF0021F7
:1054A000212000F0BDFF2121072000F0B9FF1420CA
:1054B00001F0BCFC6121072000F0B2FF142001F0D4
:1054C000B5FC40F27311072000F0AAFF142001F090
:1054D000ADFC95E4FE4880884BF2055188427CD1B2
:1054E0000021084600F09CFF0021084600F098FFCC
:1054F0000021084600F094FF0021084600F090FFCC
:105500000121A42000F08CFF142001F08FFC4FF447
:105510001C51602000F084FF40F20221082000F0BE
:105520007FFF4FF40571302000F07AFF43F21571D0
:10553000312000F075FF40F20461322000F070FF6E
:1055400040F61661332000F06BFF42F21121342047
:1055500000F066FF4FF4A851352000F061FF48F2DB
:105560000751362000F05CFF41F20741372000F080
:1055700057FF41F20341382000F052FF202139202B
:1055800000F04EFF1A21902000F04AFF0021102069
:1055900000F046FF0721112000F042FF00211220F9
:1055A00000F03EFF0021132000F03AFF142001F02C
:1055B0003DFC4FF4E661102000F032FF40F237115D
:1055C000112000F02DFF142001F030FC4FF4DC71AD
:1055D000122000F025FF142000E085E001F026FCF9
:1055E0004FF47061132000F01BFF80212A2000F08F
:1055F00017FF4821292000F013FF142001F016FCAA
:105600004FF48071012000F00BFF4FF4E0610220A5
:1056100000F006FF41F23801032000F001FF40F2E4
:105620000221082000F0FCFE00210A2000F0F8FE14
:1056300000210C2000F0F4FE00210D2000F0F0FE0F
:1056400030210E2000F0ECFE0021502000F0E8FE9A
:10565000EF21512000F0E4FE0021522000F0E0FE96
:1056600040F23F11532000F0DBFE4FF41C5160204C
:1056700000F0D6FE0121612000F0D2FE00216A2058
:1056800000F0CEFE1121902000F0CAFE4FF4C06160
:10569000922000F0C5FE40F20241932000F0C0FECF
:1056A0000221942000F0BCFE142001F0BFFB012178
:1056B000072000F0B5FE142001F0B8FB612107209F
:1056C00000F0AEFE40F27311072000F0A9FE0021A9
:1056D000202000F0A5FE0021212000F0A1FE2221C3
:1056E000002000F09DFE11E3794880884CF20551BE
:1056F00088427CD10021084600F092FE0021084635
:1057000000F08EFE142001F091FB0021084600F00D
:1057100087FE0021084600F083FE0021084600F0C5
:105720007FFE0021084600F07BFE0121A42000F04E
:1057300077FE142001F07AFB4FF41C51602000F03A
:105740006FFE40F60601082000F06AFE40F2037189
:10575000302000F065FE0121312000F061FE0421BF
:10576000322000F05DFE4FF48171332000F058FECE
:105770004FF44071342000F053FE40F20311352005
:1057800000F04EFE1F21362000F04AFE40F2037169
:10579000372000F045FE0121382000F041FE0421B1
:1057A000392000F03DFE1521902000F039FE4FF425
:1057B0008261102000F034FE40F24721112000F0F9
:1057C0002FFE4FF4DE71122000F02AFE4FF46061CC
:1057D000132000F025FE782001F028FB4FF48071A3
:1057E000012000F01DFE4FF40071022000E052E0A5
:1057F00000F016FE41F23001032000F011FE0821F6
:105800000A2000F00DFE00210C2000F009FE2021EE
:105810000E2000F005FE00210F2000F001FE002107
:10582000202000F0FDFD0021212000F0F9FD3D21A8
:105830002A2000F0F5FD142001F0F8FA2D2129208E
:1058400000F0EEFD0021502000F0EAFD4DF2EF01E6
:10585000512000F0E5FD0021522000F0E1FD40F272
:105860003F11532000F0DCFD0021612000F0D8FD45
:1058700000216A2000F0D4FD4FF44071922000F026
:10588000CFFD0521932000F0CBFD4FF48071072060
:1058900000F0C6FD3AE20E48808844F23151884259
:1058A0007ED10121002000F0BBFD0A2001F0BEFAEC
:1058B00041F22861102000F0B3FD0E21122000F00B
:1058C000AFFD40F63921132000F0AAFD0A2001E0C7
:1058D0005400002001F0AAFA4021112000F0A0FDA0
:1058E0005021152000F09CFD0A2001F09FFA1E2196
:1058F000122000F095FD0A2001F098FA4FF4B15102
:10590000102000F08DFD42F63921132000F088FDB3
:105910000A2001F08BFA4FF48071012000F080FD25
:105920004FF44071022000F07BFD41F2380103206A
:1059300000F076FD40F20221082000F071FD082100
:105940000A2000F06DFD0021302000F069FD40F2DA
:105950000241312000F064FD4FF48371322000F0E9
:105960005FFD40F20351332000F05AFD4FF4827185
:10597000342000F055FD40F20131352000F050FD9B
:1059800040F20771362000F04BFD40F20531372020
:1059900000F046FD4FF40271382000F041FD00E0B8
:1059A0003EE040F60B71392000F03AFD0221412023
:1059B00000F036FD4FF41C51602000F031FD012154
:1059C000612000F02DFD4FF40471902000F028FDBF
:1059D0004FF48571922000F023FD0421932000F004
:1059E0001FFD4FF48071A02000F01AFD0121072057
:1059F00000F016FD2121072000F012FD23210720D1
:105A000000F00EFD3321072000F00AFD40F23311B3
:105A1000072000F005FD0021A02000F001FD75E148
:105A2000C048808844F2355188427CD1302115200D
:105A300000F0F6FC10219A2000F0F2FC2021112049
:105A400000F0EEFC43F22841102000F0E9FC0221B6
:105A5000122000F0E5FC41F23801132000F0E0FCD8
:105A6000282001F0E3F91221084600F0D9FC282093
:105A700001F0DCF943F22041102000F0D1FC43F2A8
:105A80003801132000F0CCFC462001F0CFF90021B2
:105A9000302000F0C5FC40F20241312000F0C0FC93
:105AA00040F20731322000F0BBFC4FF4417133204B
:105AB00000F0B6FC0421342000F0B2FC40F20141B9
:105AC000352000F0ADFC40F20771362000F0A8FC54
:105AD00040F20531372000F0A3FC4FF4C2613820BA
