:020000040801F1
:10000000B85F002035330108B5050108B7050108C0
:10001000BB050108BF050108C30501080000000079
:10002000000000000000000000000000C7050108FB
:10003000C905010800000000CB050108CD560108E4
:100040004F3301084F3301084F3301084F33010884
:100050004F3301084F3301084F3301084F33010874
:100060004F3301084F3301084F3301084F33010864
:100070004F3301084F3301084F3301084F33010854
:100080004F3301084F3301084F3301084F33010844
:100090009F2F01084F3301084F3301084F330108E8
:1000A0004F3301084F3301084F3301084F33010824
:1000B0004F3301084F330108210201084F33010873
:1000C0004F3301084F3301084F3301084F33010804
:1000D0004F3301084F3301087F2601088B280108A0
:1000E0004F3301084F3301084F3301084F330108E4
:1000F0004F3301084F3301084F3301084F330108D4
:100100004F3301084F3301084F3301084F330108C3
:100110001F210108552501084F3301084F330108FD
:100120004F3301084F3301084F3301084F330108A3
:100130004F3301084F3301084F3301084F33010893
:100140005B3101084F3301084F330108B1AB01089F
:100150004F3301084F3301084F3301084F33010873
:100160004F3301084F3301084F3301084F33010863
:100170004F3301084F3301084F3301084F33010853
:100180004F3301084F330108DFF80CD010F00AF8A4
:100190000048004737040108B85F00201FB501215F
:1001A000042003F0B6FCF04805F060FBEE4806F0D2
:1001B000F0F82920ADF800000020ADF80800ADF8F7
:1001C0000200632001906946E74805F0FCFB01212D
:1001D000E54806F0ADF80021E34805F05FFC1E207D
:1001E0008DF80C0001208DF80D0000208DF80E0018
:1001F00001208DF80F0003A803F0B3F80121DA48BD
:1002000006F096F80021D84805F026FC0122114698
:10021000D54806F079F80121D34805F05DFC1FBDF3
:1002200010B50121D04806F086F800B30121CE4870
:1002300006F092F8CD480068401CCC49086008469A
:100240000068142804D9002008600120C8490870FB
:10025000C8480068401CC749086044F620618842CD
:1002600005D90020C34908600120C349087010BDAA
:100270007FB500250E21722000F098FCBF48006871
:10028000BF490860BD48001D00684860BB48083091
:1002900000688860A5208DF80000084600788DF879
:1002A000010008460088000A8DF802000846006830
:1002B000000C8DF8030008460068000E8DF804005D
:1002C000084600798DF8050008468088000A8DF8F8
:1002D000060008464068000C8DF807000846406894
:1002E000000E8DF808000846007A8DF809000846CF
:1002F0000089000A8DF80A0008468068000C8DF815
:100300000B0008468068000E8DF80C005A208DF80E
:100310000D00002409E01DF804009A49095D884297
:1003200001D0012503E0601CC4B20E2CF3DB00BF3A
:10033000284604B070BD1FB50F21712000F036FCB7
:1003400090484078A52803D18E48407B5A2858D041
:100350008A4800688A4908608848001D006848602B
:100360008648083000688860A5208DF8000008469F
:1003700000788DF8010008460088000A8DF8020018
:1003800008460068000C8DF8030008460068000E5F
:100390008DF80400084600798DF80500084680882D
:1003A000000A8DF8060008464068000C8DF807002A
:1003B00008464068000E8DF808000846007A8DF85F
:1003C000090008460089000A8DF80A00084680687E
:1003D000000C8DF80B0008468068000E8DF80C00AC
:1003E0005A208DF80D00002405E01DF80400664930
:1003F0000855601CC4B20E2CF7DB0E21722000F0F1
:10040000FBFB1FBD1CB50121042003F039FB4FF499
:100410000070009001208DF8040000208DF8060087
:1004200003208DF8050001208DF807006946574824
:1004300003F088F81CBD08B500BF4FF48031C80236
:1004400002F0C4FF4FF4A06002F086FF0121080310
:1004500003F016FB05F0F6F8A82002F0E9FE0020F4
:100460000E2301220221009002F0C6FC00200E2380
:1004700001220221009002F0F1FD00F0EEF9FFF7F9
:10048000C1FF01F032FC01F045FB01F05AFA40488F
:100490000078012801D1FFF74EFFFFF7E9FE3D4943
:1004A000087000F013FE4FF400713B480FF0F5FCAC
:1004B00005F0C8F801224FF47A71002005F05BF9CD
:1004C000FFF76CFE0AF010FC4FF6FF704FF4F0736C
:1004D0004FF448720021009008460AF016FC00F024
:1004E000D6FD3AE000202D4908700EE02C482B493B
:1004F000097830F811200021284800780FF016F90B
:1005000026480078401C25490870244800780428B3
:10051000ECDB24480078012802D100202149087032
:1005200021480078012802D100201F490870124894
:100530000078012811D100200F4908701B4800786D
:1005400002F03CFD19480078401C18490870084624
:100550000078082801DD05200870C3E700207047F7
:10056000012013490870704700080040680200200D
:100570001E0200202002002024020020107AFF1F0B
:100580003C260020A8330020E03200200008024072
:100590006402002065020020E03000206C02002090
:1005A00026020020B5040020B404002067020020C9
:1005B0005A020020704700BFFEE700BFFEE700BF01
:1005C000FEE700BFFEE77047704770470CB500209C
:1005D000019000907648006840F4803074490860CB
:1005E00000BF7348006800F4003000900198401C80
:1005F0000190009818B90198B0F5A04FF1D16C485E
:10060000006800F4003010B10120009001E00020EB
:1006100000900098012846D165484030006840F0BD
:1006200080506349403108606248006840F44040AF
:10063000604908605E48083000685D49083108601C
:100640000846006840F4004008600846006840F42E
:10065000A05008605848091F0860081F006840F053
:100660008070091F086000BF5148006800F00070EA
:100670000028F9D040F20570504908604C48083015
:10068000006820F003004A49083108600846006805
:1006900040F00200086000BF45480830006800F0E4
:1006A0000C000828F8D10CBD10B54548006840F48E
:1006B0007000434908603E48006840F001003C4932
:1006C000086000203A4908310860394800683D490F
:1006D0000840374908603C48091D0860081F006849
:1006E00020F48020091F0860002031490C31086087
:1006F000FFF76CFF4FF0006031498039086010BD92
:1007000070B500200022022300240221284D083564
:100710002D6805F00C0020B1042806D0082834D13B
:1007200007E02A4D2A4E356033E02A4D284E3560C9
:100730002FE01F4D2D1D2D68C5F380541C4D2D1D20
:100740002D6805F03F0154B1224DB5FBF1F5184E6F
:10075000361D3668C6F3881605FB06F209E01B4D08
:10076000B5FBF1F5124E361D3668C6F3881605FB4B
:1007700006F20F4D2D1D2D68C5F301456D1C6B0054
:10078000B2FBF3F5124E356003E0104D104E3560AC
:1007900000BF00BF064D08352D68C5F303150E4E8A
:1007A000705D0B4D2D68C540094E356070BD000071
:1007B000003802400070004008544007003C0240EE
:1007C00088ED00E0FFFFF6FE103000240024F40066
:1007D0007002002000127A0074020020002100E064
:1007E000491C8142FCD370470246002105E0481CA9
:1007F000C1B2C82901DD00207047F748008800F029
:1008000002000028F3D0F448001D0280002105E01A
:10081000481CC1B2C82901DD0020EDE7EE48008880
:1008200000F001000028F3D0EB48001D0088C0B2A2
:10083000E2E710B5C820FFF7D1FF4FF48051E74839
:1008400002F0FCFE10BD10B54FF48051E34802F0F9
:10085000F7FEC820FFF7C2FF10BD00B587B0012129
:10086000880303F056F90121022003F009F9002161
:10087000D948083804F0ECFD05220E21D74802F0D3
:10088000ECFE05220F21D54802F0E7FE05220D21DE
:10089000D24802F0E2FE4FF46040059002208DF84D
:1008A000180003208DF8190000208DF81A008DF82B
:1008B0001B0005A9C94802F045FE4FF48050059081
:1008C00002208DF8190001208DF8180003208DF802
:1008D000190000208DF81A008DF81B0005A9BF48EB
:1008E00002F030FE0020ADF800004FF48270ADF849
:1008F00002000020ADF804000220ADF8060001203F
:10090000ADF808004002ADF80A001020ADF80C0068
:100910000020ADF80E000720ADF810000121AE4810
:10092000083804F0D3FD6946AB48083804F096FC5B
:100930000121A948083804F08BFD4FF48051A748E5
:1009400002F07CFE07B000BD0246002105E0481C15
:1009500081B2C82901DD002070479F48008800F05F
:1009600002000028F3D09C48001D0280002105E011
:10097000481C81B2C82901DD0020EDE796480088B7
:1009800000F001000028F3D09348001D0088C0B299
:10099000E2E710B5FFF757FF0620FFF7D5FFFFF797
:1009A00048FF10BD10B5FFF74EFF0420FFF7CCFF46
:1009B000FFF73FFF10BD10B5FFF7EBFFFFF743FF59
:1009C0000120FFF7C1FF8220FFF7BEFFFFF731FFD5
:1009D00010BD10B5FFF7DDFFFFF735FF0520FFF76E
:1009E000B3FF0020FFF7B0FF0446FFF722FF2046C9
:1009F00010BD70B504460E46FFF7CBFFFFF723FF8F
:100A00000220FFF7A1FFC4F30720FFF79DFFE0B22C
:100A1000FFF79AFF3046FFF797FFFFF70AFF00BF87
:100A2000FFF7D7FF054605F001000028F8D170BD9B
:100A30002DE9F04104460D461646FFF7AAFFFFF7E1
:100A400002FF0220FFF780FFC4F30720FFF77CFFBF
:100A5000E0B2FFF779FF002705E02878FFF774FF81
:100A60006D1C781CC7B2B742F7DBFFF7E2FEBDE8AA
:100A7000F08170B50446FFF7E6FE0320FFF764FF40
:100A8000C4F30720FFF760FFE0B2FFF75DFF00202F
:100A9000FFF75AFF0546FFF7CCFE284670BD10B59C
:100AA0000024FFF7D0FE0520FFF79EFEFF20FFF792
:100AB0009BFE0446FFF7BDFE204610BD10B5044660
:100AC000FFF7C1FE0120FFF78FFE2046FFF78CFEE7
:100AD000FFF7AFFE10BD10B5FFF7B5FE0620FFF71C
:100AE00083FEFFF7A6FE10BD10B5FFF7ACFE042095
:100AF000FFF77AFEFFF79DFE10BD10B500BFFFF7B0
:100B0000CEFF00F001000028F9D110BD70B50446F9
:100B1000FFF799FE002501E0681CC5B2082DFBDB3C
:100B20000320FFF761FEC4F30720FFF75DFEE0B28C
:100B3000FFF75AFEFF20FFF757FE0646FFF7DDFFDF
:100B4000FFF777FE304670BD70B504460D46FFF7DF
:100B5000C2FF6420FFF742FEFFF7A1FF6420FFF70A
:100B60003DFEFFF770FE6420FFF738FE0220FFF71E
:100B70003BFE6420FFF732FEC4F30720FFF734FE8C
:100B80006420FFF72BFEE0B2FFF72EFE6420FFF794
:100B900025FE2846FFF728FE4FF4FA60FFF71EFEF9
:100BA000FFF747FE6420FFF719FE70BD70B50546DC
:100BB0000E46002406E02819FFF75BFF0849085598
:100BC000601C84B2B442F6DB70BD2DE9F0410546ED
:100BD0000E46174600240BE008380040000402408F
:100BE000A83300203019FFF791FF2855601C84B20C
:100BF000BC42F7DBBDE8F08170B505460E46002427
:100C000006E00D4A115D2819FFF7F3FE601C84B25F
:100C1000B442F6DB70BD2DE9F04105460E4617469D
:100C2000002405E0295D3019FFF78EFF601C84B2B7
:100C3000BC42F7DBBDE8F081E032002000210AE091
:100C4000FE48405C012804D00120FC4A505408466C
:100C50007047481CC1B21429F2DB0020F8E70021DC
:100C6000F64A115470470146F448405C08B9012027
:100C700070470020FCE710B50346002003E00C5C41
:100C80001C54441CE0B29042F9DB10BD10B5034681
:100C9000002005E031F8104023F81040441CA0B2B9
:100CA0009042F7DB10BD2DE9F043B3B005460024B8
:100CB000A14607242E5D0EB9012000E00020032E7E
:100CC00001D1012100E000210843062E01D10121BC
:100CD00000E00021084300285AD016B1062E2ED17C
:100CE00000E031E0E978A87801EB0028B8F1000FC6
:100CF00022D3B8F1670F1FD82046611CCCB201A9DE
:100D00000E54AA782046611CCCB201A90A54EA7894
:100D10002046611CCCB201A90A542A792046611CE4
:100D2000CCB201A90A546A792046611CCCB201A94F
:100D30000A544FF0000901E04FF0100904E04FF0B1
:100D4000FF3033B0BDE8F08300BFFFF777FF074601
:100D5000380A8DF804008DF8057000208DF8060023
:100D60008DF80700A01F000A8DF80800A01FC0B270
:100D70008DF8090028788DF80A00C821B0480FF0D6
:100D80008CF8224601A9AE48FFF775FFAD48047004
:100D90000020D6E770472DE9F04FADF5017D0546FF
:100DA0000024A246A3460624281990F80190B9F120
:100DB000000F01D1012000E00020B9F1030F01D1A3
:100DC000012100E000210843B9F1060F01D1012102
:100DD00000E000210843B9F1100F01D1012100E02A
:100DE00000210843B9F1170F01D1012100E00021D2
:100DF000084300287DD0285D03A90855B9F1000FEC
:100E000009D0B9F1030F75D0B9F1060F04D0B9F1CB
:100E1000100F70D154E0EBE0E01C295CA01C285CB2
:100E200001EB0026601D295C201D285C01EB0027DA
:100E3000601CC4B2285D03A90855601CC4B2285DBB
:100E40000855601CC4B2285D0855601CC4B2285DFA
:100E50000855601CC4B2285D0855601CC4B2285DEA
:100E600008551F2E2BD1F8B2552808D14FF4007128
:100E7000754802F0E3FB55207449C8671FE04FF442
:100E80000071714802F0DCFB00207049C867012046
:100E90001F214FF489734FF49C72CDE90010D021CB
:100EA000CC200AF038F801201F214FF4AC734FF426
:100EB0009C72CDE90010111FCC200AF02CF897E0AD
:100EC000E01C295CA01C285C01EB0026601D295C4D
:100ED000201D285C01EB0027002E1DD3F019CE2821
:100EE0001AD8B3464FEA0B4040EA570B4FF00008C0
:100EF0000EE09FE02CE07AE0E01D4044285C08EB27
:100F00004601524A42F8210008F1010000F0FF08B2
:100F1000B8EB470FF0D301E04FF0100A601CC4B2E9
:100F2000285D40EA0A0003A90855601CC4B2285D88
:100F30000855601CC4B2285D0855601CC4B2285D09
:100F40000855601CC4B2285D0855601CC4B24FE04F
:100F5000E01C295CA01C285C01EB0026601D295CBC
:100F6000201D285C01EB002778008090002E2DD3F7
:100F7000F01967282AD8601CC4B2285D03A9085557
:100F8000601CC4B27806000E08554FF0000818E047
:100F900006EB08002D4931F82000C0F30721601C42
:100FA000C0B2044603AA115406EB0800274911F801
:100FB0002010601CC0B20446115408F1010000F07A
:100FC000FF08B845E4D3601CC4B20FE00624285DD6
:100FD00003A90855641C4FF0100A285D40EA0A0076
:100FE00008550121601C044603AA115400E000BF0B
:100FF00000BF134800788DF80C00114840788DF838
:101000000D0000208DF80E008DF80F00A01F000AC3
:101010008DF81000A01FC0B28DF811004FF4806150
:1010200007480EF03AFF224603A90548FFF723FEC2
:101030000448047058460DF5017D09E0383500205C
:10104000B8570020C525002000080240B04C002001
:10105000BDE8F08F70B50A46002314E000210CE0D3
:10106000058830F81160B54205DD048830F811506C
:10107000058020F811404D1CA9B2D51A6D1E8D4275
:10108000EEDC591C8BB2511E9942E7DC70BD10B5E5
:101090000EF0BAFD002108460EF0EEF90021042002
:1010A0000EF0EAF9064904200EF003FB0549002082
:1010B0000EF0FFFA044901200EF0DEF910BD000029
:1010C000560200203E0200202E02002000B585B00E
:1010D0000121080702F01DFD012003F014F9012091
:1010E00002F06BFB00BF412002F020FB0028FAD089
:1010F0004FF4807002F062FC012002F07AFC03F0F1
:10110000ADF9002003F068FF43F2F22188422CD0B1
:101110007F200390FF2004900020029002A803F09B
:1011200064FA00208DF8060001208DF805008DF886
:10113000040000208DF8070001A9012003F0F0FA57
:1011400001208DF8020007208DF8010002208DF8A3
:1011500000000E208DF803006946012003F07EFB9D
:1011600043F2F221002003F02AFF05B000BD30B5A4
:1011700087B0044606A9002003F0D6FB1421C74817
:101180000EF08BFEC6A59DF81B20C6A101A80FF08E
:101190006FF801A9C1480EF08BFE2946BF480EF03A
:1011A00087FE9DF81920BFA101A80FF061F801A9E1
:1011B000BA480EF07DFE2946B8480EF079FE9DF83B
:1011C0001A20B8A101A80FF053F801A9B3480EF0F6
:1011D0006FFE5CB19DF8180020709DF819006070DA
:1011E0009DF81A00A0709DF81B00E070AB4807B096
:1011F00030BD30B587B0044606A9002003F0FAFAE6
:101200001421AA480EF049FEA9A59DF81820A5A111
:1012100001A80FF02DF801A9A4480EF049FE2946B7
:10122000A2480EF045FE9DF819209EA101A80FF0DE
:101230001FF801A99D480EF03BFE29469B480EF081
:1012400037FE9DF81A2097A101A80FF011F801A907
:1012500096480EF02DFE5CB19DF8180020709DF8A8
:10126000190060709DF81A00A0709DF81B00E070D6
:101270008E4807B030BD2DE9FC4104468DA52821DC
:101280008A480EF00AFE6846FFF7B3FF064601A83B
:10129000FFF76DFF0746394687480EF015FE2946D1
:1012A00085480EF005FE314683480EF001FE8CB1F4
:1012B0009DF8070020709DF8050060709DF80600FD
:1012C000A0709DF80000E0709DF8010020719DF86D
:1012D000020060717848BDE8FC8108B510208DF8E7
:1012E000030001208DF801001C208DF802006946E2
:1012F000002003F0B3FA08BD08B50D208DF80000FA
:101300001D208DF801000B208DF802006946002099
:1013100003F006FA08BD30B50346032908DA01F1E7
:101320000C00C1B2002B02DD581EC3B200E0042342
:1013300002EB4104481C9A25684304EB1020184432
:1013400000EBA300C2B2702A02DBA2F17000C2B2AD
:10135000382A02DBA2F13800C2B21C2A02DBA2F159
:101360001C00C2B20E2A02DBA2F10E00C2B2072A92
:1013700001DBD01FC2B2501CC0B230BD10B588B066
:1013800001A8FFF778FF04469DF804000A2190FBAE
:10139000F1F03030C0B28DF80C009DF8040090FBE5
:1013A000F1F201FB12003030C0B28DF80D002F2099
:1013B0008DF80E009DF8050090FBF1F03030C0B2C2
:1013C0008DF80F009DF8050090FBF1F201FB120073
:1013D0003030C0B28DF810002F208DF811009DF82C
:1013E000060090FBF1F03030C0B28DF812009DF88D
:1013F000060090FBF1F201FB12003030C0B28DF814
:10140000130020208DF814009DF8070090FBF1F0E8
:101410003030C0B28DF815009DF8070090FBF1F256
:1014200001FB12003030C0B28DF816002D208DF86F
:1014300017009DF8080090FBF1F03030C0B28DF835
:1014400018009DF8080090FBF1F201FB120030300B
:10145000C0B28DF819002D208DF81A009DF80900F2
:1014600090FBF1F03030C0B28DF81B009DF8090000
:1014700090FBF1F201FB12003030C0B28DF81C007D
:1014800000208DF81D0003A84FF6FF730022009086
:101490004FF4167009F013FD08B010BD6035002040
:1014A000202D200025303269000000004C3500203E
:1014B000203A2000202000007435002070B586B04E
:1014C0000546FB48007890B9F948407878B9F84863
:1014D000807860B9F648C07848B9F548007930B9E5
:1014E000F348407918B9F248807900B90025002DF9
:1014F0007ED0002405E0EE48005D02A90855601C7E
:10150000C4B2082CF7DB9DF809009DF8081000EB29
:101510000126022406E002A8015DA01E04AA1154BF
:10152000601CC4B2082CF6DB00208DF8170004A85C
:101530001F234FF6FF72D6210090EA2009F0CBFF5F
:101540004CF2C931701A8E4268D03FDC4BF6A6319E
:10155000A6EB01008E4271D01DDC4BF6CA01A6EB52
:1015600001008E426BD00DDCA6F53040A0F5367040
:10157000002875D0B0F5E87F73D0A0F21D40002898
:101580006DD1EBE009286DD0B0F5937F6BD0B0F54D
:10159000047FF5D18AE0B0F5157F6FD00ADCB0F595
:1015A000827F6CD0A0F21710B8B3A0F235100028DB
:1015B000E6D173E1A0F20330002875D0B0F5487F82
:1015C00068D0A0F20A400028DAD192E040F61D422D
:1015D000811A904274D022DC40F22442A0EB020136
:1015E000904277D00CDC2D2875D0A0F2351000E0A9
:1015F000A5E1002870D0A0F2E2200028C0D111E1BE
:10160000A1F2D510002868D0A0F2132000286FD0D6
:10161000A0F219200028B3D160E017E0C6E040F244
:10162000DB42881A91426ED00ADCDC296ED0A1F22E
:10163000FF31002969D0C029A2D115E074E1A1E0F1
:1016400005281DD0B0F5917F9AD173E099A01F2392
:101650004FF6FF72D6210090D22009F03CFF6DE1D9
:10166000EAE0D5E070E083E093A01F234FF6FF721D
:10167000D6210090D22009F02EFF5FE18CE0A9E096
:101680008EA01F234FF6FF72D6210090D22009F0C2
:1016900022FF53E18AA01F234FF6FF72D62100904C
:1016A000D22009F018FF49E1EEE009E085A01F23F0
:1016B0004FF6FF72D6210090D22009F00CFF3DE1D9
:1016C00081A01F234FF6FF72D6210090D22009F08F
:1016D00002FF33E1BAE087E0C2E071E07BA01F23A4
:1016E0004FF6FF72D6210090D22009F0F4FE25E1DA
:1016F00016E077A01F234FF6FF72D6210090D2206C
:1017000009F0E9FE1AE179E000E0B3E071A01F23DF
:101710004FF6FF72D6210090D22009F0DCFE0DE1D9
:101720006DA01F234FF6FF72D6210090D22009F042
:10173000D2FE03E169A01F234FF6FF72D62100906D
:10174000D22009F0C8FEF9E065A01F234FF6FF7212
:10175000D6210090D22009F0BEFEEFE061A01F2349
:101760004FF6FF72D6210090D22009F0B4FEE5E0DA
:101770005DA01F234FF6FF72D6210090D22009F002
:10178000AAFEDBE059A01F234FF6FF72D62100907E
:10179000D22009F0A0FED1E055A01F234FF6FF7222
:1017A000D6210090D22009F096FEC7E051A01F2359
:1017B0004FF6FF72D6210090D22009F08CFEBDE0DA
:1017C0004DA01F234FF6FF72D6210090D22009F0C2
:1017D00082FEB3E049A01F234FF6FF72D62100908E
:1017E000D22009F078FEA9E045A01F234FF6FF7232
:1017F000D6210090D22009F06EFE9FE041A01F2369
:101800004FF6FF72D6210090D22009F064FE95E0D9
:101810003DA01F234FF6FF72D6210090D22009F081
:101820005AFE8BE039A01F234FF6FF72D62100909D
:10183000D22009F050FE81E035A01F234FF6FF7241
:10184000D6210090D22009F046FE77E031A01F2378
:101850004FF6FF72D6210090D22009F03CFE6DE0D9
:101860002DA01F234FF6FF72D6210090D22009F041
:1018700032FE63E029A01F234FF6FF72D6210090AD
:10188000D22009F028FE59E025A01F234FF6FF7251
:10189000D6210090D22009F01EFE4FE021A01F2388
:1018A0004FF6FF72D6210090D22009F014FE45E0D9
:1018B00008020020BCBD0000D4A50000D4C6000072
:1018C000C1C90000BADA0000CFE60000CDEE00008A
:1018D000C2B30000D0C20000CBD50000D5E30000A9
:1018E000B8D30000B6F50000B9F00000B8CA000097
:1018F000BDFA0000C3C90000C9C20000BCAA0000B4
:10190000C3F60000D4C10000B4A80000C7E0000086
:10191000B2D80000C7ED0000C4FE0000D3E500000F
:10192000BEA90000BDF20000FEA01F234FF6FF720B
:10193000D6210090D22009F0CEFD00BF00BF06B036
:1019400070BD00B587B00121084602F099F8012169
:10195000102002F095F80121480402F0DAF807227D
:101960000221F14801F079FE07220321EE4801F03F
:1019700074FE0420059002208DF818008DF81900DF
:1019800000208DF81A008DF81B0005A9E64801F02B
:10199000D9FD0820059002208DF8180005A9E2481D
:1019A00001F0D0FD0820059001208DF818000320DB
:1019B0008DF8190000208DF81A008DF81B0005A97C
:1019C000DA4801F0BFFD26208DF8100000208DF8C8
:1019D000110005208DF8120001208DF8130004A8D5
:1019E00001F0BFFC4FF4165000900020ADF8040049
:1019F000ADF80600ADF80800ADF80C000C20ADF80D
:101A00000A006946CA4804F0EAFD0121C84804F00A
:101A10006EFE012240F22551C54804F01EFF082148
:101A2000C24801F00BFE07B000BD00B587B0012130
:101A3000022002F025F80121042002F021F8012102
:101A4000880402F066F807220A21BA4801F005FE70
:101A500007220B21B74801F000FE4FF4806005908B
:101A600002208DF818008DF8190000208DF81A005A
:101A70008DF81B0005A9AF4801F064FD4FF400602C
:101A8000059002208DF8180005A9AA4801F05AFD1A
:101A90001020059001208DF8180003208DF8190002
:101AA00000208DF81A008DF81B0005A9A24801F04E
:101AB00049FD27208DF8100000208DF8110001202D
:101AC0008DF812008DF8130004A801F04AFC4FF4C1
:101AD000165000900020ADF80400ADF80600ADF8F7
:101AE0000800ADF80C000C20ADF80A0069469348D8
:101AF00004F075FD0121914804F0F9FD012240F246
:101B000025518E4804F0A9FE10218B4801F096FD66
:101B100007B000BD00B587B00121084601F0B0FF55
:101B20000121102001F0ACFF0121C80401F0F1FFF8
:101B3000082200217C4801F090FD082201217A480A
:101B400001F08BFD0120059002208DF818008DF822
:101B5000190000208DF81A008DF81B0005A97248A5
:101B600001F0F0FC022005908DF8180005A96E48E0
:101B700001F0E8FC0420059001208DF818000320F6
:101B80008DF8190000208DF81A008DF81B0005A9AA
:101B9000664801F0D7FC34208DF8100000208DF845
:101BA000110002208DF8120001208DF8130004A806
:101BB00001F0D7FB4FF4165000900020ADF8040060
:101BC000ADF80600ADF80800ADF80C000C20ADF83B
:101BD0000A0069465A4804F002FD0121584804F001
:101BE00086FD012240F22551554804F036FE0421BD
:101BF0004E4801F025FD07B000BDF0B587B00446A2
:101C00000D4616461F4601210C2001F039FF012127
:101C1000080501F07EFF082202214A4801F01DFD5F
:101C200008220C21444801F018FD4FF48050059023
:101C300002208DF818008DF8190000208DF81A0088
:101C400001208DF81B0005A93B4801F07BFC042016
:101C5000059002208DF8180005A93A4801F072FCA1
:101C60004020059001208DF8180002208DF8190001
:101C700000208DF81A0001208DF81B0005A93148BD
:101C800001F060FC35208DF8100000208DF8110067
:101C900005208DF8120001208DF8130004A801F032
:101CA00060FB00940020ADF804004FF40050ADF844
:101CB00006000020ADF80800ADF80C000420ADF8D7
:101CC0000A006946204804F08AFC01211E4804F0FD
:101CD0000EFD012240F225511B4804F0BEFD4021BB
:101CE000184801F0ADFC07B0F0BD00B587B0012188
:101CF0000C2001F0C5FE0121080501F00AFF0822B1
:101D00000221104801F0A9FC08220C210A4801F028
:101D1000A4FC4FF48050059002208DF818008DF837
:101D2000190013E0BBA600000000024000100240B2
:101D30000044004000040240000802400048004007
:101D4000004C0040000C02400050004000208DF884
:101D50001A0001208DF81B0005A9FE4801F0F2FBD6
:101D60000420059002208DF8180005A9FA4801F01A
:101D7000E9FB4020059001208DF8180002208DF825
:101D8000190000208DF81A0001208DF81B0005A90C
:101D9000F14801F0D7FB35208DF8100000208DF8B8
:101DA00011008DF8120001208DF8130004A801F035
:101DB000D8FA4FF4165000900020ADF80400ADF8AA
:101DC0000600ADF80800ADF80C000420ADF80A00DC
:101DD0006946E24804F003FC0121E04804F087FC76
:101DE000012240F22551DD4804F037FD4021DA4858
:101DF00001F026FC07B000BD70B502460C46FF2579
:101E0000FF2309E012F8010B80EA0301D448405C8B
:101E100080EA0503D348455C201EA4F10106B4B254
:101E2000F0D143EA052070BD2DE9F04F9DB00024AC
:101E300004E0CD48005D01A90855641C142CF8D3BA
:101E40009DF80500C94908709DF804001A900846DD
:101E5000007803280BD008460078042807D00846ED
:101E60000078062803D014201DB0BDE8F08FBF48CD
:101E70000078032803D0BD480078042801D14FF032
:101E80000608BA480078062800D18046414601A8D5
:101E9000FFF7B2FF064606F0FF0B300A1B9001A8C1
:101EA00010F80800584506D101A908F10100095CA5
:101EB0001B98814201D00220D6E7AC480078032865
:101EC0006CD19DF807009DF8061000EB01279DF8E6
:101ED00009009DF8081000EB012A002403E000200F
:101EE000A3490855641C642CF9D3A1491A980870B9
:101EF000032048704FEA4A058D7000241EE0002040
:101F00001C9017E03819401C092810D2994830F865
:101F10002400C0F30720032101EB4401944A5054EC
:101F2000944810F82400042101EB440150541C98FB
:101F3000401C1C901C982B28E4D3641C5445DED311
:101F4000ED1CA9B28A48FFF757FF064606F0FF0BC3
:101F5000300A1B90864800F805B06D1C84491B9818
:101F600048556D1C002048550821834801F066FB48
:101F70000A20FEF733FC002404E07D48005D7F4921
:101F80000855641CAC42F8D900207D4908707D4991
:101F90000D7001207C490870002065E773480078C7
:101FA000062833D19DF807009DF8061000EB0127A5
:101FB000032F01D0042057E79DF809009DF8081071
:101FC00000EB01296B48C0F80C90704981F8009033
:101FD0000821694801F032FB0A20FEF7FFFB0020D0
:101FE0008DF80C00002404E001A8005D6349085549
:101FF000641C082CF8D3002061490870082061494E
:10200000087001206049087000202DE700BF2BE711
:1020100010B50446A1B25E4804F094FB10BD10B5A3
:102020000446A1B25B4804F08DFB10BD10B5044618
:10203000A1B2594804F086FB10BDFCB50546079CCB
:102040009FED560AF0EE400A9FED550AB0EE401A99
:102050008DF800308DF801208DF802108DF80350B6
:102060006F4601AE002007E017F800C006F800C078
:1020700000F1010C0CF0FF000428F5DB062C31D236
:10208000DFE804F030030C151E279FED460AF0EE42
:10209000400A9FED430AB0EE401A23E09FED410A4B
:1020A000F0EE400A9FED400AB0EE401A1AE09FEDB4
:1020B0003F0AF0EE400AB1EE000AB0EE401A11E01D
:1020C0009FED3B0AF0EE400A9FED3A0AB0EE401A4F
:1020D00008E09FED340AF0EE400A9FED330AB0EEBF
:1020E000401A00BF00BF9DED010AB4EEE00AF1EE18
:1020F00010FA08D2042C04D09FED280A8DED010AB5
:1021000001E0CDED010A9DED010AB4EEC10AF1EE48
:1021100010FA01DD8DED011A9DED010AFCBD70B5CF
:1021200040F225511C4804F0D3FB00286FD040F248
:102130002551194804F0C3FB174804F007FB1E495A
:1021400008701E48007801287ED1084600781C4996
:102150001C4A39E000080240000C024000500040D8
:1021600084020020840300201C400020AB040020D7
:10217000404E0020B04C002000100240264F0020AE
:10218000A2040020A3040020A40400208C0400204A
:102190000044004000480040004C004000000000A7
:1021A0000000C8430AD7233C286B6E4EACC52737C6
:1021B000000020C200004843AE040020B20400200A
:1021C000BA3500208E04002012788854F748007831
:1021D000401CF6490870084600780E2846DD0020AD
:1021E000F3490870F3488078AA283FD1F1488678EF
:1021F000032404E0EF48005D4640601CC4B20E2C8E
:10220000F8DBEC48807BB04230D1042407E064E086
:10221000E848015D201FE84A1154601CC4B20B2C31
:10222000F6DBE5484078E449097800EB0120E34912
:102230008864E148C078E049897800EB0120DF49F3
:10224000C864DD48407900E010E0DB49097900EB23
:102250000120DA490865D848C079D749897900EB67
:102260000120D64948650120D5490870D04800783A
:1022700098BBD448007880B9D348007801280CD1A5
:10228000D2480078882808D10120CE490870C84972
:1022900008700220C549087006E00020CA4908708D
:1022A000C8490870C2490870C8480078BB2814D1D2
:1022B0000120C54908700020C24908700120C449A6
:1022C00008700020B9490870002504E00020B949D1
:1022D0004855681CC5B20A2DF8DB0821BD4804F03A
:1022E000E1FA30B10821BB4804F0E9FAB94804F03A
:1022F0002DFA70BD10B540F22551B64804F0E8FA49
:10230000002879D040F22551B24804F0D8FAB148FB
:1023100004F01CFAAD490870A5480078012833D1B3
:1023200008460078A349A14A127888549F4800784B
:10233000401C9E49087008460078082824DB0020CD
:102340009B4908709B48807801281DD19948C07826
:10235000012819D197484079402803D09548407901
:10236000412811D193484079402802D101209A494F
:10237000087090484079412806D10220964908709B
:102380008C488079954908708948007860BB8D48F1
:10239000007880B98C48007801280CD18B480078EF
:1023A000CC2808D101208749087081490870022093
:1023B0007E49087006E00020834908708149087052
:1023C0007B49087081480078FF2815D101207E499B
:1023D000087000207B49087001207D4908700020AA
:1023E00072490870002405E006E000207149085594
:1023F000601CC4B20A2CF8DB0821764804F052FABB
:1024000030B10821734804F05AFA724804F09EF97A
:1024100010BD012100201FE0714A125C302A03DB4D
:102420006F4A125C392A08DD6D4A125C202A04D0FA
:1024300000226B4B1A54002110E0694A125C202ADA
:1024400003D10022664B1A5404E0654A125C303A0C
:10245000634B1A54421CD0B20628DDDB00BF0129B1
:1024600044D15F4A12785F4B5A435F4B1A605C4A13
:10247000527840F2712312FB03F25B4B1B6803EBB3
:102480000212594B1A60564A927802EB4203C3EB90
:10249000C212554B1B6803EBC202534B1A60504AE1
:1024A000D27802EBC20303EB02124F4B1B6803EB23
:1024B00082024D4B1A604A4A127902EB82021B6873
:1024C00003EB4202484B1A60454A52791B681A4492
:1024D000454B1A601A46128892B2384B1A63424A28
:1024E0001268120C5A635522DA6202E00022334B62
:1024F000DA62704710B598B048223C4906A80DF042
:10250000B3FC2D48007806A911F810008DF80400DE
:1025100029480078012101EB400006A9085C8DF8EC
:102520000500012405E02448015D601C01AA115446
:10253000C4B2072CF7DB00208DF80C0001A81F2384
:102540004FF6FF724FF49D710090D22008F0C3FF48
:1025500018B010BD70B540F22551254804F0B8F907
:1025600000287CD040F22551214804F0A8F92048E9
:1025700004F0ECF8C6B206F07F051E48007801288A
:1025800058D11D481D49096845541C480068401C25
:102590001A4908600D2D44D108460068112840D121
:1025A000002014490870042436E000008E04002046
:1025B000B2040020BA350020CE350020B04C0020F7
:1025C000B4040020B1040020B0040020AE040020B8
:1025D000AD040020004C0040B30400208C04002017
:1025E000BC040020A0860100CC0400207006020874
:1025F00000500040B6040020D8350020B804002068
:10260000FA48015D201FFA4A1154F848015D201F65
:10261000F84A1154601CC4B20A2CF1DB0120F649BF
:102620000870F6480068202804D90020F449087092
:10263000F2490860022D12D10120F14908700024EE
:1026400005E00CE00020E9490855601CC4B2642C88
:10265000F8DB0120E94908600220E44908704FF4E2
:102660005871E84804F01EF940B14FF45871E5483C
:1026700004F025F9E34804F069F8C5B270BDF0B57F
:102680008BB040F22551E04804F022F900287DD0BB
:10269000DD4804F05BF8064640F22551DA4804F0C4
:1026A0000EF9DA480078012871D1D949D94A12784F
:1026B0008E54D8480078401CD6490870D448C07859
:1026C000662807D0672809D069280BD11420D24981
:1026D00008700BE00F20D049087007E00D20CE49AC
:1026E000087003E00D20CC49087000BF00BFC94846
:1026F0000078C9490978884249DBC548C07869280B
:102700001FD1C6480078012818D1C148407B303815
:10271000C7B2002406E0A01DBD49085CC0490855A9
:10272000601CC4B2082CF6DB0120FEF7C7FE552062
:10273000BC4948620020B949087002E00020B9494C
:102740004862B348C078672867D1B148007900F083
:10275000F000302861D1AE48407900F0F000302818
:102760005BD1AB48807900F0F000302855D1A84803
:10277000C07900F0F00030284FD1A548007A00F071
:10278000F000302849D1A248407A01E07BE04DE0DA
:1027900000F0F000302840D19D48807A00F0F00031
:1027A00030283AD19A48C07A00F0F000302834D16D
:1027B00000240AE09649201D085C9B4908550846FC
:1027C000005D01A90855601CC4B2082CF2DB002092
:1027D0008DF80C0001A81F234FF6FF72F421009022
:1027E000D22008F078FE0025002409E08E48005D24
:1027F0002844A0F1300505EB85004500601CC4B2FB
:10280000082CF3DB0A20B5FBF0F5A8B28549086671
:10281000280C48660120814908700020834908700F
:1028200083490870794908707A49087077480078B8
:1028300048BB7F480078A8B97C480078012811D1AE
:10284000CC2E0FD17A490870704908700220714966
:1028500008700D2070490870FF206D490870CC2069
:10286000487006E000207149087071490870674996
:102870000870FF2E07D101206C49087000206C49B8
:102880000870624908700BB0F0BD08B540F22551E0
:10289000684804F01DF800287ED040F225516548B4
:1028A00004F00DF8634803F051FFC0B20090624895
:1028B0000078012871D19DF800006049604A1278C3
:1028C00088545F480078401C5D4908709DF80000FE
:1028D0004B2803D00846007812286DDD00205649A9
:1028E00008709DF800004B2866D15448407800F0ED
:1028F000F00030282DD15148807800F0F0003028C9
:1029000027D14E48C07800F0F000302821D14B4844
:10291000407800F00F004B4908600846006800014D
:1029200008604648807800F00F000968084445496F
:10293000086008460068000108604048C07800F060
:102940000F00096808443F49086008460068354997
:1029500088603A48007900F0F000302829D13748E3
:10296000407900F0F000302823D13448007900F09D
:102970000F0035490870084600780007000E0870FF
:102980002E48407900F00F00097808442E4908705D
:1029900008460078234901E01AE00DE0C8602A48A3
:1029A0000078002802DD5520086102E0AA201D49B8
:1029B00008610020224908709DF800004A2807D1CC
:1029C00001201D4908701E4908704A201B490870E3
:1029D0000821184803F066FF012806D10821154890
:1029E00003F06DFF134803F0B1FE08BDD835002099
:1029F000BC040020C3040020B5040020B80400205B
:102A0000B60400200050004000440040850400202F
:102A1000084000209C04002084040020A104002021
:102A200008020020B04C00209C35002086040020C5
:102A30008704002000480040D0040020E44000202B
:102A4000A5040020D4040020DC04002070B5044656
:102A50004A20CD490870302000EB2410487004F063
:102A60000F00303088704B20C87000200871102192
:102A7000C64800F0E3FD4FF43C70FDF7AFFE0025C3
:102A80000AE0C148415DC24803F05CFE42F6FF70B7
:102A9000FDF7A4FE681CC5B2042DF2DB1021BB4873
:102AA00000F0CEFD70BD70B5FF20BA490870CC2093
:102AB000487001208870C870032008716020487138
:102AC000412088715520C8710025022405E0B148D5
:102AD000005D2844C5B2601CC4B2082CF7DBAD48C9
:102AE00005720421AC4800F0A9FD0020AB49087034
:102AF0000920AB4908700120AA49087070BDFEB5D5
:102B0000A948006800EB8000440000208DF8040014
:102B1000A648B4FBF0F0C0B28DF80500A348B4FBA2
:102B2000F0F100FB1144A248B4FBF0F0C0B28DF804
:102B300006009F48B4FBF0F100FB114442F2107014
:102B4000B4FBF0F0C0B28DF8070042F21070B4FB95
:102B5000F0F100FB11444FF47A70B4FBF0F0C0B216
:102B60008DF808004FF47A70B4FBF0F100FB1144CB
:102B70006420B4FBF0F0C0B28DF809006420B4FB0F
:102B8000F0F100FB11440A20B4FBF0F0C0B28DF864
:102B90000A000A20B4FBF0F100FB1144E0B28DF80A
:102BA0000B0000208DF8000041208DF801008920E5
:102BB0008DF8020020208DF80300FF207549087071
:102BC000CC20487001208870C870072008716120EF
:102BD00048719DF8000088719DF80100C8719DF84A
:102BE000020008729DF803004872724800788872EB
:102BF00071480078C8720026022505E06548405DEE
:102C00003044C6B2681CC5B20C2DF7DB61480673B0
:102C10000421614800F012FD0020604908700D2079
:102C20005F49087001205F490870FEBD2DE9FE4331
:102C3000044662A207CA8DE807000027B8468DF84F
:102C4000004029208DF8050006216846FFF7D4F8DA
:102C50000646F7B24FEA16288DF806708DF8078001
:102C600004214D4800F0ECFC002057490860572033
:102C7000564908704FF43C70FDF7B0FD00250AE09E
:102C80001DF80510524803F05DFD43F6FF70FDF797
:102C9000A5FD681CC5B2082DF2DB04213E4800F0FA
:102CA000CDFC40F2FF20FDF799FD04EBC40049493B
:102CB00011F82000401C04EBC401464A02F8210030
:102CC000BDE8FE83FEB5064643A207CA8DE80700AD
:102CD000042E0ED117208DF80300CC25022404E029
:102CE0001DF804004540601CC4B20A2CF8DB8DF8C6
:102CF0000A50032E0ED159208DF80300CC25022452
:102D000004E01DF804004540601CC4B20A2CF8DB46
:102D10008DF80A50022E0ED156208DF80300CC25D6
:102D2000022404E01DF804004540601CC4B20A2CD3
:102D3000F8DB8DF80A5000208DF80B0008211648AA
:102D400000F07CFC4FF43C70FDF748FD00240AE0E5
:102D50001DF80410234803F0F5FC4FF6FF70FDF753
:102D60003DFD601CC4B20B2CF2DB08210A4800F0C8
:102D700067FC00201C4908701C4908701C49087039
:102D80001C490870FEBD00009A5000200008024057
:102D9000004800402A50002000100240A8040020F3
:102DA000A9040020AA040020CC04002040420F0007
:102DB000A0860100D4040020DC04002001030033BD
:102DC000002911F400000000000200208F04002000
:102DD000004C004034380020FFCC015738313036E9
:102DE00031389C0000440040860400208704002005
:102DF000850400209C0400202DE9F0418AB004469F
:102E00000D4616461F46DDF840800121022000F0E5
:102E100037FE0121480600F07CFE4FF44070089018
:102E200002208DF8240000208DF8260003208DF864
:102E3000250001208DF8270008A9F84800F082FB42
:102E400009221146F54800F008FC09220821F34840
:102E500000F003FC00208DF81A008DF81B008DF89F
:102E60001C0001208DF81D0000208DF81E008DF83B
:102E70001F008DF816808DF817408DF818608DF8BA
:102E80001950ADF8147005A9E54803F084FD002041
:102E90008DF80E008DF80F0001208DF81000002035
:102EA000ADF80400ADF80600ADF80800ADF80A0072
:102EB000ADF80C0001208DF8110001A803F0F5FD1C
:102EC00001220221D64804F0EFF814208DF800000A
:102ED00001208DF8010000208DF8020001208DF8FE
:102EE0000300684600F03DFA0AB0BDE8F08108B57D
:102EF000CC49096801F00101CA4A1160017809064C
:102F000000914178009A42EA014100918178009A4B
:102F100042EAC1310091C178009A42EAC121009190
:102F20000179009A42EAC1010091009941F004013F
:102F30000091BC4A00991160017A0A06C17942EAFF
:102F40000142817942EA012142791143B54A0832AE
:102F50001160017B0A06C17A42EA0142817A42EAA3
:102F60000121427A1143AF4A0C321160417B01F0DA
:102F70000F014173AB49091D096821F00F02A949EE
:102F8000091D0A600968427B1143A64A121D11609F
:102F9000111F096841F00101121F116008BD10B531
:102FA00086B0002401AA00219D4803F062FF00BF03
:102FB00000E0641C082CFCDB06B010BD70B50546B3
:102FC0000024032098490870084645700220C87004
:102FD0000A200871012088700820487300BF05E0AE
:102FE00000219148401D0155601C84B2082CF7DB7C
:102FF0008D48FFF77CFF002401E0601C84B231465D
:10300000874803F0D9FE18B940F6FF708442F4DB1C
:1030100040F6FF70844201DB012070BD0020FCE718
:1030200030B585B0054600217D4803F0A5FF10B9F5
:10303000002005B030BD6A460021794803F019FF31
:10304000002404E00DF10B00005D2855641C9DF880
:103050000A00A042F6D89DF80A00EAE72DE9F041FF
:103060008AB004460D4616461F46DDF84080012111
:10307000022000F005FD0121480600F04AFD012173
:10308000880600F046FD6020089002208DF824009C
:1030900000208DF8260003208DF8250001208DF8F2
:1030A000270008A95D4800F04DFA092205215B4878
:1030B00000F0D3FA09220621584800F0CEFA002089
:1030C0008DF81A008DF81B008DF81C0001208DF87A
:1030D0001D0000208DF81E008DF81F008DF8168051
:1030E0008DF817408DF818608DF81950ADF81470F0
:1030F00005A94E4803F04FFC0E208DF80E0000206D
:103100008DF80F0001208DF810000020ADF80400AC
:10311000ADF80600ADF80800ADF80A00ADF80C00F7
:1031200001208DF8110001A803F0BFFC012202214B
:103130003E4803F0B9FF40208DF8000001208DF8D3
:10314000010000208DF8020001208DF80300684680
:1031500000F007F90AB0BDE8F08110B586B0002490
:1031600001AA00212E4803F084FE00BF00E0641C89
:10317000082CFCDB06B010BDF0B585B007460D4647
:10318000002412200090019000208DF808008DF896
:1031900009008DF80A5000BF05E0395D0DF10B0004
:1031A0000155601C84B2AC42F7DB69461F4803F04E
:1031B0006BFD0646002401E0601C84B231461B48CA
:1031C00003F0FAFD18B940F6FF708442F4DB40F6D4
:1031D000FF70844202DB012005B0F0BD0020FBE758
:1031E00030B585B005460021104803F0C5FE10B982
:1031F000002005B030BD6A4600210C4803F039FEBE
:10320000002404E00DF10B00005D2855641C9DF8BE
:103210000A00A042F6D89DF80A00EAE7000402403E
:103220000064004080650040CC50002000680040F1
:1032300010B504466FF0040000F0E0F8E11704EB6D
:103240005171C1F3C701394A11701046007800EB83
:103250004001C1EBC0104FF6FF7101EAC0003449D4
:10326000088010BD0146314A12784A434FF0E023EE
:103270005A6100229A611A46126942F001021A61EB
:1032800000BF4FF0E022106900F001021AB100F413
:103290008032002AF5D04FF0E022126922F00102BC
:1032A0004FF0E0231A6100229A6170470146204ADC
:1032B00012884A434FF0E0235A6100229A611A466D
:1032C000126942F001021A6100BF4FF0E02210695A
:1032D00000F001021AB100F48032002AF5D04FF05C
:1032E000E022126922F001024FF0E0231A6100226D
:1032F0009A61704770B504464FF4077094FBF0F084
:10330000C6B24FF4077094FBF0F100FB114085B298
:1033100005E04FF40770FFF7C9FF701EC6B2002E1C
:10332000F7D115B12846FFF7C1FF70BDE6040020B4
:10333000E80400200648804706480047FEE7FEE70D
:10334000FEE7FEE7FEE7FEE7FEE7FEE7FEE7FEE755
:10335000A90601088901010832490143324A116076
:10336000704770B5002100230F22C4781CB32E4C87
:10337000246804F4E064C4F5E064C4F30721C1F1F7
:103380000404E3B20A4144789C40E1B284781440DA
:1033900021430C07210E254C05786155047804F073
:1033A0001F050124AC4005786D11AD0005F1E02545
:1033B000C5F8004109E0047804F01F050124AC4081
:1033C0001B4D0678761145F8264070BD194A0A4013
:1033D0000243154B1B1F1A60704739B1124A121D68
:1033E00012680243104B1B1D1A6006E00E4A121DA4
:1033F000126882430C4B1B1D1A607047042808D1C9
:103400004FF0E021096941F004014FF0E022116121
:1034100007E04FF0E021096921F004014FF0E022BC
:10342000116170470000FA050CED00E000E400E0D7
:1034300080E100E080FFFF1F10B5044698488442F9
:1034400008D10121084600F086FB0021012000F090
:1034500082FB76E09348844208D10121022000F0EB
:103460007AFB0021022000F076FB6AE08E4884425D
:1034700008D10121042000F06EFB0021042000F09F
:103480006AFB5EE08948844208D10121082000F0EF
:1034900062FB0021082000F05EFB52E08448844279
:1034A00008D10121102000F056FB0021102000F06F
:1034B00052FB46E07F48844208D10121202000F0E1
:1034C0004AFB0021202000F046FB3AE07A48844283
:1034D00008D10121402000F03EFB0021402000F0F7
:1034E0003AFB2EE07548844208D10121802000F08B
:1034F00032FB0021802000F02EFB22E07048844245
:1035000008D10121801500F026FB0021A01500F054
:1035100022FB16E06B48844208D10121401500F0DF
:103520001AFB0021601500F016FB0AE06648844291
:1035300007D10121001500F00EFB0021201500F03D
:103540000AFB10BDF0B50A4600210023002400BF8D
:103550003DE0012505FA01F3156805EA03049C42E4
:1035600034D105684F000326BE40B5430560157988
:103570004E00B5400668354305601579012D02D02F
:103580001579022D16D185684F000326BE40B5433C
:10359000856055794E00B54086683543856045683D
:1035A00001268E40B5434560456896798E40B6B297
:1035B00035434560C5684F000326BE40B543C5602E
:1035C000D5794E00B540C6683543C560491C102901
:1035D000BFD3F0BD4FF6FF71016000210171417151
:1035E0008171C171704708B54FF480320092009A22
:1035F0000A430092009AC261C161009AC261C26925
:103600000092C269009208BD0246002013690B4077
:103610000BB1012000E0002070470146086980B22C
:1036200070470246002053690B400BB1012000E0B7
:10363000002070470146486980B270470183704797
:10364000418370470AB1018300E0418370474161C3
:10365000704742694A4042617047F0B50023002438
:103660004D07ED0E02FA05F3CE1000F1200555F8D6
:1036700026504E07F70E0F26BE40B543CF1000F17F
:10368000200646F82750CE1000F1200555F82650A8
:1036900045EA0304CE1000F1200545F82640F0BDB0
:1036A000000002400004024000080240000C0240FA
:1036B000001002400014024000180240001C0240AA
:1036C000002002400024024000280240F94800681F
:1036D00040F00100F74908600020F6490831086011
:1036E000F4480068F4490840F2490860F348091DAD
:1036F0000860F348EF4984310860F0481038091D2C
:103700000860EC48006820F48020EA490860002046
:10371000E8490C310860E7498C31086070470021A6
:10372000E44A921C117011460870704710B50146AA
:103730000022002300204A11012A02D1DD4C236817
:1037400008E0022A03D1DB4C7034236802E0D94C34
:103750007434236801F01F02012494401C400CB112
:10376000012000E0002010BD38B5002000900024AA
:10377000002500BF3120FFF7D9FF05460098401C07
:1037800000900098B0F5A04F01D0002DF2D031206C
:10379000FFF7CCFF08B1012400E00024204638BD2B
:1037A00001460020C34A106820F0F80040EAC1003A
:1037B00010607047C349086070470021BD4A7032ED
:1037C00011701170012802D004280AD104E00121EF
:1037D000B84A7032117005E00521B64A7032117096
:1037E00000E000BF00BF7047B7490860704770B580
:1037F000049C41EA82150126C6EB530645EA0645BC
:10380000054345EA0465AB4E361D356070BDAD49D4
:1038100008667047820142EA0172A64B84331A603F
:103820007047A8498866704710B5830143EA016371
:1038300043EA02739F4C8834236010BDA149086796
:103840007047A049C864704702460020994B08336E
:10385000186820F0EC6042EA01031843954B0833E6
:103860001860704702460020924B0833186820F019
:10387000784042EA010318438E4B083318607047C2
:10388000014600208B4A0832106820F003000843EC
:103890001060704787480830006800F00C007047DF
:1038A00001460020834A0832106820F0F0000843E7
:1038B00010607047014600207E4A0832106820F4EC
:1038C000E05008431060704701460020794A0832F2
:1038D000106820F4604040EAC10010607047F0B505
:1038E000002100220024022500260223714F083700
:1038F0003F6807F00C0121B1042905D0082937D110
:1039000005E0724F076036E0714F076033E0694FA2
:103910003F1D3F68C7F38056664F3F1D3F6807F065
:103920003F036EB16A4FB7FBF3F7DFF888C10CF1C4
:10393000040CDCF800C0CCF3881C07FB0CF40CE092
:10394000624FB7FBF3F7DFF86CC10CF1040CDCF845
:1039500000C0CCF3881C07FB0CF4564F3F1D3F689A
:10396000C7F301477F1C7D00B4FBF5F7076002E059
:10397000564F076000BF00BF4E4F08373F6807F043
:10398000F0010909534F7A5C0768D7404760494FF7
:1039900008373F6807F4E051890A4E4F7A5C476860
:1039A000D7408760434F08373F6807F46041490BB1
:1039B000484F7A5C4768D740C760F0BD002100F4EB
:1039C0004072B2F5407F0AD13A4A0832116821F4B8
:1039D000F811414A02401143364A08321160354A13
:1039E00070321268C0F30B031A43324B70331A6003
:1039F0007047354944390860704733494039086099
:103A0000704736490860704701460020294A8C32C9
:103A1000106820F01F004A1E1043264A8C321060A6
:103A2000704701460020234A8C32106820F4F85079
:103A30004A1E40EA02201F4A8C321060704701463D
:103A400000201C4A8C32106820F44010084310609B
:103A5000704701460020174A8C32106820F440005D
:103A600008431060704701460020124A8C321068EB
:103A700020F44030084310607047194908607047CF
:103A800039B10C4A3032126802430A4B30331A60A3
:103A900006E0084A303212688243064B30331A601F
:103AA0007047F9B1034A343212680243014B343390
:103AB0001A601CE000380240FFFFF6EA10300024D4
:103AC0000030002000004742800E47420024F400EE
:103AD00000127A00EA040020FFFCFF0F5C0147425D
:103AE000E01147428F4A126882438E4B1A6070473A
:103AF00039B18C4A121D126802438A4B1B1D1A6091
:103B000006E0884A121D12688243864B1B1D1A600C
:103B1000704739B1834A0C3212680243814B0C332F
:103B20001A6006E07F4A0C32126882437D4B0C33E8
:103B30001A60704739B17B4A103212680243794BE0
:103B400010331A6006E0774A103212688243754BD0
:103B500010331A60704739B1724A243A126802432E
:103B6000704B243B1A6006E06E4A243A1268824386
:103B70006C4B243B1A60704739B16A4A203A12688C
:103B80000243684B203B1A6006E0664A203A1268FE
:103B90008243644B203B1A60704739B1614A1C3A3A
:103BA000126802435F4B1C3B1A6006E05D4A1C3AF8
:103BB000126882435B4B1C3B1A60704739B1594A0B
:103BC000143A12680243574B143B1A6006E0554AF8
:103BD000143A12688243534B143B1A60704739B150
:103BE000504A103A126802434E4B103B1A6006E0EE
:103BF0004C4A103A126882434A4B103B1A60704795
:103C000039B1484A1C3212680243464B1C331A60D1
:103C100006E0444A1C3212688243424B1C331A604D
:103C2000704739B13F4A2032126802433D4B20337E
:103C30001A6006E03B4A203212688243394B203337
:103C40001A60704739B1374A243212680243354B43
:103C500024331A6006E0334A243212688243314B1F
:103C600024331A60704739B12E4A2C32126802434D
:103C70002C4B2C331A6006E02A4A2C3212688243FD
:103C8000284B2C331A60704739B1264A30321268FB
:103C90000243244B30331A6006E0224A3032126865
:103CA0008243204B30331A607047012808D11D49E8
:103CB0003C31096841F008011A4A3C32116007E0C2
:103CC00018493C31096821F00801164A3C3211605C
:103CD000704739B1134A273A12780243114B273BF8
:103CE0001A7006E00F4A273A127882430D4B273BA1
:103CF0001A7070470B484030006840F080700949E6
:103D000040310860704701460020064A283A126890
:103D10000A400AB1012000E000207047014926391D
:103D2000087070473438024030B943F2DB0281003A
:103D3000A1F1C0410A6005E043F2D2028100A1F185
:103D4000C0410A606FF07042411C8900A1F1C0417E
:103D50000A608100A1F1C041C1F804217047D0E997
:103D600001121143C26811430269114342691143B0
:103D700082691143C2691143026A1143426A1143C5
:103D8000826A1143C26A1143026B114302689200B6
:103D9000A2F1C0421160816808290BD10168890035
:103DA000A1F1C041096841F0400201688900A1F118
:103DB000C0410A60416B0968426B526841EA0211D6
:103DC000426B926841EA0221426B928941EA0241C8
:103DD000426B128A41EA0251426B127D41EA026152
:103DE000426B926911430268521C9200A2F1C042D8
:103DF0001160C16AB1F5804F1BD1816B0968826B7C
:103E0000526841EA0211826B926841EA0221826B98
:103E1000128A41EA0251826B127D41EA0261826B91
:103E20009269114302689200A2F1C042C2F80411E3
:103E300007E06FF0704201688900A1F1C041C1F84C
:103E4000042170470021016002214160002181604E
:103E5000C160016141618161C16101624FF48051C2
:103E60004162490081620021C1620163F8494163F6
:103E70008163704751B18200A2F1C042126842F0E2
:103E800001038200A2F1C042136009E08200A2F1A6
:103E9000C0421268EF4B1A408300A3F1C0431A607E
:103EA000704710280AD118214FF020421166402196
:103EB00051664FF0FC319166D16610E01821E64A58
:103EC000116040214FF02042C2F884104FF0FC31C5
:103ED000E14A083211604FF02042C2F88C1070475E
:103EE00030B5002100220023446844F008048568AE
:103EF0002C43C5682C4305692C43456944EA452495
:103F0000856944EA4531C4692468C5696D6844EA35
:103F10000524C5692D8944EA0544C5692D7B44EA19
:103F20000562046A2468056A6D6844EA0524056A26
:103F30002D8944EA0544056A2D7B44EA056304683B
:103F4000102C05D14FF020442166A266E36608E0FC
:103F5000C14C21604FF02044C4F88820BE4C0C3482
:103F6000236030BD10210160002141608160C1608B
:103F7000016141618161FC21C2691160C2695160C6
:103F8000C2699160C269D160026A1160026A5160BF
:103F9000026A9160026AD160704799B1102808D115
:103FA0004FF02042126E42F004024FF020431A6696
:103FB0001DE0A94A126842F004024FF02043C3F802
:103FC000802014E0102809D14FF02042126EA14B3E
:103FD000DB1E1A404FF020431A6608E09E4A126822
:103FE0009C4BDB1E1A404FF02043C3F880207047E3
:103FF00099B1102808D14FF02042126E42F04002D1
:104000004FF020431A661DE0934A126842F04002C6
:104010004FF02043C3F8802014E0102809D14FF05E
:104020002042126E8B4B3F3B1A404FF020431A66E2
:1040300008E0894A1268874B3F3B1A404FF0204303
:10404000C3F88020704701460020102903D14FF0AB
:104050002042506F02E0804A1432106870471820E6
:104060007D492031086000200906C1F8A4004FF006
:10407000FC30794928310860091D0860091D086075
:104080007047016841F01001426841EA42218268AC
:1040900041EA4231704A20321160C1680968C26841
:1040A000526841EA0221C268128941EA0241C268AB
:1040B000127B41EA0261684A28321160016909688D
:1040C0000269526841EA02210269128941EA024109
:1040D0000269127B41EA02615F4A2C321160416938
:1040E00009684269526841EA02214269128941EA3B
:1040F00002414269127B41EA02614FF02042C2F85C
:10410000B01070470021016041608160FC21C268ED
:104110001160C2685160C2689160C268D160026972
:10412000116002695160026991600269D16042695F
:10413000116042695160426991604269D160704783
:1041400048B145492031096841F004014FF020424F
:10415000C2F8A01009E04049203109683D4AD21E4A
:1041600011404FF02042C2F8A010704710B5F2B1D4
:10417000102807D14FF020435B6E0B434FF02044D3
:10418000636632E0B0F5807F08D1334B1B1D1B689E
:104190000B434FF02044C4F8843026E02E4B2433E8
:1041A0001B680B434FF02044C4F8A4301DE01028D6
:1041B00007D14FF020435B6E8B434FF02044636682
:1041C00013E0B0F5807F08D1234B1B1D1B688B4388
:1041D0004FF02044C4F8843007E01F4B24331B68A1
:1041E0008B434FF02044C4F8A43010BD10B50246F4
:1041F00000200023102A03D14FF02044636E09E011
:10420000B2F5807F03D1144C241D236802E0124CC8
:104210002434236803EA01040CB1012000E00020EB
:1042200010BD102807D14FF02042526E8A434FF044
:1042300020435A6619E0B0F5807F0FD1064A121D5F
:1042400012688A434FF02043C3F884200DE0000039
:1042500004060208FEFF0F00800000A0234A126837
:104260008A434FF02043C3F8A420704770B502463C
:104270000020002300240025102A03D14FF02046FF
:10428000736E08E0B2F5807F03D1184E203E33688C
:1042900001E0164E336803EA010403EAD10514B1C4
:1042A0000DB1012000E0002070BD102808D14FF0B2
:1042B0002042526E22EAD1024FF020435A6614E0A7
:1042C000B0F5807F09D1094A203A126822EAD1026A
:1042D0004FF02043C3F8842007E0044A126822EA22
:1042E000D1024FF02043C3F8A4207047A40000A0DF
:1042F00010B501210807FFF761FC00214FF0805045
:10430000FFF75CFC10BD524908627047014600206F
:10431000504A106820F0E0000843106070474C4994
:10432000086170474A49A031086070474849A43184
:104330000860704701460020464A106820F440405B
:104340000843106070474249086470474049486418
:10435000704730B13F49096841F440213D4A11603E
:1043600005E03C49096821F440213A4A1160704750
:1043700018B10121364AD16202E00021344AD162EB
:10438000704718B10121324A916202E00021304A9F
:10439000916270472E494862704710B5024600206E
:1043A0002C4B186840F6034398431043294B186080
:1043B000294B1B6843F00403274C2360012901D1DA
:1043C00030BF00E020BF244B1B6823F00403224CC5
:1043D000236010BD10B5024600201E4B186840F641
:1043E0000343984310431B4B18601B4B1B6843F05F
:1043F0000403194C2360012901D130BF00E020BF24
:10440000154B1B6823F00403134C236010BD1148A7
:10441000006840F002000F4908600F48006840F053
:1044200004000D49086000BF00BF30BF704701465F
:104430000020084A52680A400AB1012000E000202A
:1044400070470449096841EA8001024A11607047D7
:1044500000000E420070004010ED00E008B50022A0
:10446000009200200021CA22F94B1A6053221A60E0
:10447000F74A183A126822F0A002F54B183B1A606E
:1044800000BFF34A183A126802F02001009A521C49
:104490000092009AB2F5003F01D00029F1D0EC4A19
:1044A000183A126802F020020AB1012000E0002050
:1044B000FF22E74B1A6008BD08B5002200920020D9
:1044C0000021E34A183A126802F04002E2B9421EA3
:1044D000DF4B183B1A6000BFDD4A183A126802F041
:1044E0004001009A521C0092009AB2F5803F01D020
:1044F0000029F1D0D64A183A126802F040020AB1F7
:10450000012002E0002000E0012008BD38B50020B5
:10451000009000240025CA20CD490860532008607F
:10452000FFF7CAFF00B952E00020C94924390860EA
:1045300042F20110091D0860081D006800F0070024
:10454000091D086000BFC2481838006800F0040464
:104550000098401C00900098B0F5803F01D0002CDE
:10456000F1D0BB481838006800F0040008B90025F5
:104570002DE0B7481C3800680020B5491C39086098
:104580004FF6FF70B24910390860B248091F086041
:104590000020AF490C390860091D0860091D08603A
:1045A000AB4908310860AA4918310860A849203190
:1045B0000860091D0860A64918390860A4491C3123
:1045C0000860FFF74BFF08B9002500E00125FF2038
:1045D0009F490860284638BD9D481838006820F07B
:1045E00080009B4918390860704730B504460025A3
:1045F000CA209749086053200860FFF75DFF00B9A3
:104600001DE093481C38006820F0400090491C3998
:10461000086008460068216808438D491C39086015
:104620008B491439A068086008460068A18840EAF0
:104630000140874914390860FFF7CEFF0125FF20AC
:1046400083490860284630BD002101607F21416018
:10465000FF218160704718B1FF217D4A116004E09D
:10466000CA217B4A116053211160704730B504465E
:104670000025CA207649086053200860FFF71CFF18
:1046800000B914E044B172481C38006840F01000D2
:104690006F491C39086007E06D481C38006820F03D
:1046A00010006B491C390860FFF796FF0125FF20B9
:1046B00067490860284630BDCA21654A1160532108
:1046C000116040B162491C39096841F02001604A1B
:1046D0001C3A116007E05E491C39096801F0DF01EE
:1046E0005B4A1C3A1160FF21594A1160704701462C
:1046F000002204E0501CC2B2A1F10A00C1B20A2992
:10470000F8DA100741EA10607047014600BF080957
:1047100000EB8000420001F00F001044C0B270476F
:104720002DE9F04105460C460026002755B94848BA
:104730001C38006800F0400000B102E00020E0708A
:1047400000BF0EE042481C38006800F0400020B175
:104750002078FFF7DAFF064602E00020E07000BF95
:1047600000BF55B120780004617840EA0120A178AB
:104770000843E17840EA014611E02078FFF7B7FFEF
:104780004FEA00486078FFF7B2FF48EA0028A078B7
:10479000FFF7ADFF48EA0008E07848EA0046CA2083
:1047A0002B49086053200860FFF786FE08B90027F0
:1047B00014E029483040264924390860FFF70CFFEF
:1047C00023481C38006800F0200030B9FFF746FE8F
:1047D00008B9002702E0012700E00127FF201C495B
:1047E00008603846BDE8F0810021C1700170417059
:1047F0008170704770B506460C4600251448243871
:104800000068154900EA0105C5F305402070C5F3AD
:104810000620607005F07F00A07005F48000000C99
:10482000E0705EB92078FFF770FF20706078FFF7C6
:104830006CFF6070A078FFF768FFA07070BD00206B
:104840000349091D086802492039096870470000BA
:1048500024280040FF007F007F7F7F002DE9F0418A
:1048600005460C46002600274DB9607800F0100080
:10487000102804D1607820F010000A30607005B96B
:1048800008E06078FFF741FF0646A078FFF73DFF9C
:10489000064600BF55B1E0780004617840EA012087
:1048A000A1780843217840EA413611E0E078FFF72B
:1048B0001EFF4FEA00486078FFF719FF48EA00281A
:1048C000A078FFF714FF48EA0008207848EA40364D
:1048D000CA20FE49086053200860FFF7EDFD08B9C3
:1048E000002714E0FA483040F84920390860FFF703
:1048F00073FEF6481C38006800F0200030B9FFF75E
:10490000ADFD08B9002702E0012700E00127FF20E4
:10491000EE4908603846BDE8F081012101708170E0
:1049200041700021C170704770B506460C460025E5
:10493000E64820380068E64900EA0105280CE070E6
:10494000C5F30420607005F03F00A070C5F342304D
:1049500020705EB9E078FFF7D8FEE0706078FFF76E
:10496000D4FE6070A078FFF7D0FEA07070BD2DE976
:10497000F04105460E46144600276DB9D3481C3851
:10498000006800F0400000B102E00020E07000BFCD
:10499000A06800B91AE019E0CC481C38006800F0A3
:1049A000400020B12078FFF7B0FE074602E000206B
:1049B000E07000BFA06820B9207BFFF7A6FE074685
:1049C00004E0207BFFF7A1FE074600BF95B12078E9
:1049D0000004617840EA0120A1780843E17840EAC8
:1049E0000140217B40EA0160A1680843616840EA18
:1049F00001071BE02078FFF77AFE4FEA0048607855
:104A0000FFF775FE48EA0028A078FFF770FE48EA35
:104A10000008E07848EA0048207BFFF768FE48EA93
:104A20000060A1680843616840EA0107CA20A749FD
:104A3000086053200860B6F5807F03D1A34808388A
:104A4000076002E0A148001F0760FF209F4908603F
:104A5000BDE8F0810021C1700170417081708160FA
:104A6000012101730021416070472DE9F0410646A4
:104A70000F4614460025B7F5807F03D193480838C8
:104A8000056802E09148001F0568C5F305402070E5
:104A9000C5F30620607005F07F00A07005F480006B
:104AA000000CE070C5F30560207305F08040A06045
:104AB00005F0803060607EB92078FFF726FE207018
:104AC0006078FFF722FE6070A078FFF71EFEA070EE
:104AD000207BFFF71AFE2073BDE8F08138B502464F
:104AE0000024009400230020CA24784D2C60532415
:104AF0002C6041B1754C1C3C24681443734D1C3D23
:104B00002C6001201EE0714C1C3C246894436F4DC6
:104B10001C3D2C6000BF6D4C183C246804EA122335
:104B2000009C641C0094009CB4F5803F01D0002BD5
:104B3000F1D0664C183C246804EA12240CB9002019
:104B400000E00120FF24614D2C6038BD30B500230A
:104B5000CA245E4D2C6053242C6041EA0203B0F558
:104B6000807F03D1594C2034236002E0574C243419
:104B70002360FF24554D2C6030BD01460020B1F567
:104B8000807F05D1514A20321268C2F30E0004E042
:104B90004E4A24321268C2F30E007047CA214B4AB3
:104BA00011605321116049491C39096821F007013E
:104BB000464A1C3A11601146096801431160FF2101
:104BC000424A11607047CA21404A11605321116066
:104BD0003E4910390860FF21116070473B4810388A
:104BE000006880B2704718B5014600230093002288
:104BF0000020CA23354C23605323236049B1334B33
:104C00001C3B1B6843F48063304C1C3C2360012038
:104C10001FE02E4B1C3B1B6823F480632B4C1C3C79
:104C2000236000BF294B183B1B6803F00402009B64
:104C30005B1C0093009BB3F5803F01D0002AF1D0AC
:104C4000224B183B1B6803F004030BB9002000E063
:104C50000120FF231D4C236018BDCA221B4B1A6084
:104C600053221A60194A1C3A126822F48022174B08
:104C70001C3B1A601A46126840EA01031A43134BA0
:104C80001C3B1A60FF22114B1A6070470F481C38FA
:104C9000006800F480207047CA220C4B1A6053222F
:104CA0001A600A4A1C3A126822F4E002074B1C3BC5
:104CB0001A601A46126840EA01031A43034B1C3B70
:104CC0001A60FF22014B1A60704700002428004040
:104CD0003FFFFF0070B504460D460026CA20F64986
:104CE000086053200860FFF7E7FB00B907E044EADB
:104CF0000500F1490C390860FFF76EFC0126FF2022
:104D0000ED490860304670BD30B504460025CA2024
:104D1000E949086053200860FFF7CEFB00B914E0B2
:104D200044B1E5481C38006840F08000E2491C3975
:104D3000086007E0E0481C38006820F08000DE4989
:104D40001C390860FFF748FC0125FF20DA4908609C
:104D5000284630BDCA21D84A11605321116040B1A4
:104D6000D5491C39096841F40001D34A1C3A116045
:104D700007E0D1491C39096821F40001CE4A1C3AE8
:104D80001160FF21CC4A11607047CA21CA4A1160E4
:104D900053211160C8491C39096821F40021C64A11
:104DA0001C3A11601146096801431160FF21C24A93
:104DB0001160704770B5034600200024CA25BE4E1E
:104DC000356053253560BC4D183D2D6805F48035A0
:104DD00055B100E0641CB84D183D2D6805F48035D0
:104DE00015B1B4F5003FF5D1B34D183D2D6805F46C
:104DF00080353DB943EA01051543AF4E183635609D
:104E0000012000E00020FF25AB4E356070BD10B5DD
:104E10000A460021A84B1C3B1B6840F6080423EA05
:104E200004011AB140F40063194300E00143CA23AE
:104E3000A14C2360532323609F4B1C3B1960FF232D
:104E4000236010BD2DE9F04180460C461546002632
:104E5000002799480C300068984900EA01069648F6
:104E600010300068964900EA0107C6F3054020703B
:104E7000C6F30620607006F07F00A07006F4800084
:104E8000000CE0700020E870C7F30420687007F0A1
:104E90003F00A870C7F342302870B8F1000F17D157
:104EA0002078FFF732FC20706078FFF72EFC6070EE
:104EB000A078FFF72AFCA0706878FFF726FC6870DE
:104EC000A878FFF722FCA8702878FFF71EFC28704E
:104ED000BDE8F081784814300068704741B9764ADF
:104EE0001C32126822EA4002734B1C331A6007E03E
:104EF000714A1C32126842EA40026F4B1C331A603E
:104F0000704739B16C4A1C32126802436A4B1C3339
:104F10001A6006E0684A1C3212688243664B1C33F2
:104F20001A60704764491C31096821F4C051624A13
:104F30001C321160114609680143116070475E49D7
:104F40001C31096821F4E0615B4A1C321160114692
:104F5000096801431160704757491C31096821F401
:104F6000C041554A1C321160114609680143116065
:104F7000704740B150491C31096841F080014E4AE8
:104F80001C32116007E04C491C31096821F0800196
:104F9000494A1C321160704740B147491C310968C9
:104FA00021F40041444A1C32116007E042491C319F
:104FB000096841F40041404A1C321160704708B54D
:104FC000002200923C4A2C320092009A02EB8002AE
:104FD0000092009A116008BD08B5014600200090BB
:104FE00035482C300090009800EB8100009000982C
:104FF000006808BD30491C31096821F480312E4A0F
:105000001C321160114609680143116070472A493A
:105010001C31096821F40031274A1C321160114605
:10502000096801431160704723491C31096821F464
:105030008021214A1C321160114609680143116028
:105040007047F0B504460D4600270026CA201A49CD
:1050500008605320086018481838006800F00800FD
:1050600050B100E0761C14481838006800F00800C1
:1050700010B1B6F5805FF5D10F481838006800F020
:10508000080098B90C481C38006800F0100058B9A6
:1050900045EA0400084908310860FFF7DFF908B95C
:1050A000002704E0012702E0002700E00027FF209E
:1050B000014908603846F0BD242800407F7F7F000A
:1050C0003FFFFF00CA223D4B1A6053221A6091B184
:1050D0003A4A1C3A126820F004031A43374B1C3B2F
:1050E0001A60364A1C32126800F004031A43334B2C
:1050F0001C331A6011E0314A1C3A126820F0040394
:105100009A432E4B1C3B1A602C4A1C32126800F04A
:1051100004039A43294B1C331A60FF22274B1A6061
:10512000704710B5014600200022244B183B1B6835
:10513000234C03EA040202EA01030BB1012000E060
:10514000002010BD81B241F080011C4A183A12685B
:1051500002F0800262EA0101184A183A11607047B1
:1051600030B50146002000220023144C1C34246872
:1051700004F00402114C1C3C24680C4002EAD135B6
:1051800044EA05030D4C183C246804EA11121BB1D3
:1051900094B20CB1012000E0002030BD00210109D3
:1051A0008AB242F08002054B183B1B6803F0800373
:1051B00063EA0202014B183B1A6070472428004042
:1051C0007F3F010010B50446FB48844208D101210D
:1051D0008014FEF704FD0021A014FEF700FD3CE062
:1051E000F648844208D101210014FEF7E7FC0021B3
:1051F0002014FEF7E3FC30E0F148844208D101219D
:10520000C013FEF7DBFC0021E013FEF7D7FC24E01F
:10521000EC48844208D101214014FEF7E0FC002153
:105220006014FEF7DCFC18E0E748844209D1012154
:105230000805FEF7D4FC00214FF48010FEF7CFFCE8
:105240000BE0E248844208D101214805FEF7C7FC83
:1052500000214FF40010FEF7C2FC10BD10B5002273
:10526000028802F441520B884C8823438C882343E4
:10527000CC8823430C8923434C8923438C892343C3
:10528000CC8923431A430280838B4FF2FF7423405F
:1052900083830B8A038210BD2DE9F04F0025022382
:1052A00000244FF001090022002600279446904672
:1052B000B0F81CA04FF2400B0AEA0B0AA0F81CA0A1
:1052C0004FF0020AA0F820A0858BD1F808A0BAF10F
:1052D000020F01D100BF82E0B1F804A0BAF1000FC3
:1052E00002D14FF0010901E04FF00209DFF8E0A21E
:1052F000DAF800A00AF4000ABAF1000F09D0DFF8CA
:10530000D0A2DAF800A02AF4000ADFF8C4B2CBF881
:1053100000A0DFF8BCA20AF17C0ADAF800A0CAF308
:10532000881CDFF8ACA20AF17C0ADAF800A0CAF304
:105330000278DFF89CA2AAF1040ADAF800A00AF0C9
:105340003F07DFF88CA2AAF1040ADAF800A00AF4F9
:10535000800ABAF5800F08D1DFF878A2BAFBF7FA15
:105360000AFB0CFABAFBF8F607E0DFF86CA2BAFB0E
:10537000F7FA0AFB0CFABAFBF8F6B1F806A0BAF590
:10538000007F0ED14FEA162A0AEB8A0A4FEA4A0A30
:10539000D1F808B0BAFBFBFA0AF1050A1FFA8AF243
:1053A0000FE04FEA491AB6FBFAFA0AEB8A0A4FEA0B
:1053B0004A0AD1F808B0BAFBFBFA0AF1050A1FFA4B
:1053C0008AF24FF00A0AB2FBFAF202F00104A2EBF1
:1053D000040ACAF34F034FF6FF7A0AEA0424022BA9
:1053E00001DBFF2B01DD02230024B1F806A04AEA0D
:1053F000040A4AEA030AA0F820A0B1F804A0B1F810
:105400000CB04AEA0B0AB1F802B04AEA0B0AB1F84A
:1054100000B04AEA0B0A4AF4006A4AEA05058583A5
:10542000BDE8F08F0021018041808180C180018131
:1054300041818181C1810721018270470021018062
:1054400041808180C180022181600021818170477B
:1054500021B1028842F04002028004E002884FF647
:10546000BF731A400280704721B1828B42F4806280
:10547000828304E0828B4FF6FF331A4082837047A9
:1054800002884FF2FF731A40028002880A430280AA
:105490007047B1F5804F04D1028842F48042028007
:1054A00004E002884BF6FF731A40028070474FF603
:1054B000FF62914204D0028842F48072028004E0CC
:1054C00002884FF6FF631A400280704721B182883C
:1054D00042F00402828004E082884FF6FB731A4097
:1054E0008280704721B1828842F01002828004E0FD
:1054F00082884FF6EF731A408280704730B50022E1
:105500000023848B4FF240052C40848302240484C2
:10551000828B0C88B4F5007F01D00C8814B94FF44D
:10552000807308E00C88B4F5407F03D00C88B4F594
:10553000807F00D100238C888D892C434D882C439B
:105540001C4344F400642243828330BD01468889B1
:1055500070478181704721B1028842F40052028075
:1055600004E002884DF6FF731A40028070470188FC
:1055700041F480510180704702460020012901D08A
:10558000108B00E0908A70470146088A70471AB174
:1055900083880B43838002E083888B43838070473A
:1055A00030B5002400230C110125A540ABB2AAB1EF
:1055B00085881D43858014E000300140003800409C
:1055C000003C0040003401400050014000540140C4
:1055D0000838024000127A000024F40085889D43B8
:1055E000858030BD0246002013890B400BB101209D
:1055F00000E000207047CA4302817047F0B50246C0
:10560000002000240023002501F00F070126BE40E2
:10561000B4B20B1101269E40B3B2968806EA030588
:105620001689264016B10DB1012000E00020F0BD22
:1056300010B5002201F00F040123A3409AB2D34316
:10564000038110BD70B5002016E0002100EB400280
:10565000814B03EB8202516000EB400203EB8202BC
:10566000916000EB400203EB8202517000EB4002BC
:1056700003F82210411CC8B20428E6DB7749096808
:105680004FF47A73B1FBF3F2511EB1F1807F00D376
:105690001BE0511E4FF0E023596159170F230029D9
:1056A00007DA1C07260E6E4C01F00F052D1F6655FC
:1056B00003E01C07250E6B4C655400BF00214FF022
:1056C000E02399610721196100BF70BD00200146E8
:1056D00015E001EB4102604B03EB8200426852B1DE
:1056E0004268521E426032B9012242700278012A99
:1056F00001D18268426000BF481CC0B20146042943
:10570000E7DB59480068401C574A106010460068A3
:10571000401C08B900201060704770B5034600BFF8
:105720004FF0E0267569A82603FB06F400224FF02F
:10573000E026B16910E04FF0E026B06988420BD056
:10574000884202D20E1A324402E02E1A0E4432442B
:105750000146A24200D300E0EDE700BF70BD30B5C6
:105760000446002504E04FF47A70FFF7D6FF6D1C65
:10577000A542F8D330BD70B504460D461646042C3C
:1057800000DB70BD012000F063F804EB44003249F7
:1057900001EB8000456004EB440001EB8000856074
:1057A000002004EB44012C4A02EB810148702EB129
:1057B000012004EB440102F8210005E0002004EB85
:1057C0004401254A02F82100002000F041F800BF02
:1057D000D7E710B50446042C00DB10BD012000F013
:1057E00037F8002004EB44011B4A02EB81014860BA
:1057F00004EB440102EB8101487004EB440102F820
:10580000210000F025F800BFE7E70146042901DB8D
:105810000020704701EB41000F4A02EB8000407806
:10582000012808D1002001EB41020B4B03EB82025F
:1058300050700120EDE70020EBE710B5012000F0EB
:1058400007F809480468002000F002F8204610BD5F
:1058500080F3108870470000DC50002070020020A8
:1058600018ED00E000E400E0FC04002010B5044660
:10587000FE48844208D101210846FEF7B0F9002114
:105880000120FEF7ACF99DE0B4F1804F08D1012171
:105890000846FEF793F900210120FEF78FF991E009
:1058A000F348844208D101210220FEF787F9002144
:1058B0000220FEF783F985E0EE48844208D10121F9
:1058C0000420FEF77BF900210420FEF777F979E048
:1058D000E948844208D101210820FEF76FF9002130
:1058E0000820FEF76BF96DE0E448844208D10121FD
:1058F0001020FEF763F900211020FEF75FF961E048
:10590000DF48844208D101212020FEF757F9002109
:105910002020FEF753F955E0DA48844208D10121EE
:105920000220FEF75CF900210220FEF758F949E059
:10593000D548844209D101210804FEF750F900211D
:105940004FF48030FEF74BF93CE0D048844209D157
:1059500001214804FEF743F900214FF40030FEF71F
:105960003EF92FE0CA48844209D101218804FEF79C
:1059700036F900214FF48020FEF731F922E0C548C6
:10598000844208D101214020FEF718F9002140206F
:10599000FEF714F916E0C048844208D101218020A6
:1059A000FEF70CF900218020FEF708F90AE0BB4859
:1059B000844207D101218015FEF700F90021A015CE
:1059C000FEF7FCF810BD00220288A84B98420ED0CA
:1059D000AC4B98420BD0B0F1804F08D0A44B98420A
:1059E00005D0A44B984202D0A34B984204D14FF665
:1059F0008F731A404B881A43A04B984207D0A04B94
:105A0000984204D04FF6FF431A400B891A43028094
:105A10004B68C3620B880385944B984202D0994B24
:105A2000984201D18B7A03860123838270474FF01D
:105A3000FF31416000210180018141808172704706
:105A40000185828270470A46002101884FF68F73D4
:105A5000194011430180704741627047C16270472D
:105A60000146486A70470146088D704721B1028897
:105A700042F00202028004E002884FF6FD731A40F1
:105A80000280704721B1028842F00402028004E0E3
:105A900002884FF6FB731A400280704721B10288DA
:105AA00042F08002028004E002884FF67F731A40C1
:105AB0000280704702884FF6F7731A40028002880E
:105AC0000A430280704702884FF6FF431A40028063
:105AD00002880A430280704721B1028842F0010225
